{
  "contractName": "Dividends",
  "abi": [
    {
      "inputs": [
        {
          "internalType": "address",
          "name": "p_addressManager",
          "type": "address"
        }
      ],
      "stateMutability": "nonpayable",
      "type": "constructor"
    },
    {
      "anonymous": false,
      "inputs": [
        {
          "indexed": true,
          "internalType": "address",
          "name": "e_contractHoldings",
          "type": "address"
        },
        {
          "indexed": false,
          "internalType": "uint256",
          "name": "e_amount",
          "type": "uint256"
        },
        {
          "indexed": false,
          "internalType": "uint256",
          "name": "e_totalAmount",
          "type": "uint256"
        }
      ],
      "name": "AddDividends",
      "type": "event"
    },
    {
      "anonymous": false,
      "inputs": [
        {
          "indexed": true,
          "internalType": "address",
          "name": "e_holder",
          "type": "address"
        },
        {
          "indexed": false,
          "internalType": "uint256",
          "name": "e_amount",
          "type": "uint256"
        }
      ],
      "name": "ClaimDividends",
      "type": "event"
    },
    {
      "anonymous": false,
      "inputs": [
        {
          "indexed": true,
          "internalType": "address",
          "name": "previousOwner",
          "type": "address"
        },
        {
          "indexed": true,
          "internalType": "address",
          "name": "newOwner",
          "type": "address"
        }
      ],
      "name": "OwnershipTransferred",
      "type": "event"
    },
    {
      "anonymous": false,
      "inputs": [
        {
          "indexed": false,
          "internalType": "address",
          "name": "account",
          "type": "address"
        }
      ],
      "name": "Paused",
      "type": "event"
    },
    {
      "anonymous": false,
      "inputs": [
        {
          "indexed": true,
          "internalType": "address",
          "name": "e_holder",
          "type": "address"
        },
        {
          "indexed": true,
          "internalType": "address",
          "name": "e_seller",
          "type": "address"
        },
        {
          "indexed": false,
          "internalType": "uint256",
          "name": "e_amount",
          "type": "uint256"
        }
      ],
      "name": "Reinvest",
      "type": "event"
    },
    {
      "anonymous": false,
      "inputs": [
        {
          "indexed": false,
          "internalType": "address",
          "name": "account",
          "type": "address"
        }
      ],
      "name": "Unpaused",
      "type": "event"
    },
    {
      "anonymous": false,
      "inputs": [
        {
          "indexed": true,
          "internalType": "address",
          "name": "e_contractHoldings",
          "type": "address"
        },
        {
          "indexed": false,
          "internalType": "address",
          "name": "e_to",
          "type": "address"
        }
      ],
      "name": "widhdrawFundsByCompany",
      "type": "event"
    },
    {
      "inputs": [],
      "name": "owner",
      "outputs": [
        {
          "internalType": "address",
          "name": "",
          "type": "address"
        }
      ],
      "stateMutability": "view",
      "type": "function",
      "constant": true
    },
    {
      "inputs": [],
      "name": "paused",
      "outputs": [
        {
          "internalType": "bool",
          "name": "",
          "type": "bool"
        }
      ],
      "stateMutability": "view",
      "type": "function",
      "constant": true
    },
    {
      "inputs": [],
      "name": "renounceOwnership",
      "outputs": [],
      "stateMutability": "nonpayable",
      "type": "function"
    },
    {
      "inputs": [
        {
          "internalType": "address",
          "name": "newOwner",
          "type": "address"
        }
      ],
      "name": "transferOwnership",
      "outputs": [],
      "stateMutability": "nonpayable",
      "type": "function"
    },
    {
      "inputs": [
        {
          "internalType": "address",
          "name": "p_contractHoldings",
          "type": "address"
        },
        {
          "internalType": "uint256",
          "name": "p_idSnapshot",
          "type": "uint256"
        }
      ],
      "name": "amountSnapshots",
      "outputs": [
        {
          "internalType": "uint256",
          "name": "",
          "type": "uint256"
        }
      ],
      "stateMutability": "view",
      "type": "function",
      "constant": true
    },
    {
      "inputs": [
        {
          "internalType": "address",
          "name": "p_contractHoldings",
          "type": "address"
        }
      ],
      "name": "totalAmountSnapshots",
      "outputs": [
        {
          "internalType": "uint256",
          "name": "",
          "type": "uint256"
        }
      ],
      "stateMutability": "view",
      "type": "function",
      "constant": true
    },
    {
      "inputs": [
        {
          "internalType": "address",
          "name": "p_contractHoldings",
          "type": "address"
        },
        {
          "internalType": "address",
          "name": "p_account",
          "type": "address"
        },
        {
          "internalType": "uint256",
          "name": "p_idSnapshot",
          "type": "uint256"
        }
      ],
      "name": "amountSnapshotsAccount",
      "outputs": [
        {
          "internalType": "uint256",
          "name": "",
          "type": "uint256"
        },
        {
          "internalType": "bool",
          "name": "",
          "type": "bool"
        }
      ],
      "stateMutability": "view",
      "type": "function",
      "constant": true
    },
    {
      "inputs": [
        {
          "internalType": "bool",
          "name": "p_pause",
          "type": "bool"
        }
      ],
      "name": "setPause",
      "outputs": [],
      "stateMutability": "nonpayable",
      "type": "function"
    },
    {
      "inputs": [
        {
          "internalType": "address",
          "name": "p_origin",
          "type": "address"
        },
        {
          "internalType": "address",
          "name": "p_contractHoldings",
          "type": "address"
        },
        {
          "internalType": "uint256",
          "name": "p_amount",
          "type": "uint256"
        },
        {
          "internalType": "uint256",
          "name": "p_year",
          "type": "uint256"
        },
        {
          "internalType": "bool",
          "name": "p_withholding",
          "type": "bool"
        }
      ],
      "name": "addDividends",
      "outputs": [],
      "stateMutability": "nonpayable",
      "type": "function"
    },
    {
      "inputs": [
        {
          "internalType": "address",
          "name": "p_contractHoldings",
          "type": "address"
        },
        {
          "internalType": "address",
          "name": "p_contractSeller",
          "type": "address"
        },
        {
          "internalType": "uint256",
          "name": "p_amountReinvest",
          "type": "uint256"
        },
        {
          "internalType": "uint256",
          "name": "p_idSnapshot",
          "type": "uint256"
        }
      ],
      "name": "claimDividends",
      "outputs": [],
      "stateMutability": "nonpayable",
      "type": "function"
    },
    {
      "inputs": [
        {
          "internalType": "address",
          "name": "p_contractHoldings",
          "type": "address"
        },
        {
          "internalType": "address",
          "name": "p_to",
          "type": "address"
        }
      ],
      "name": "widhdrawFunds",
      "outputs": [],
      "stateMutability": "nonpayable",
      "type": "function"
    }
  ],
  "bytecode": "0x60806040523480156200001157600080fd5b5060405162002aa138038062002aa18339818101604052810190620000379190620001c0565b60008060006101000a81548160ff02191690831515021790555062000071620000656200008960201b60201c565b6200009160201b60201c565b62000082816200009160201b60201c565b50620001f2565b600033905090565b60008060019054906101000a900473ffffffffffffffffffffffffffffffffffffffff16905081600060016101000a81548173ffffffffffffffffffffffffffffffffffffffff021916908373ffffffffffffffffffffffffffffffffffffffff1602179055508173ffffffffffffffffffffffffffffffffffffffff168173ffffffffffffffffffffffffffffffffffffffff167f8be0079c531659141344cd1fd0a4f28419497f9722a3daafe3b4186f6b6457e060405160405180910390a35050565b600080fd5b600073ffffffffffffffffffffffffffffffffffffffff82169050919050565b600062000188826200015b565b9050919050565b6200019a816200017b565b8114620001a657600080fd5b50565b600081519050620001ba816200018f565b92915050565b600060208284031215620001d957620001d862000156565b5b6000620001e984828501620001a9565b91505092915050565b61289f80620002026000396000f3fe608060405234801561001057600080fd5b50600436106100a95760003560e01c80638da5cb5b116100715780638da5cb5b146101535780639aa94bbd14610171578063bedb86fb1461018d578063c66d544b146101a9578063d68df3ee146101d9578063f2fde38b146101f5576100a9565b8063155de3b3146100ae57806319c08de9146100de5780635c975abb146100fa578063715018a6146101185780638d6b3e2514610122575b600080fd5b6100c860048036038101906100c39190611acf565b610211565b6040516100d59190611b15565b60405180910390f35b6100f860048036038101906100f39190611b5c565b61025a565b005b610102610c03565b60405161010f9190611bde565b60405180910390f35b610120610c19565b005b61013c60048036038101906101379190611bf9565b610ca1565b60405161014a929190611c4c565b60405180910390f35b61015b610f53565b6040516101689190611c84565b60405180910390f35b61018b60048036038101906101869190611c9f565b610f7c565b005b6101a760048036038101906101a29190611d0b565b611278565b005b6101c360048036038101906101be9190611d38565b611313565b6040516101d09190611b15565b60405180910390f35b6101f360048036038101906101ee9190611d78565b61136e565b005b61020f600480360381019061020a9190611acf565b611756565b005b6000600260008373ffffffffffffffffffffffffffffffffffffffff1673ffffffffffffffffffffffffffffffffffffffff168152602001908152602001600020549050919050565b610262610c03565b156102a2576040517f08c379a000000000000000000000000000000000000000000000000000000000815260040161029990611e50565b60405180910390fd5b8373ffffffffffffffffffffffffffffffffffffffff1663b64a823b33836040518363ffffffff1660e01b81526004016102dd929190611e70565b602060405180830381865afa1580156102fa573d6000803e3d6000fd5b505050506040513d601f19601f8201168201806040525081019061031e9190611eae565b1561035e576040517f08c379a000000000000000000000000000000000000000000000000000000000815260040161035590611f27565b60405180910390fd5b8373ffffffffffffffffffffffffffffffffffffffff16631f67fdc933836040518363ffffffff1660e01b8152600401610399929190611e70565b6020604051808303816000875af11580156103b8573d6000803e3d6000fd5b505050506040513d601f19601f820116820180604052508101906103dc9190611eae565b61041b576040517f08c379a000000000000000000000000000000000000000000000000000000000815260040161041290611f93565b60405180910390fd5b60008473ffffffffffffffffffffffffffffffffffffffff16634ee2cd7e33846040518363ffffffff1660e01b8152600401610458929190611e70565b602060405180830381865afa158015610475573d6000803e3d6000fd5b505050506040513d601f19601f820116820180604052508101906104999190611fc8565b905060008573ffffffffffffffffffffffffffffffffffffffff1663c09448376040518163ffffffff1660e01b8152600401602060405180830381865afa1580156104e8573d6000803e3d6000fd5b505050506040513d601f19601f8201168201806040525081019061050c9190611fc8565b8673ffffffffffffffffffffffffffffffffffffffff1663981b24d0856040518263ffffffff1660e01b81526004016105459190611b15565b602060405180830381865afa158015610562573d6000803e3d6000fd5b505050506040513d601f19601f820116820180604052508101906105869190611fc8565b6105909190612024565b9050600082116105d5576040517f08c379a00000000000000000000000000000000000000000000000000000000081526004016105cc906120a4565b60405180910390fd5b6000600160008873ffffffffffffffffffffffffffffffffffffffff1673ffffffffffffffffffffffffffffffffffffffff16815260200190815260200160002060008581526020019081526020016000205482670de0b6b3a76400008561063d91906120c4565b6106479190612135565b61065191906120c4565b9050670de0b6b3a7640000816106679190612135565b9050808511156106ac576040517f08c379a00000000000000000000000000000000000000000000000000000000081526004016106a3906121b2565b60405180910390fd5b60008773ffffffffffffffffffffffffffffffffffffffff166308551a536040518163ffffffff1660e01b8152600401602060405180830381865afa1580156106f9573d6000803e3d6000fd5b505050506040513d601f19601f8201168201806040525081019061071d91906121e7565b73ffffffffffffffffffffffffffffffffffffffff1663992642e56040518163ffffffff1660e01b8152600401600060405180830381865afa158015610767573d6000803e3d6000fd5b505050506040513d6000823e3d601f19601f820116820180604052508101906107909190612375565b50509050818610156108b957600086836107aa9190612024565b90508173ffffffffffffffffffffffffffffffffffffffff1663a9059cbb33836040518363ffffffff1660e01b81526004016107e7929190611e70565b6020604051808303816000875af1158015610806573d6000803e3d6000fd5b505050506040513d601f19601f8201168201806040525081019061082a9190611eae565b610869576040517f08c379a00000000000000000000000000000000000000000000000000000000081526004016108609061244c565b60405180910390fd5b3373ffffffffffffffffffffffffffffffffffffffff167f07b1526e2f035ef911e77f3cf6560584097ade503cab29f5f26627567bb45833826040516108af9190611b15565b60405180910390a2505b6000861115610bf95760008773ffffffffffffffffffffffffffffffffffffffff1663992642e56040518163ffffffff1660e01b8152600401600060405180830381865afa15801561090f573d6000803e3d6000fd5b505050506040513d6000823e3d601f19601f820116820180604052508101906109389190612375565b505090508073ffffffffffffffffffffffffffffffffffffffff168273ffffffffffffffffffffffffffffffffffffffff16146109aa576040517f08c379a00000000000000000000000000000000000000000000000000000000081526004016109a1906124b8565b60405180910390fd5b8173ffffffffffffffffffffffffffffffffffffffff1663a9059cbb8973ffffffffffffffffffffffffffffffffffffffff166338af3eed6040518163ffffffff1660e01b8152600401602060405180830381865afa158015610a11573d6000803e3d6000fd5b505050506040513d601f19601f82011682018060405250810190610a3591906121e7565b896040518363ffffffff1660e01b8152600401610a53929190611e70565b6020604051808303816000875af1158015610a72573d6000803e3d6000fd5b505050506040513d601f19601f82011682018060405250810190610a969190611eae565b610ad5576040517f08c379a0000000000000000000000000000000000000000000000000000000008152600401610acc90612524565b60405180910390fd5b8773ffffffffffffffffffffffffffffffffffffffff1663c3eed29a88336040518363ffffffff1660e01b8152600401610b10929190612544565b6020604051808303816000875af1158015610b2f573d6000803e3d6000fd5b505050506040513d601f19601f82011682018060405250810190610b539190611eae565b610b92576040517f08c379a0000000000000000000000000000000000000000000000000000000008152600401610b8990612524565b60405180910390fd5b8773ffffffffffffffffffffffffffffffffffffffff163373ffffffffffffffffffffffffffffffffffffffff167fbd9e9ae6b441954a5a0075d31ec14eb7b0a728bacae5086a81b88e1d00dacbd789604051610bef9190611b15565b60405180910390a3505b5050505050505050565b60008060009054906101000a900460ff16905090565b610c2161184d565b73ffffffffffffffffffffffffffffffffffffffff16610c3f610f53565b73ffffffffffffffffffffffffffffffffffffffff1614610c95576040517f08c379a0000000000000000000000000000000000000000000000000000000008152600401610c8c906125b9565b60405180910390fd5b610c9f6000611855565b565b60008060008573ffffffffffffffffffffffffffffffffffffffff16634ee2cd7e86866040518363ffffffff1660e01b8152600401610ce1929190611e70565b602060405180830381865afa158015610cfe573d6000803e3d6000fd5b505050506040513d601f19601f82011682018060405250810190610d229190611fc8565b905060008673ffffffffffffffffffffffffffffffffffffffff1663c09448376040518163ffffffff1660e01b8152600401602060405180830381865afa158015610d71573d6000803e3d6000fd5b505050506040513d601f19601f82011682018060405250810190610d959190611fc8565b8773ffffffffffffffffffffffffffffffffffffffff1663981b24d0876040518263ffffffff1660e01b8152600401610dce9190611b15565b602060405180830381865afa158015610deb573d6000803e3d6000fd5b505050506040513d601f19601f82011682018060405250810190610e0f9190611fc8565b610e199190612024565b905060008203610e325760006001935093505050610f4b565b6000600160008973ffffffffffffffffffffffffffffffffffffffff1673ffffffffffffffffffffffffffffffffffffffff16815260200190815260200160002060008781526020019081526020016000205482670de0b6b3a764000085610e9a91906120c4565b610ea49190612135565b610eae91906120c4565b9050670de0b6b3a764000081610ec49190612135565b9050808873ffffffffffffffffffffffffffffffffffffffff1663b64a823b89896040518363ffffffff1660e01b8152600401610f02929190611e70565b602060405180830381865afa158015610f1f573d6000803e3d6000fd5b505050506040513d601f19601f82011682018060405250810190610f439190611eae565b945094505050505b935093915050565b60008060019054906101000a900473ffffffffffffffffffffffffffffffffffffffff16905090565b610f8461184d565b73ffffffffffffffffffffffffffffffffffffffff16610fa2610f53565b73ffffffffffffffffffffffffffffffffffffffff1614610ff8576040517f08c379a0000000000000000000000000000000000000000000000000000000008152600401610fef906125b9565b60405180910390fd5b6000600260008473ffffffffffffffffffffffffffffffffffffffff1673ffffffffffffffffffffffffffffffffffffffff168152602001908152602001600020549050600260008473ffffffffffffffffffffffffffffffffffffffff1673ffffffffffffffffffffffffffffffffffffffff1681526020019081526020016000206000905560008373ffffffffffffffffffffffffffffffffffffffff166308551a536040518163ffffffff1660e01b8152600401602060405180830381865afa1580156110cc573d6000803e3d6000fd5b505050506040513d601f19601f820116820180604052508101906110f091906121e7565b73ffffffffffffffffffffffffffffffffffffffff1663992642e56040518163ffffffff1660e01b8152600401600060405180830381865afa15801561113a573d6000803e3d6000fd5b505050506040513d6000823e3d601f19601f820116820180604052508101906111639190612375565b505090508073ffffffffffffffffffffffffffffffffffffffff1663a9059cbb84846040518363ffffffff1660e01b81526004016111a2929190611e70565b6020604051808303816000875af11580156111c1573d6000803e3d6000fd5b505050506040513d601f19601f820116820180604052508101906111e59190611eae565b611224576040517f08c379a000000000000000000000000000000000000000000000000000000000815260040161121b9061264b565b60405180910390fd5b8373ffffffffffffffffffffffffffffffffffffffff167f49aa311c54b8e7df9fea8ca2c281d0bf488c924b70b543d9550efd1f3ca3d9a78460405161126a9190611c84565b60405180910390a250505050565b61128061184d565b73ffffffffffffffffffffffffffffffffffffffff1661129e610f53565b73ffffffffffffffffffffffffffffffffffffffff16146112f4576040517f08c379a00000000000000000000000000000000000000000000000000000000081526004016112eb906125b9565b60405180910390fd5b80156113075761130261191a565b611310565b61130f6119bc565b5b50565b6000600160008473ffffffffffffffffffffffffffffffffffffffff1673ffffffffffffffffffffffffffffffffffffffff168152602001908152602001600020600083815260200190815260200160002054905092915050565b61137661184d565b73ffffffffffffffffffffffffffffffffffffffff16611394610f53565b73ffffffffffffffffffffffffffffffffffffffff16146113ea576040517f08c379a00000000000000000000000000000000000000000000000000000000081526004016113e1906125b9565b60405180910390fd5b60008473ffffffffffffffffffffffffffffffffffffffff1663737836b484846040518363ffffffff1660e01b8152600401611427929190611c4c565b6020604051808303816000875af1158015611446573d6000803e3d6000fd5b505050506040513d601f19601f8201168201806040525081019061146a9190611fc8565b905083600160008773ffffffffffffffffffffffffffffffffffffffff1673ffffffffffffffffffffffffffffffffffffffff16815260200190815260200160002060008381526020019081526020016000208190555083600260008773ffffffffffffffffffffffffffffffffffffffff1673ffffffffffffffffffffffffffffffffffffffff1681526020019081526020016000206000828254611510919061266b565b9250508190555060008573ffffffffffffffffffffffffffffffffffffffff166308551a536040518163ffffffff1660e01b8152600401602060405180830381865afa158015611564573d6000803e3d6000fd5b505050506040513d601f19601f8201168201806040525081019061158891906121e7565b73ffffffffffffffffffffffffffffffffffffffff1663992642e56040518163ffffffff1660e01b8152600401600060405180830381865afa1580156115d2573d6000803e3d6000fd5b505050506040513d6000823e3d601f19601f820116820180604052508101906115fb9190612375565b505090508073ffffffffffffffffffffffffffffffffffffffff166323b872dd8830886040518463ffffffff1660e01b815260040161163c9392919061269f565b6020604051808303816000875af115801561165b573d6000803e3d6000fd5b505050506040513d601f19601f8201168201806040525081019061167f9190611eae565b6116be576040517f08c379a00000000000000000000000000000000000000000000000000000000081526004016116b590612722565b60405180910390fd5b8573ffffffffffffffffffffffffffffffffffffffff167f2fbb9acbe16681931c13a2107215ca711e5e0b96944feacb82d85c267d3739d386600260008a73ffffffffffffffffffffffffffffffffffffffff1673ffffffffffffffffffffffffffffffffffffffff16815260200190815260200160002054604051611745929190612742565b60405180910390a250505050505050565b61175e61184d565b73ffffffffffffffffffffffffffffffffffffffff1661177c610f53565b73ffffffffffffffffffffffffffffffffffffffff16146117d2576040517f08c379a00000000000000000000000000000000000000000000000000000000081526004016117c9906125b9565b60405180910390fd5b600073ffffffffffffffffffffffffffffffffffffffff168173ffffffffffffffffffffffffffffffffffffffff1603611841576040517f08c379a0000000000000000000000000000000000000000000000000000000008152600401611838906127dd565b60405180910390fd5b61184a81611855565b50565b600033905090565b60008060019054906101000a900473ffffffffffffffffffffffffffffffffffffffff16905081600060016101000a81548173ffffffffffffffffffffffffffffffffffffffff021916908373ffffffffffffffffffffffffffffffffffffffff1602179055508173ffffffffffffffffffffffffffffffffffffffff168173ffffffffffffffffffffffffffffffffffffffff167f8be0079c531659141344cd1fd0a4f28419497f9722a3daafe3b4186f6b6457e060405160405180910390a35050565b611922610c03565b15611962576040517f08c379a000000000000000000000000000000000000000000000000000000000815260040161195990611e50565b60405180910390fd5b60016000806101000a81548160ff0219169083151502179055507f62e78cea01bee320cd4e420270b5ea74000d11b0c9f74754ebdbfc544b05a2586119a561184d565b6040516119b29190611c84565b60405180910390a1565b6119c4610c03565b611a03576040517f08c379a00000000000000000000000000000000000000000000000000000000081526004016119fa90612849565b60405180910390fd5b60008060006101000a81548160ff0219169083151502179055507f5db9ee0a495bf2e6ff9c91a7834c1ba4fdd244a5e8aa4e537bd38aeae4b073aa611a4661184d565b604051611a539190611c84565b60405180910390a1565b6000604051905090565b600080fd5b600080fd5b600073ffffffffffffffffffffffffffffffffffffffff82169050919050565b6000611a9c82611a71565b9050919050565b611aac81611a91565b8114611ab757600080fd5b50565b600081359050611ac981611aa3565b92915050565b600060208284031215611ae557611ae4611a67565b5b6000611af384828501611aba565b91505092915050565b6000819050919050565b611b0f81611afc565b82525050565b6000602082019050611b2a6000830184611b06565b92915050565b611b3981611afc565b8114611b4457600080fd5b50565b600081359050611b5681611b30565b92915050565b60008060008060808587031215611b7657611b75611a67565b5b6000611b8487828801611aba565b9450506020611b9587828801611aba565b9350506040611ba687828801611b47565b9250506060611bb787828801611b47565b91505092959194509250565b60008115159050919050565b611bd881611bc3565b82525050565b6000602082019050611bf36000830184611bcf565b92915050565b600080600060608486031215611c1257611c11611a67565b5b6000611c2086828701611aba565b9350506020611c3186828701611aba565b9250506040611c4286828701611b47565b9150509250925092565b6000604082019050611c616000830185611b06565b611c6e6020830184611bcf565b9392505050565b611c7e81611a91565b82525050565b6000602082019050611c996000830184611c75565b92915050565b60008060408385031215611cb657611cb5611a67565b5b6000611cc485828601611aba565b9250506020611cd585828601611aba565b9150509250929050565b611ce881611bc3565b8114611cf357600080fd5b50565b600081359050611d0581611cdf565b92915050565b600060208284031215611d2157611d20611a67565b5b6000611d2f84828501611cf6565b91505092915050565b60008060408385031215611d4f57611d4e611a67565b5b6000611d5d85828601611aba565b9250506020611d6e85828601611b47565b9150509250929050565b600080600080600060a08688031215611d9457611d93611a67565b5b6000611da288828901611aba565b9550506020611db388828901611aba565b9450506040611dc488828901611b47565b9350506060611dd588828901611b47565b9250506080611de688828901611cf6565b9150509295509295909350565b600082825260208201905092915050565b7f5061757361626c653a2070617573656400000000000000000000000000000000600082015250565b6000611e3a601083611df3565b9150611e4582611e04565b602082019050919050565b60006020820190508181036000830152611e6981611e2d565b9050919050565b6000604082019050611e856000830185611c75565b611e926020830184611b06565b9392505050565b600081519050611ea881611cdf565b92915050565b600060208284031215611ec457611ec3611a67565b5b6000611ed284828501611e99565b91505092915050565b7f4572726f7220736e617073686f7420696420616c726561647920757365640000600082015250565b6000611f11601e83611df3565b9150611f1c82611edb565b602082019050919050565b60006020820190508181036000830152611f4081611f04565b9050919050565b7f4572726f722073657420736e617073686f742069640000000000000000000000600082015250565b6000611f7d601583611df3565b9150611f8882611f47565b602082019050919050565b60006020820190508181036000830152611fac81611f70565b9050919050565b600081519050611fc281611b30565b92915050565b600060208284031215611fde57611fdd611a67565b5b6000611fec84828501611fb3565b91505092915050565b7f4e487b7100000000000000000000000000000000000000000000000000000000600052601160045260246000fd5b600061202f82611afc565b915061203a83611afc565b925082820390508181111561205257612051611ff5565b5b92915050565b7f4572726f722062616c616e6365206163636f756e740000000000000000000000600082015250565b600061208e601583611df3565b915061209982612058565b602082019050919050565b600060208201905081810360008301526120bd81612081565b9050919050565b60006120cf82611afc565b91506120da83611afc565b92508282026120e881611afc565b915082820484148315176120ff576120fe611ff5565b5b5092915050565b7f4e487b7100000000000000000000000000000000000000000000000000000000600052601260045260246000fd5b600061214082611afc565b915061214b83611afc565b92508261215b5761215a612106565b5b828204905092915050565b7f4572726f7220286d6178292062616c616e636573000000000000000000000000600082015250565b600061219c601483611df3565b91506121a782612166565b602082019050919050565b600060208201905081810360008301526121cb8161218f565b9050919050565b6000815190506121e181611aa3565b92915050565b6000602082840312156121fd576121fc611a67565b5b600061220b848285016121d2565b91505092915050565b600080fd5b600080fd5b6000601f19601f8301169050919050565b7f4e487b7100000000000000000000000000000000000000000000000000000000600052604160045260246000fd5b6122678261221e565b810181811067ffffffffffffffff821117156122865761228561222f565b5b80604052505050565b6000612299611a5d565b90506122a5828261225e565b919050565b600067ffffffffffffffff8211156122c5576122c461222f565b5b6122ce8261221e565b9050602081019050919050565b60005b838110156122f95780820151818401526020810190506122de565b60008484015250505050565b6000612318612313846122aa565b61228f565b90508281526020810184848401111561233457612333612219565b5b61233f8482856122db565b509392505050565b600082601f83011261235c5761235b612214565b5b815161236c848260208601612305565b91505092915050565b60008060006060848603121561238e5761238d611a67565b5b600061239c868287016121d2565b935050602084015167ffffffffffffffff8111156123bd576123bc611a6c565b5b6123c986828701612347565b925050604084015167ffffffffffffffff8111156123ea576123e9611a6c565b5b6123f686828701612347565b9150509250925092565b7f4572726f72207472616e73666572206469766964656e64730000000000000000600082015250565b6000612436601883611df3565b915061244182612400565b602082019050919050565b6000602082019050818103600083015261246581612429565b9050919050565b7f446966666572656e7420737461626c6520636f696e7300000000000000000000600082015250565b60006124a2601683611df3565b91506124ad8261246c565b602082019050919050565b600060208201905081810360008301526124d181612495565b9050919050565b7f4572726f72207265696e76657374000000000000000000000000000000000000600082015250565b600061250e600e83611df3565b9150612519826124d8565b602082019050919050565b6000602082019050818103600083015261253d81612501565b9050919050565b60006040820190506125596000830185611b06565b6125666020830184611c75565b9392505050565b7f4f776e61626c653a2063616c6c6572206973206e6f7420746865206f776e6572600082015250565b60006125a3602083611df3565b91506125ae8261256d565b602082019050919050565b600060208201905081810360008301526125d281612596565b9050919050565b7f4572726f72207472616e736665722066726f6d206469766964656e647320636f60008201527f6e74726163740000000000000000000000000000000000000000000000000000602082015250565b6000612635602683611df3565b9150612640826125d9565b604082019050919050565b6000602082019050818103600083015261266481612628565b9050919050565b600061267682611afc565b915061268183611afc565b925082820190508082111561269957612698611ff5565b5b92915050565b60006060820190506126b46000830186611c75565b6126c16020830185611c75565b6126ce6040830184611b06565b949350505050565b7f4572726f72207472616e736665722066726f6d206f726967696e000000000000600082015250565b600061270c601a83611df3565b9150612717826126d6565b602082019050919050565b6000602082019050818103600083015261273b816126ff565b9050919050565b60006040820190506127576000830185611b06565b6127646020830184611b06565b9392505050565b7f4f776e61626c653a206e6577206f776e657220697320746865207a65726f206160008201527f6464726573730000000000000000000000000000000000000000000000000000602082015250565b60006127c7602683611df3565b91506127d28261276b565b604082019050919050565b600060208201905081810360008301526127f6816127ba565b9050919050565b7f5061757361626c653a206e6f7420706175736564000000000000000000000000600082015250565b6000612833601483611df3565b915061283e826127fd565b602082019050919050565b6000602082019050818103600083015261286281612826565b905091905056fea2646970667358221220eb370ae258f952b7ec81ea7447af748c5dadcb18b31a844e53b0ddecc3c9c00f64736f6c63430008110033",
  "immutableReferences": {},
  "source": "// SPDX-License-Identifier: MIT\npragma solidity ^0.8.17;\n\nimport \"@openzeppelin/contracts/security/Pausable.sol\";\nimport \"@openzeppelin/contracts/access/Ownable.sol\";\nimport \"@openzeppelin/contracts/token/ERC20/IERC20.sol\";\n\nimport \"../interfaces/IDIVIDENDS.sol\";\nimport \"../interfaces/ISELLER.sol\";\nimport \"../interfaces/ITOKENHOLDINGS.sol\";\n\ninterface ERC20CUSTOM {\n    function balanceOfAt(address account, uint256 snapshotId) external view returns(uint256);\n    function totalSupplyAt(uint256 snapshotId) external view returns (uint256);\n}\n\ncontract Dividends is IDIVIDENDS, Pausable, Ownable {\n    //////////////////////////////////////////////////////////////////////////////////////////////////\n    // State\n    ////////////////////////////////////////////////////////////////////////////////////////////////// \n\n    mapping(address => mapping(uint256 => uint256)) private s_amountSnapshots; \n    mapping(address => uint256) private s_totalAmount;\n\n    //////////////////////////////////////////////////////////////////////////////////////////////////\n    // Constructor\n    ////////////////////////////////////////////////////////////////////////////////////////////////// \n\n    constructor(address p_addressManager) {\n        _transferOwnership(p_addressManager);\n    }\n\n    //////////////////////////////////////////////////////////////////////////////////////////////////\n    // Public functions\n    //////////////////////////////////////////////////////////////////////////////////////////////////\n\n    // => View functions\n\n    function amountSnapshots(address p_contractHoldings, uint256 p_idSnapshot) public view override returns(uint256) { \n        return s_amountSnapshots[p_contractHoldings][p_idSnapshot];\n    }\n\n    function totalAmountSnapshots(address p_contractHoldings) public view override returns(uint256) { \n        return s_totalAmount[p_contractHoldings];\n    }\n\n    function amountSnapshotsAccount(address p_contractHoldings, address p_account, uint256 p_idSnapshot) public view override returns(uint256, bool) { \n        uint256 balanceAccount = ERC20CUSTOM(p_contractHoldings).balanceOfAt(p_account, p_idSnapshot); \n        uint256 totalSupply = ERC20CUSTOM(p_contractHoldings).totalSupplyAt(p_idSnapshot) - ITOKENHOLDINGS(p_contractHoldings).amountBuyWithFiat();\n        \n        if (balanceAccount == 0) { return (0, true); }\n\n        uint256 amountDividendsAccount = ((balanceAccount * 1 ether) / totalSupply) * s_amountSnapshots[p_contractHoldings][p_idSnapshot];\n        amountDividendsAccount = amountDividendsAccount / 1 ether;\n\n        return (amountDividendsAccount, ITOKENHOLDINGS(p_contractHoldings).snapshotUsed(p_account, p_idSnapshot));\n    }\n\n    // => Set functions\n\n    function setPause(bool p_pause) public onlyOwner override { \n        if (p_pause) {\n            _pause();\n        } else {\n            _unpause();\n        }\n    } \n\n    function addDividends(address p_origin, address p_contractHoldings, uint256 p_amount, uint256 p_year, bool p_withholding) public onlyOwner override {\n        uint256 idSnapshot = ITOKENHOLDINGS(p_contractHoldings).snapshot(p_year, p_withholding);\n        s_amountSnapshots[p_contractHoldings][idSnapshot] = p_amount;\n        s_totalAmount[p_contractHoldings] += p_amount;\n        \n\n        (address addressStableCoin, , ) = ISELLER(ITOKENHOLDINGS(p_contractHoldings).seller()).stableCoin(); \n        require(\n            IERC20(addressStableCoin).transferFrom(p_origin, address(this), p_amount),\n            \"Error transfer from origin\"\n        );\n\n        emit AddDividends(p_contractHoldings, p_amount, s_totalAmount[p_contractHoldings]);\n    }\n\n    function claimDividends( \n        address p_contractHoldings, \n        address p_contractSeller, \n        uint256 p_amountReinvest,\n        uint256 p_idSnapshot\n    ) public whenNotPaused override {\n        require(!ITOKENHOLDINGS(p_contractHoldings).snapshotUsed(msg.sender, p_idSnapshot), \"Error snapshot id already used\");\n        require(ITOKENHOLDINGS(p_contractHoldings).snapshotUse(msg.sender, p_idSnapshot), \"Error set snapshot id\");\n\n        uint256 balanceAccount = ERC20CUSTOM(p_contractHoldings).balanceOfAt(msg.sender, p_idSnapshot);\n        uint256 totalSupply = ERC20CUSTOM(p_contractHoldings).totalSupplyAt(p_idSnapshot) - ITOKENHOLDINGS(p_contractHoldings).amountBuyWithFiat(); \n\n        require(balanceAccount > 0, \"Error balance account\");\n        // (walletBalance / totalSupply) * totalEarnings\n        uint256 amountDividendsAccount = ((balanceAccount * 1 ether) / totalSupply) * s_amountSnapshots[p_contractHoldings][p_idSnapshot];\n        amountDividendsAccount = amountDividendsAccount / 1 ether;\n\n        require(p_amountReinvest <= amountDividendsAccount, \"Error (max) balances\");\n\n        (address addressStableCoin, , ) = ISELLER(ITOKENHOLDINGS(p_contractHoldings).seller()).stableCoin();\n\n        if (p_amountReinvest < amountDividendsAccount) {\n            uint256 diff = amountDividendsAccount - p_amountReinvest;\n            require(IERC20(addressStableCoin).transfer(msg.sender, diff), \"Error transfer dividends\");\n            emit ClaimDividends(msg.sender, diff); \n        }\n\n        if (p_amountReinvest > 0) {\n            (address addressStableCoinReinvest, , ) = ISELLER(p_contractSeller).stableCoin();\n            require(addressStableCoin == addressStableCoinReinvest, \"Different stable coins\");\n\n            require(IERC20(addressStableCoin).transfer(ISELLER(p_contractSeller).beneficiary(), p_amountReinvest), \"Error reinvest\");\n\n            require(\n                ISELLER(p_contractSeller).reinvest(p_amountReinvest, msg.sender), \n                \"Error reinvest\"\n            );\n\n            emit Reinvest(msg.sender, p_contractSeller, p_amountReinvest); \n        }\n    }\n\n    function widhdrawFunds(address p_contractHoldings, address p_to) public onlyOwner override {\n        uint256 amount = s_totalAmount[p_contractHoldings];\n        delete s_totalAmount[p_contractHoldings];\n\n        (address addressStableCoin, , ) = ISELLER(ITOKENHOLDINGS(p_contractHoldings).seller()).stableCoin(); \n        require(\n            IERC20(addressStableCoin).transfer(p_to, amount),\n            \"Error transfer from dividends contract\"\n        );\n\n        emit widhdrawFundsByCompany(p_contractHoldings, p_to);\n    }\n}",
  "sourcePath": "/Users/albertolasa/Desktop/Clientes/AURINEXT/domoblockCodes/DOMOBLOCK/contracts/Dividends.sol",
  "compiler": {
    "name": "solc",
    "version": "0.8.17+commit.8df45f5f.Emscripten.clang"
  },
  "schemaVersion": "3.4.8",
  "updatedAt": "2023-02-13T18:09:25.850Z",
  "networkType": "ethereum",
  "devdoc": {
    "kind": "dev",
    "methods": {
      "owner()": {
        "details": "Returns the address of the current owner."
      },
      "paused()": {
        "details": "Returns true if the contract is paused, and false otherwise."
      },
      "renounceOwnership()": {
        "details": "Leaves the contract without owner. It will not be possible to call `onlyOwner` functions anymore. Can only be called by the current owner. NOTE: Renouncing ownership will leave the contract without an owner, thereby removing any functionality that is only available to the owner."
      },
      "transferOwnership(address)": {
        "details": "Transfers ownership of the contract to a new account (`newOwner`). Can only be called by the current owner."
      }
    },
    "version": 1
  },
  "userdoc": {
    "kind": "user",
    "methods": {},
    "version": 1
  }
}