{
  "contractName": "Manager",
  "abi": [
    {
      "inputs": [
        {
          "internalType": "address",
          "name": "p_whiteList",
          "type": "address"
        },
        {
          "internalType": "address",
          "name": "p_nftsERC721",
          "type": "address"
        },
        {
          "internalType": "address",
          "name": "p_factoryERC20",
          "type": "address"
        },
        {
          "internalType": "address",
          "name": "p_factorySeller",
          "type": "address"
        },
        {
          "internalType": "address",
          "name": "p_contratEventsAggregator",
          "type": "address"
        }
      ],
      "stateMutability": "nonpayable",
      "type": "constructor"
    },
    {
      "anonymous": false,
      "inputs": [
        {
          "indexed": true,
          "internalType": "bytes32",
          "name": "role",
          "type": "bytes32"
        },
        {
          "indexed": true,
          "internalType": "bytes32",
          "name": "previousAdminRole",
          "type": "bytes32"
        },
        {
          "indexed": true,
          "internalType": "bytes32",
          "name": "newAdminRole",
          "type": "bytes32"
        }
      ],
      "name": "RoleAdminChanged",
      "type": "event"
    },
    {
      "anonymous": false,
      "inputs": [
        {
          "indexed": true,
          "internalType": "bytes32",
          "name": "role",
          "type": "bytes32"
        },
        {
          "indexed": true,
          "internalType": "address",
          "name": "account",
          "type": "address"
        },
        {
          "indexed": true,
          "internalType": "address",
          "name": "sender",
          "type": "address"
        }
      ],
      "name": "RoleGranted",
      "type": "event"
    },
    {
      "anonymous": false,
      "inputs": [
        {
          "indexed": true,
          "internalType": "bytes32",
          "name": "role",
          "type": "bytes32"
        },
        {
          "indexed": true,
          "internalType": "address",
          "name": "account",
          "type": "address"
        },
        {
          "indexed": true,
          "internalType": "address",
          "name": "sender",
          "type": "address"
        }
      ],
      "name": "RoleRevoked",
      "type": "event"
    },
    {
      "anonymous": false,
      "inputs": [
        {
          "indexed": true,
          "internalType": "string",
          "name": "uri",
          "type": "string"
        },
        {
          "indexed": false,
          "internalType": "address",
          "name": "e_seller",
          "type": "address"
        },
        {
          "indexed": false,
          "internalType": "address",
          "name": "e_holdings",
          "type": "address"
        },
        {
          "indexed": false,
          "internalType": "address",
          "name": "e_dividends",
          "type": "address"
        },
        {
          "indexed": false,
          "internalType": "uint256",
          "name": "e_NftID",
          "type": "uint256"
        }
      ],
      "name": "newMint",
      "type": "event"
    },
    {
      "inputs": [],
      "name": "ADMIN_ROLE",
      "outputs": [
        {
          "internalType": "bytes32",
          "name": "",
          "type": "bytes32"
        }
      ],
      "stateMutability": "view",
      "type": "function",
      "constant": true
    },
    {
      "inputs": [],
      "name": "DEFAULT_ADMIN_ROLE",
      "outputs": [
        {
          "internalType": "bytes32",
          "name": "",
          "type": "bytes32"
        }
      ],
      "stateMutability": "view",
      "type": "function",
      "constant": true
    },
    {
      "inputs": [],
      "name": "EDITOR_ROLE",
      "outputs": [
        {
          "internalType": "bytes32",
          "name": "",
          "type": "bytes32"
        }
      ],
      "stateMutability": "view",
      "type": "function",
      "constant": true
    },
    {
      "inputs": [],
      "name": "MANAGER_ROLE",
      "outputs": [
        {
          "internalType": "bytes32",
          "name": "",
          "type": "bytes32"
        }
      ],
      "stateMutability": "view",
      "type": "function",
      "constant": true
    },
    {
      "inputs": [
        {
          "internalType": "bytes32",
          "name": "role",
          "type": "bytes32"
        }
      ],
      "name": "getRoleAdmin",
      "outputs": [
        {
          "internalType": "bytes32",
          "name": "",
          "type": "bytes32"
        }
      ],
      "stateMutability": "view",
      "type": "function",
      "constant": true
    },
    {
      "inputs": [
        {
          "internalType": "bytes32",
          "name": "role",
          "type": "bytes32"
        },
        {
          "internalType": "address",
          "name": "account",
          "type": "address"
        }
      ],
      "name": "grantRole",
      "outputs": [],
      "stateMutability": "nonpayable",
      "type": "function"
    },
    {
      "inputs": [
        {
          "internalType": "bytes32",
          "name": "role",
          "type": "bytes32"
        },
        {
          "internalType": "address",
          "name": "account",
          "type": "address"
        }
      ],
      "name": "hasRole",
      "outputs": [
        {
          "internalType": "bool",
          "name": "",
          "type": "bool"
        }
      ],
      "stateMutability": "view",
      "type": "function",
      "constant": true
    },
    {
      "inputs": [
        {
          "internalType": "bytes32",
          "name": "role",
          "type": "bytes32"
        },
        {
          "internalType": "address",
          "name": "account",
          "type": "address"
        }
      ],
      "name": "renounceRole",
      "outputs": [],
      "stateMutability": "nonpayable",
      "type": "function"
    },
    {
      "inputs": [
        {
          "internalType": "bytes32",
          "name": "role",
          "type": "bytes32"
        },
        {
          "internalType": "address",
          "name": "account",
          "type": "address"
        }
      ],
      "name": "revokeRole",
      "outputs": [],
      "stateMutability": "nonpayable",
      "type": "function"
    },
    {
      "inputs": [
        {
          "internalType": "bytes4",
          "name": "interfaceId",
          "type": "bytes4"
        }
      ],
      "name": "supportsInterface",
      "outputs": [
        {
          "internalType": "bool",
          "name": "",
          "type": "bool"
        }
      ],
      "stateMutability": "view",
      "type": "function",
      "constant": true
    },
    {
      "inputs": [],
      "name": "whiteList",
      "outputs": [
        {
          "internalType": "address",
          "name": "",
          "type": "address"
        }
      ],
      "stateMutability": "view",
      "type": "function",
      "constant": true
    },
    {
      "inputs": [],
      "name": "nftsERC721",
      "outputs": [
        {
          "internalType": "address",
          "name": "",
          "type": "address"
        }
      ],
      "stateMutability": "view",
      "type": "function",
      "constant": true
    },
    {
      "inputs": [],
      "name": "factoryERC20",
      "outputs": [
        {
          "internalType": "address",
          "name": "",
          "type": "address"
        }
      ],
      "stateMutability": "view",
      "type": "function",
      "constant": true
    },
    {
      "inputs": [],
      "name": "factorySeller",
      "outputs": [
        {
          "internalType": "address",
          "name": "",
          "type": "address"
        }
      ],
      "stateMutability": "view",
      "type": "function",
      "constant": true
    },
    {
      "inputs": [
        {
          "internalType": "uint256",
          "name": "p_nftID",
          "type": "uint256"
        }
      ],
      "name": "addressHoldings",
      "outputs": [
        {
          "internalType": "address",
          "name": "",
          "type": "address"
        }
      ],
      "stateMutability": "view",
      "type": "function",
      "constant": true
    },
    {
      "inputs": [
        {
          "internalType": "address",
          "name": "p_addressHoldings",
          "type": "address"
        }
      ],
      "name": "addressSeller",
      "outputs": [
        {
          "internalType": "address",
          "name": "",
          "type": "address"
        }
      ],
      "stateMutability": "view",
      "type": "function",
      "constant": true
    },
    {
      "inputs": [],
      "name": "addressDividends",
      "outputs": [
        {
          "internalType": "address",
          "name": "",
          "type": "address"
        }
      ],
      "stateMutability": "view",
      "type": "function",
      "constant": true
    },
    {
      "inputs": [],
      "name": "company",
      "outputs": [
        {
          "internalType": "address",
          "name": "",
          "type": "address"
        }
      ],
      "stateMutability": "view",
      "type": "function",
      "constant": true
    },
    {
      "inputs": [
        {
          "internalType": "bytes32",
          "name": "p_role",
          "type": "bytes32"
        },
        {
          "internalType": "address",
          "name": "p_address",
          "type": "address"
        }
      ],
      "name": "revokeRol",
      "outputs": [],
      "stateMutability": "nonpayable",
      "type": "function"
    },
    {
      "inputs": [
        {
          "internalType": "bytes32",
          "name": "p_role",
          "type": "bytes32"
        },
        {
          "internalType": "address",
          "name": "p_address",
          "type": "address"
        }
      ],
      "name": "addRol",
      "outputs": [],
      "stateMutability": "nonpayable",
      "type": "function"
    },
    {
      "inputs": [
        {
          "internalType": "address",
          "name": "p_company",
          "type": "address"
        }
      ],
      "name": "setCompany",
      "outputs": [],
      "stateMutability": "nonpayable",
      "type": "function"
    },
    {
      "inputs": [
        {
          "internalType": "address",
          "name": "p_whiteList",
          "type": "address"
        }
      ],
      "name": "setWhiteList",
      "outputs": [],
      "stateMutability": "nonpayable",
      "type": "function"
    },
    {
      "inputs": [
        {
          "internalType": "address",
          "name": "p_nftsERC721",
          "type": "address"
        }
      ],
      "name": "setNftsERC721",
      "outputs": [],
      "stateMutability": "nonpayable",
      "type": "function"
    },
    {
      "inputs": [
        {
          "internalType": "address",
          "name": "p_factoryERC20",
          "type": "address"
        }
      ],
      "name": "setFactoryERC20",
      "outputs": [],
      "stateMutability": "nonpayable",
      "type": "function"
    },
    {
      "inputs": [
        {
          "internalType": "address",
          "name": "p_factorySeller",
          "type": "address"
        }
      ],
      "name": "setFactorySeller",
      "outputs": [],
      "stateMutability": "nonpayable",
      "type": "function"
    },
    {
      "inputs": [
        {
          "internalType": "uint256",
          "name": "p_amountToSell",
          "type": "uint256"
        },
        {
          "internalType": "string",
          "name": "p_uri",
          "type": "string"
        },
        {
          "internalType": "address",
          "name": "p_stableCoinAddress",
          "type": "address"
        },
        {
          "internalType": "address",
          "name": "p_beneficiaryAddress",
          "type": "address"
        },
        {
          "internalType": "address",
          "name": "p_aggregatorStableCoinDollar",
          "type": "address"
        },
        {
          "internalType": "string",
          "name": "p_name",
          "type": "string"
        },
        {
          "internalType": "string",
          "name": "p_symbol",
          "type": "string"
        }
      ],
      "name": "mintNft",
      "outputs": [],
      "stateMutability": "nonpayable",
      "type": "function"
    },
    {
      "inputs": [
        {
          "internalType": "uint256",
          "name": "p_priceEUROS",
          "type": "uint256"
        },
        {
          "internalType": "uint256",
          "name": "p_maxTimeHours",
          "type": "uint256"
        },
        {
          "internalType": "uint256",
          "name": "p_minTokensBuy",
          "type": "uint256"
        },
        {
          "internalType": "address",
          "name": "p_addressContractSeller",
          "type": "address"
        }
      ],
      "name": "newSaleSeller",
      "outputs": [],
      "stateMutability": "nonpayable",
      "type": "function"
    },
    {
      "inputs": [
        {
          "internalType": "uint256",
          "name": "p_amountToken",
          "type": "uint256"
        },
        {
          "internalType": "address",
          "name": "p_buyer",
          "type": "address"
        },
        {
          "internalType": "address",
          "name": "p_addressContractSeller",
          "type": "address"
        }
      ],
      "name": "buyThroughCompany",
      "outputs": [],
      "stateMutability": "nonpayable",
      "type": "function"
    },
    {
      "inputs": [
        {
          "internalType": "uint256",
          "name": "p_amountToken",
          "type": "uint256"
        },
        {
          "internalType": "address",
          "name": "p_buyer",
          "type": "address"
        },
        {
          "internalType": "address",
          "name": "p_addressContractSeller",
          "type": "address"
        }
      ],
      "name": "buyWithoutPay",
      "outputs": [],
      "stateMutability": "nonpayable",
      "type": "function"
    },
    {
      "inputs": [
        {
          "internalType": "uint256",
          "name": "p_priceEUROS",
          "type": "uint256"
        },
        {
          "internalType": "address",
          "name": "p_addressContractSeller",
          "type": "address"
        }
      ],
      "name": "setPriceSeller",
      "outputs": [],
      "stateMutability": "nonpayable",
      "type": "function"
    },
    {
      "inputs": [
        {
          "internalType": "uint256",
          "name": "p_maxTimeHours",
          "type": "uint256"
        },
        {
          "internalType": "address",
          "name": "p_addressContractSeller",
          "type": "address"
        }
      ],
      "name": "setMaxTime",
      "outputs": [],
      "stateMutability": "nonpayable",
      "type": "function"
    },
    {
      "inputs": [
        {
          "internalType": "uint256",
          "name": "p_minTokensBuy",
          "type": "uint256"
        },
        {
          "internalType": "address",
          "name": "p_addressContractSeller",
          "type": "address"
        }
      ],
      "name": "setMinTokensBuy",
      "outputs": [],
      "stateMutability": "nonpayable",
      "type": "function"
    },
    {
      "inputs": [
        {
          "internalType": "address",
          "name": "p_addressOrigin",
          "type": "address"
        },
        {
          "internalType": "address",
          "name": "p_addressContractHoldings",
          "type": "address"
        },
        {
          "internalType": "uint256",
          "name": "p_amountIncrementDividends",
          "type": "uint256"
        },
        {
          "internalType": "uint256",
          "name": "p_year",
          "type": "uint256"
        },
        {
          "internalType": "bool",
          "name": "p_withholding",
          "type": "bool"
        }
      ],
      "name": "addDividends",
      "outputs": [],
      "stateMutability": "nonpayable",
      "type": "function"
    },
    {
      "inputs": [
        {
          "internalType": "address",
          "name": "p_seller",
          "type": "address"
        },
        {
          "internalType": "address",
          "name": "p_origin",
          "type": "address"
        }
      ],
      "name": "activeRevertPayments",
      "outputs": [],
      "stateMutability": "nonpayable",
      "type": "function"
    },
    {
      "inputs": [
        {
          "internalType": "address",
          "name": "p_address",
          "type": "address"
        },
        {
          "internalType": "enum IWHITELIST.Status",
          "name": "p_status",
          "type": "uint8"
        }
      ],
      "name": "setStatusWhiteList",
      "outputs": [],
      "stateMutability": "nonpayable",
      "type": "function"
    },
    {
      "inputs": [
        {
          "internalType": "address",
          "name": "p_address",
          "type": "address"
        },
        {
          "internalType": "address",
          "name": "p_from",
          "type": "address"
        },
        {
          "internalType": "address",
          "name": "p_to",
          "type": "address"
        }
      ],
      "name": "forcedTransferStocks",
      "outputs": [],
      "stateMutability": "nonpayable",
      "type": "function"
    },
    {
      "inputs": [
        {
          "internalType": "address",
          "name": "p_dividends",
          "type": "address"
        }
      ],
      "name": "setAddressContractDividends",
      "outputs": [],
      "stateMutability": "nonpayable",
      "type": "function"
    },
    {
      "inputs": [
        {
          "internalType": "address",
          "name": "p_address",
          "type": "address"
        },
        {
          "internalType": "address",
          "name": "p_newOwner",
          "type": "address"
        }
      ],
      "name": "setOwnable",
      "outputs": [],
      "stateMutability": "nonpayable",
      "type": "function"
    },
    {
      "inputs": [
        {
          "internalType": "address",
          "name": "p_newSigner",
          "type": "address"
        }
      ],
      "name": "setSignerWhiteList",
      "outputs": [],
      "stateMutability": "nonpayable",
      "type": "function"
    },
    {
      "inputs": [
        {
          "internalType": "address",
          "name": "p_address",
          "type": "address"
        },
        {
          "internalType": "bool",
          "name": "p_pause",
          "type": "bool"
        }
      ],
      "name": "setPause",
      "outputs": [],
      "stateMutability": "nonpayable",
      "type": "function"
    }
  ],
  "bytecode": "0x60806040523480156200001157600080fd5b506040516200410038038062004100833981810160405281019062000037919062000440565b6200004c6000801b336200027360201b60201c565b6200007e7fa49807205ce4d355092ef5a8a18f56e8913cf4a201fbe287825b095693c21775336200027360201b60201c565b620000b07f241ecf16d79d0f8dbfb92cbc07fe17840425976cf0667f022fe9877caa831b08336200027360201b60201c565b620000e27f21d1167972f621f75904fb065136bc8b53c7ba1c60ccd3a7758fbee465851e9c336200027360201b60201c565b33600160006101000a81548173ffffffffffffffffffffffffffffffffffffffff021916908373ffffffffffffffffffffffffffffffffffffffff16021790555084600260006101000a81548173ffffffffffffffffffffffffffffffffffffffff021916908373ffffffffffffffffffffffffffffffffffffffff16021790555083600360006101000a81548173ffffffffffffffffffffffffffffffffffffffff021916908373ffffffffffffffffffffffffffffffffffffffff16021790555082600460006101000a81548173ffffffffffffffffffffffffffffffffffffffff021916908373ffffffffffffffffffffffffffffffffffffffff16021790555081600560006101000a81548173ffffffffffffffffffffffffffffffffffffffff021916908373ffffffffffffffffffffffffffffffffffffffff16021790555080600760006101000a81548173ffffffffffffffffffffffffffffffffffffffff021916908373ffffffffffffffffffffffffffffffffffffffff1602179055505050505050620004c8565b6200028582826200036460201b60201c565b6200036057600160008084815260200190815260200160002060000160008373ffffffffffffffffffffffffffffffffffffffff1673ffffffffffffffffffffffffffffffffffffffff16815260200190815260200160002060006101000a81548160ff02191690831515021790555062000305620003ce60201b60201c565b73ffffffffffffffffffffffffffffffffffffffff168173ffffffffffffffffffffffffffffffffffffffff16837f2f8788117e7eff1d82e926ec794901d17c78024a50270940304540a733656f0d60405160405180910390a45b5050565b600080600084815260200190815260200160002060000160008373ffffffffffffffffffffffffffffffffffffffff1673ffffffffffffffffffffffffffffffffffffffff16815260200190815260200160002060009054906101000a900460ff16905092915050565b600033905090565b600080fd5b600073ffffffffffffffffffffffffffffffffffffffff82169050919050565b60006200040882620003db565b9050919050565b6200041a81620003fb565b81146200042657600080fd5b50565b6000815190506200043a816200040f565b92915050565b600080600080600060a086880312156200045f576200045e620003d6565b5b60006200046f8882890162000429565b9550506020620004828882890162000429565b9450506040620004958882890162000429565b9350506060620004a88882890162000429565b9250506080620004bb8882890162000429565b9150509295509295909350565b613c2880620004d86000396000f3fe608060405234801561001057600080fd5b50600436106102485760003560e01c80637e93f1121161013b578063c22dc722116100b8578063d68df3ee1161007c578063d68df3ee14610697578063ec309741146106b3578063ec87621c146106cf578063ecb8b941146106ed578063fca2e4cc1461070957610248565b8063c22dc7221461060b578063c807b43514610627578063d1360a4e14610643578063d349c9651461065f578063d547741f1461067b57610248565b8063a75005bd116100ff578063a75005bd1461057b578063a853211a14610597578063a8db2445146105b5578063b4f7f25f146105d1578063bdf734c5146105ef57610248565b80637e93f112146104d7578063911c2514146104f357806391d1485414610511578063a1977ec014610541578063a217fddf1461055d57610248565b806333c51a68116101c957806357735b6a1161018d57806357735b6a146104455780636904c94d146104615780636ef267cc1461047f57806375b238fc1461049b5780637e8e70bf146104b957610248565b806333c51a68146103a35780633544a864146103d357806336568abe146103f157806339e899ee1461040d5780635241be6b1461042957610248565b8063124c2ba611610210578063124c2ba6146103035780631cead90b1461031f578063248a9ca31461033b5780632f2ff15d1461036b5780632fce3d4f1461038757610248565b806301ffc9a71461024d578063044f0e2f1461027d57806304d3a180146102ad578063050a686e146102c95780630ff482d6146102e7575b600080fd5b61026760048036038101906102629190612af5565b610725565b6040516102749190612b3d565b60405180910390f35b61029760048036038101906102929190612bb6565b61079f565b6040516102a49190612bf2565b60405180910390f35b6102c760048036038101906102c29190612c43565b610808565b005b6102d1610914565b6040516102de9190612bf2565b60405180910390f35b61030160048036038101906102fc9190612c43565b61093e565b005b61031d60048036038101906103189190612bb6565b610a4a565b005b61033960048036038101906103349190612c96565b610b84565b005b61035560048036038101906103509190612d0c565b610c5c565b6040516103629190612d48565b60405180910390f35b61038560048036038101906103809190612d63565b610c7b565b005b6103a1600480360381019061039c9190612da3565b610ca4565b005b6103bd60048036038101906103b89190612de3565b610dad565b6040516103ca9190612bf2565b60405180910390f35b6103db610dea565b6040516103e89190612bf2565b60405180910390f35b61040b60048036038101906104069190612d63565b610e14565b005b61042760048036038101906104229190612bb6565b610e97565b005b610443600480360381019061043e9190612c96565b610f44565b005b61045f600480360381019061045a9190612e10565b61101c565b005b6104696111f0565b6040516104769190612bf2565b60405180910390f35b61049960048036038101906104949190612bb6565b61121a565b005b6104a36112c7565b6040516104b09190612d48565b60405180910390f35b6104c16112eb565b6040516104ce9190612bf2565b60405180910390f35b6104f160048036038101906104ec9190612da3565b611315565b005b6104fb61141e565b6040516105089190612bf2565b60405180910390f35b61052b60048036038101906105269190612d63565b611448565b6040516105389190612b3d565b60405180910390f35b61055b60048036038101906105569190612bb6565b6114b2565b005b6105656115ab565b6040516105729190612d48565b60405180910390f35b61059560048036038101906105909190612bb6565b6115b2565b005b61059f61165f565b6040516105ac9190612d48565b60405180910390f35b6105cf60048036038101906105ca9190612bb6565b611683565b005b6105d9611730565b6040516105e69190612bf2565b60405180910390f35b61060960048036038101906106049190612bb6565b61175a565b005b61062560048036038101906106209190612e8f565b611807565b005b610641600480360381019061063c9190612d63565b611910565b005b61065d60048036038101906106589190612da3565b611987565b005b61067960048036038101906106749190613015565b611a90565b005b61069560048036038101906106909190612d63565b612128565b005b6106b160048036038101906106ac919061310b565b612151565b005b6106cd60048036038101906106c89190612d63565b612256565b005b6106d76122cd565b6040516106e49190612d48565b60405180910390f35b61070760048036038101906107029190613186565b6122f1565b005b610723600480360381019061071e9190613212565b6123cf565b005b60007f7965db0b000000000000000000000000000000000000000000000000000000007bffffffffffffffffffffffffffffffffffffffffffffffffffffffff1916827bffffffffffffffffffffffffffffffffffffffffffffffffffffffff1916148061079857506107978261257d565b5b9050919050565b6000600960008373ffffffffffffffffffffffffffffffffffffffff1673ffffffffffffffffffffffffffffffffffffffff16815260200190815260200160002060009054906101000a900473ffffffffffffffffffffffffffffffffffffffff169050919050565b6108327fa49807205ce4d355092ef5a8a18f56e8913cf4a201fbe287825b095693c2177533611448565b8061086357506108627f241ecf16d79d0f8dbfb92cbc07fe17840425976cf0667f022fe9877caa831b0833611448565b5b6108a2576040517f08c379a0000000000000000000000000000000000000000000000000000000008152600401610899906132af565b60405180910390fd5b8073ffffffffffffffffffffffffffffffffffffffff1663ddc1d3db84846040518363ffffffff1660e01b81526004016108dd9291906132de565b600060405180830381600087803b1580156108f757600080fd5b505af115801561090b573d6000803e3d6000fd5b50505050505050565b6000600360009054906101000a900473ffffffffffffffffffffffffffffffffffffffff16905090565b6109687fa49807205ce4d355092ef5a8a18f56e8913cf4a201fbe287825b095693c2177533611448565b8061099957506109987f241ecf16d79d0f8dbfb92cbc07fe17840425976cf0667f022fe9877caa831b0833611448565b5b6109d8576040517f08c379a00000000000000000000000000000000000000000000000000000000081526004016109cf906132af565b60405180910390fd5b8073ffffffffffffffffffffffffffffffffffffffff16636bde359384846040518363ffffffff1660e01b8152600401610a139291906132de565b600060405180830381600087803b158015610a2d57600080fd5b505af1158015610a41573d6000803e3d6000fd5b50505050505050565b610a747fa49807205ce4d355092ef5a8a18f56e8913cf4a201fbe287825b095693c2177533611448565b610ab3576040517f08c379a0000000000000000000000000000000000000000000000000000000008152600401610aaa906132af565b60405180910390fd5b80600660006101000a81548173ffffffffffffffffffffffffffffffffffffffff021916908373ffffffffffffffffffffffffffffffffffffffff160217905550600460009054906101000a900473ffffffffffffffffffffffffffffffffffffffff1673ffffffffffffffffffffffffffffffffffffffff16639e9188ea826040518263ffffffff1660e01b8152600401610b4f9190612bf2565b600060405180830381600087803b158015610b6957600080fd5b505af1158015610b7d573d6000803e3d6000fd5b5050505050565b610bae7fa49807205ce4d355092ef5a8a18f56e8913cf4a201fbe287825b095693c2177533611448565b610bed576040517f08c379a0000000000000000000000000000000000000000000000000000000008152600401610be4906132af565b60405180910390fd5b8173ffffffffffffffffffffffffffffffffffffffff16637b477898826040518263ffffffff1660e01b8152600401610c269190612bf2565b600060405180830381600087803b158015610c4057600080fd5b505af1158015610c54573d6000803e3d6000fd5b505050505050565b6000806000838152602001908152602001600020600101549050919050565b610c8482610c5c565b610c9581610c906125e7565b6125ef565b610c9f838361268c565b505050565b610cce7fa49807205ce4d355092ef5a8a18f56e8913cf4a201fbe287825b095693c2177533611448565b80610cff5750610cfe7f241ecf16d79d0f8dbfb92cbc07fe17840425976cf0667f022fe9877caa831b0833611448565b5b610d3e576040517f08c379a0000000000000000000000000000000000000000000000000000000008152600401610d35906132af565b60405180910390fd5b8073ffffffffffffffffffffffffffffffffffffffff166391b7f5ed836040518263ffffffff1660e01b8152600401610d779190613307565b600060405180830381600087803b158015610d9157600080fd5b505af1158015610da5573d6000803e3d6000fd5b505050505050565b60006008600083815260200190815260200160002060009054906101000a900473ffffffffffffffffffffffffffffffffffffffff169050919050565b6000600260009054906101000a900473ffffffffffffffffffffffffffffffffffffffff16905090565b610e1c6125e7565b73ffffffffffffffffffffffffffffffffffffffff168173ffffffffffffffffffffffffffffffffffffffff1614610e89576040517f08c379a0000000000000000000000000000000000000000000000000000000008152600401610e8090613394565b60405180910390fd5b610e93828261276c565b5050565b610ec17fa49807205ce4d355092ef5a8a18f56e8913cf4a201fbe287825b095693c2177533611448565b610f00576040517f08c379a0000000000000000000000000000000000000000000000000000000008152600401610ef7906132af565b60405180910390fd5b80600260006101000a81548173ffffffffffffffffffffffffffffffffffffffff021916908373ffffffffffffffffffffffffffffffffffffffff16021790555050565b610f6e7fa49807205ce4d355092ef5a8a18f56e8913cf4a201fbe287825b095693c2177533611448565b610fad576040517f08c379a0000000000000000000000000000000000000000000000000000000008152600401610fa4906132af565b60405180910390fd5b8173ffffffffffffffffffffffffffffffffffffffff16634fb2e45d826040518263ffffffff1660e01b8152600401610fe69190612bf2565b600060405180830381600087803b15801561100057600080fd5b505af1158015611014573d6000803e3d6000fd5b505050505050565b6110467fa49807205ce4d355092ef5a8a18f56e8913cf4a201fbe287825b095693c2177533611448565b611085576040517f08c379a000000000000000000000000000000000000000000000000000000000815260040161107c906132af565b60405180910390fd5b600260009054906101000a900473ffffffffffffffffffffffffffffffffffffffff1673ffffffffffffffffffffffffffffffffffffffff1663278e07ce8260016040518363ffffffff1660e01b81526004016110e392919061342b565b6020604051808303816000875af1158015611102573d6000803e3d6000fd5b505050506040513d601f19601f820116820180604052508101906111269190613469565b80156111ac57508273ffffffffffffffffffffffffffffffffffffffff16639a268df683836040518363ffffffff1660e01b8152600401611168929190613496565b6020604051808303816000875af1158015611187573d6000803e3d6000fd5b505050506040513d601f19601f820116820180604052508101906111ab9190613469565b5b6111eb576040517f08c379a00000000000000000000000000000000000000000000000000000000081526004016111e29061350b565b60405180910390fd5b505050565b6000600160009054906101000a900473ffffffffffffffffffffffffffffffffffffffff16905090565b6112447fa49807205ce4d355092ef5a8a18f56e8913cf4a201fbe287825b095693c2177533611448565b611283576040517f08c379a000000000000000000000000000000000000000000000000000000000815260040161127a906132af565b60405180910390fd5b80600460006101000a81548173ffffffffffffffffffffffffffffffffffffffff021916908373ffffffffffffffffffffffffffffffffffffffff16021790555050565b7fa49807205ce4d355092ef5a8a18f56e8913cf4a201fbe287825b095693c2177581565b6000600460009054906101000a900473ffffffffffffffffffffffffffffffffffffffff16905090565b61133f7fa49807205ce4d355092ef5a8a18f56e8913cf4a201fbe287825b095693c2177533611448565b80611370575061136f7f241ecf16d79d0f8dbfb92cbc07fe17840425976cf0667f022fe9877caa831b0833611448565b5b6113af576040517f08c379a00000000000000000000000000000000000000000000000000000000081526004016113a6906132af565b60405180910390fd5b8073ffffffffffffffffffffffffffffffffffffffff1663404a0115836040518263ffffffff1660e01b81526004016113e89190613307565b600060405180830381600087803b15801561140257600080fd5b505af1158015611416573d6000803e3d6000fd5b505050505050565b6000600560009054906101000a900473ffffffffffffffffffffffffffffffffffffffff16905090565b600080600084815260200190815260200160002060000160008373ffffffffffffffffffffffffffffffffffffffff1673ffffffffffffffffffffffffffffffffffffffff16815260200190815260200160002060009054906101000a900460ff16905092915050565b6114dc7fa49807205ce4d355092ef5a8a18f56e8913cf4a201fbe287825b095693c2177533611448565b61151b576040517f08c379a0000000000000000000000000000000000000000000000000000000008152600401611512906132af565b60405180910390fd5b600260009054906101000a900473ffffffffffffffffffffffffffffffffffffffff1673ffffffffffffffffffffffffffffffffffffffff16633660a084826040518263ffffffff1660e01b81526004016115769190612bf2565b600060405180830381600087803b15801561159057600080fd5b505af11580156115a4573d6000803e3d6000fd5b5050505050565b6000801b81565b6115dc7fa49807205ce4d355092ef5a8a18f56e8913cf4a201fbe287825b095693c2177533611448565b61161b576040517f08c379a0000000000000000000000000000000000000000000000000000000008152600401611612906132af565b60405180910390fd5b80600360006101000a81548173ffffffffffffffffffffffffffffffffffffffff021916908373ffffffffffffffffffffffffffffffffffffffff16021790555050565b7f21d1167972f621f75904fb065136bc8b53c7ba1c60ccd3a7758fbee465851e9c81565b6116ad7fa49807205ce4d355092ef5a8a18f56e8913cf4a201fbe287825b095693c2177533611448565b6116ec576040517f08c379a00000000000000000000000000000000000000000000000000000000081526004016116e3906132af565b60405180910390fd5b80600160006101000a81548173ffffffffffffffffffffffffffffffffffffffff021916908373ffffffffffffffffffffffffffffffffffffffff16021790555050565b6000600660009054906101000a900473ffffffffffffffffffffffffffffffffffffffff16905090565b6117847fa49807205ce4d355092ef5a8a18f56e8913cf4a201fbe287825b095693c2177533611448565b6117c3576040517f08c379a00000000000000000000000000000000000000000000000000000000081526004016117ba906132af565b60405180910390fd5b80600560006101000a81548173ffffffffffffffffffffffffffffffffffffffff021916908373ffffffffffffffffffffffffffffffffffffffff16021790555050565b6118317fa49807205ce4d355092ef5a8a18f56e8913cf4a201fbe287825b095693c2177533611448565b8061186257506118617f241ecf16d79d0f8dbfb92cbc07fe17840425976cf0667f022fe9877caa831b0833611448565b5b6118a1576040517f08c379a0000000000000000000000000000000000000000000000000000000008152600401611898906132af565b60405180910390fd5b8173ffffffffffffffffffffffffffffffffffffffff1663bedb86fb826040518263ffffffff1660e01b81526004016118da9190612b3d565b600060405180830381600087803b1580156118f457600080fd5b505af1158015611908573d6000803e3d6000fd5b505050505050565b61193a7fa49807205ce4d355092ef5a8a18f56e8913cf4a201fbe287825b095693c2177533611448565b611979576040517f08c379a0000000000000000000000000000000000000000000000000000000008152600401611970906132af565b60405180910390fd5b611983828261268c565b5050565b6119b17fa49807205ce4d355092ef5a8a18f56e8913cf4a201fbe287825b095693c2177533611448565b806119e257506119e17f241ecf16d79d0f8dbfb92cbc07fe17840425976cf0667f022fe9877caa831b0833611448565b5b611a21576040517f08c379a0000000000000000000000000000000000000000000000000000000008152600401611a18906132af565b60405180910390fd5b8073ffffffffffffffffffffffffffffffffffffffff166398b777e7836040518263ffffffff1660e01b8152600401611a5a9190613307565b600060405180830381600087803b158015611a7457600080fd5b505af1158015611a88573d6000803e3d6000fd5b505050505050565b600073ffffffffffffffffffffffffffffffffffffffff16600360009054906101000a900473ffffffffffffffffffffffffffffffffffffffff1673ffffffffffffffffffffffffffffffffffffffff1603611b21576040517f08c379a0000000000000000000000000000000000000000000000000000000008152600401611b1890613577565b60405180910390fd5b600073ffffffffffffffffffffffffffffffffffffffff16600460009054906101000a900473ffffffffffffffffffffffffffffffffffffffff1673ffffffffffffffffffffffffffffffffffffffff1603611bb2576040517f08c379a0000000000000000000000000000000000000000000000000000000008152600401611ba9906135e3565b60405180910390fd5b600073ffffffffffffffffffffffffffffffffffffffff16600560009054906101000a900473ffffffffffffffffffffffffffffffffffffffff1673ffffffffffffffffffffffffffffffffffffffff1603611c43576040517f08c379a0000000000000000000000000000000000000000000000000000000008152600401611c3a9061364f565b60405180910390fd5b611c6d7fa49807205ce4d355092ef5a8a18f56e8913cf4a201fbe287825b095693c2177533611448565b611cac576040517f08c379a0000000000000000000000000000000000000000000000000000000008152600401611ca3906132af565b60405180910390fd5b6000600360009054906101000a900473ffffffffffffffffffffffffffffffffffffffff1673ffffffffffffffffffffffffffffffffffffffff16631249c58b6040518163ffffffff1660e01b81526004016020604051808303816000875af1158015611d1d573d6000803e3d6000fd5b505050506040513d601f19601f82011682018060405250810190611d419190613684565b90506000600560009054906101000a900473ffffffffffffffffffffffffffffffffffffffff1673ffffffffffffffffffffffffffffffffffffffff1663abffeffc888888600660009054906101000a900473ffffffffffffffffffffffffffffffffffffffff166040518563ffffffff1660e01b8152600401611dc894939291906136b1565b6020604051808303816000875af1158015611de7573d6000803e3d6000fd5b505050506040513d601f19601f82011682018060405250810190611e0b919061370b565b9050600460009054906101000a900473ffffffffffffffffffffffffffffffffffffffff1673ffffffffffffffffffffffffffffffffffffffff1663cf53ecfc828b8787600760009054906101000a900473ffffffffffffffffffffffffffffffffffffffff166040518663ffffffff1660e01b8152600401611e929594939291906137a6565b6020604051808303816000875af1158015611eb1573d6000803e3d6000fd5b505050506040513d601f19601f82011682018060405250810190611ed5919061370b565b6008600084815260200190815260200160002060006101000a81548173ffffffffffffffffffffffffffffffffffffffff021916908373ffffffffffffffffffffffffffffffffffffffff1602179055508073ffffffffffffffffffffffffffffffffffffffff16630c2e304a6008600085815260200190815260200160002060009054906101000a900473ffffffffffffffffffffffffffffffffffffffff166040518263ffffffff1660e01b8152600401611f929190612bf2565b600060405180830381600087803b158015611fac57600080fd5b505af1158015611fc0573d6000803e3d6000fd5b5050505080600960006008600086815260200190815260200160002060009054906101000a900473ffffffffffffffffffffffffffffffffffffffff1673ffffffffffffffffffffffffffffffffffffffff1673ffffffffffffffffffffffffffffffffffffffff16815260200190815260200160002060006101000a81548173ffffffffffffffffffffffffffffffffffffffff021916908373ffffffffffffffffffffffffffffffffffffffff160217905550876040516120839190613843565b60405180910390207fd806413bbfb722e4fe8d9accee8004de0436410b53962b6b2fb3a7f80536f9fd826008600086815260200190815260200160002060009054906101000a900473ffffffffffffffffffffffffffffffffffffffff16600660009054906101000a900473ffffffffffffffffffffffffffffffffffffffff1686604051612115949392919061385a565b60405180910390a2505050505050505050565b61213182610c5c565b6121428161213d6125e7565b6125ef565b61214c838361276c565b505050565b61217b7fa49807205ce4d355092ef5a8a18f56e8913cf4a201fbe287825b095693c2177533611448565b6121ba576040517f08c379a00000000000000000000000000000000000000000000000000000000081526004016121b1906132af565b60405180910390fd5b600660009054906101000a900473ffffffffffffffffffffffffffffffffffffffff1673ffffffffffffffffffffffffffffffffffffffff1663d68df3ee86868686866040518663ffffffff1660e01b815260040161221d95949392919061389f565b600060405180830381600087803b15801561223757600080fd5b505af115801561224b573d6000803e3d6000fd5b505050505050505050565b6122807fa49807205ce4d355092ef5a8a18f56e8913cf4a201fbe287825b095693c2177533611448565b6122bf576040517f08c379a00000000000000000000000000000000000000000000000000000000081526004016122b6906132af565b60405180910390fd5b6122c9828261276c565b5050565b7f241ecf16d79d0f8dbfb92cbc07fe17840425976cf0667f022fe9877caa831b0881565b61231b7fa49807205ce4d355092ef5a8a18f56e8913cf4a201fbe287825b095693c2177533611448565b61235a576040517f08c379a0000000000000000000000000000000000000000000000000000000008152600401612351906132af565b60405180910390fd5b8073ffffffffffffffffffffffffffffffffffffffff1663d3c9727c8585856040518463ffffffff1660e01b8152600401612397939291906138f2565b600060405180830381600087803b1580156123b157600080fd5b505af11580156123c5573d6000803e3d6000fd5b5050505050505050565b6123f97fa49807205ce4d355092ef5a8a18f56e8913cf4a201fbe287825b095693c2177533611448565b8061242a57506124297f241ecf16d79d0f8dbfb92cbc07fe17840425976cf0667f022fe9877caa831b0833611448565b5b8061245b575061245a7f21d1167972f621f75904fb065136bc8b53c7ba1c60ccd3a7758fbee465851e9c33611448565b5b61249a576040517f08c379a0000000000000000000000000000000000000000000000000000000008152600401612491906132af565b60405180910390fd5b600260009054906101000a900473ffffffffffffffffffffffffffffffffffffffff1673ffffffffffffffffffffffffffffffffffffffff1663278e07ce83836040518363ffffffff1660e01b81526004016124f792919061342b565b6020604051808303816000875af1158015612516573d6000803e3d6000fd5b505050506040513d601f19601f8201168201806040525081019061253a9190613469565b612579576040517f08c379a000000000000000000000000000000000000000000000000000000000815260040161257090613975565b60405180910390fd5b5050565b60007f01ffc9a7000000000000000000000000000000000000000000000000000000007bffffffffffffffffffffffffffffffffffffffffffffffffffffffff1916827bffffffffffffffffffffffffffffffffffffffffffffffffffffffff1916149050919050565b600033905090565b6125f98282611448565b6126885761261e8173ffffffffffffffffffffffffffffffffffffffff16601461284d565b61262c8360001c602061284d565b60405160200161263d929190613a2d565b6040516020818303038152906040526040517f08c379a000000000000000000000000000000000000000000000000000000000815260040161267f9190613a67565b60405180910390fd5b5050565b6126968282611448565b61276857600160008084815260200190815260200160002060000160008373ffffffffffffffffffffffffffffffffffffffff1673ffffffffffffffffffffffffffffffffffffffff16815260200190815260200160002060006101000a81548160ff02191690831515021790555061270d6125e7565b73ffffffffffffffffffffffffffffffffffffffff168173ffffffffffffffffffffffffffffffffffffffff16837f2f8788117e7eff1d82e926ec794901d17c78024a50270940304540a733656f0d60405160405180910390a45b5050565b6127768282611448565b1561284957600080600084815260200190815260200160002060000160008373ffffffffffffffffffffffffffffffffffffffff1673ffffffffffffffffffffffffffffffffffffffff16815260200190815260200160002060006101000a81548160ff0219169083151502179055506127ee6125e7565b73ffffffffffffffffffffffffffffffffffffffff168173ffffffffffffffffffffffffffffffffffffffff16837ff6391f5c32d9c69d2a47ea670b442974b53935d1edc7fd64eb21e047a839171b60405160405180910390a45b5050565b6060600060028360026128609190613ab8565b61286a9190613afa565b67ffffffffffffffff81111561288357612882612eea565b5b6040519080825280601f01601f1916602001820160405280156128b55781602001600182028036833780820191505090505b5090507f3000000000000000000000000000000000000000000000000000000000000000816000815181106128ed576128ec613b2e565b5b60200101907effffffffffffffffffffffffffffffffffffffffffffffffffffffffffffff1916908160001a9053507f78000000000000000000000000000000000000000000000000000000000000008160018151811061295157612950613b2e565b5b60200101907effffffffffffffffffffffffffffffffffffffffffffffffffffffffffffff1916908160001a905350600060018460026129919190613ab8565b61299b9190613afa565b90505b6001811115612a3b577f3031323334353637383961626364656600000000000000000000000000000000600f8616601081106129dd576129dc613b2e565b5b1a60f81b8282815181106129f4576129f3613b2e565b5b60200101907effffffffffffffffffffffffffffffffffffffffffffffffffffffffffffff1916908160001a905350600485901c945080612a3490613b5d565b905061299e565b5060008414612a7f576040517f08c379a0000000000000000000000000000000000000000000000000000000008152600401612a7690613bd2565b60405180910390fd5b8091505092915050565b6000604051905090565b600080fd5b600080fd5b60007fffffffff0000000000000000000000000000000000000000000000000000000082169050919050565b612ad281612a9d565b8114612add57600080fd5b50565b600081359050612aef81612ac9565b92915050565b600060208284031215612b0b57612b0a612a93565b5b6000612b1984828501612ae0565b91505092915050565b60008115159050919050565b612b3781612b22565b82525050565b6000602082019050612b526000830184612b2e565b92915050565b600073ffffffffffffffffffffffffffffffffffffffff82169050919050565b6000612b8382612b58565b9050919050565b612b9381612b78565b8114612b9e57600080fd5b50565b600081359050612bb081612b8a565b92915050565b600060208284031215612bcc57612bcb612a93565b5b6000612bda84828501612ba1565b91505092915050565b612bec81612b78565b82525050565b6000602082019050612c076000830184612be3565b92915050565b6000819050919050565b612c2081612c0d565b8114612c2b57600080fd5b50565b600081359050612c3d81612c17565b92915050565b600080600060608486031215612c5c57612c5b612a93565b5b6000612c6a86828701612c2e565b9350506020612c7b86828701612ba1565b9250506040612c8c86828701612ba1565b9150509250925092565b60008060408385031215612cad57612cac612a93565b5b6000612cbb85828601612ba1565b9250506020612ccc85828601612ba1565b9150509250929050565b6000819050919050565b612ce981612cd6565b8114612cf457600080fd5b50565b600081359050612d0681612ce0565b92915050565b600060208284031215612d2257612d21612a93565b5b6000612d3084828501612cf7565b91505092915050565b612d4281612cd6565b82525050565b6000602082019050612d5d6000830184612d39565b92915050565b60008060408385031215612d7a57612d79612a93565b5b6000612d8885828601612cf7565b9250506020612d9985828601612ba1565b9150509250929050565b60008060408385031215612dba57612db9612a93565b5b6000612dc885828601612c2e565b9250506020612dd985828601612ba1565b9150509250929050565b600060208284031215612df957612df8612a93565b5b6000612e0784828501612c2e565b91505092915050565b600080600060608486031215612e2957612e28612a93565b5b6000612e3786828701612ba1565b9350506020612e4886828701612ba1565b9250506040612e5986828701612ba1565b9150509250925092565b612e6c81612b22565b8114612e7757600080fd5b50565b600081359050612e8981612e63565b92915050565b60008060408385031215612ea657612ea5612a93565b5b6000612eb485828601612ba1565b9250506020612ec585828601612e7a565b9150509250929050565b600080fd5b600080fd5b6000601f19601f8301169050919050565b7f4e487b7100000000000000000000000000000000000000000000000000000000600052604160045260246000fd5b612f2282612ed9565b810181811067ffffffffffffffff82111715612f4157612f40612eea565b5b80604052505050565b6000612f54612a89565b9050612f608282612f19565b919050565b600067ffffffffffffffff821115612f8057612f7f612eea565b5b612f8982612ed9565b9050602081019050919050565b82818337600083830152505050565b6000612fb8612fb384612f65565b612f4a565b905082815260208101848484011115612fd457612fd3612ed4565b5b612fdf848285612f96565b509392505050565b600082601f830112612ffc57612ffb612ecf565b5b813561300c848260208601612fa5565b91505092915050565b600080600080600080600060e0888a03121561303457613033612a93565b5b60006130428a828b01612c2e565b975050602088013567ffffffffffffffff81111561306357613062612a98565b5b61306f8a828b01612fe7565b96505060406130808a828b01612ba1565b95505060606130918a828b01612ba1565b94505060806130a28a828b01612ba1565b93505060a088013567ffffffffffffffff8111156130c3576130c2612a98565b5b6130cf8a828b01612fe7565b92505060c088013567ffffffffffffffff8111156130f0576130ef612a98565b5b6130fc8a828b01612fe7565b91505092959891949750929550565b600080600080600060a0868803121561312757613126612a93565b5b600061313588828901612ba1565b955050602061314688828901612ba1565b945050604061315788828901612c2e565b935050606061316888828901612c2e565b925050608061317988828901612e7a565b9150509295509295909350565b600080600080608085870312156131a05761319f612a93565b5b60006131ae87828801612c2e565b94505060206131bf87828801612c2e565b93505060406131d087828801612c2e565b92505060606131e187828801612ba1565b91505092959194509250565b600381106131fa57600080fd5b50565b60008135905061320c816131ed565b92915050565b6000806040838503121561322957613228612a93565b5b600061323785828601612ba1565b9250506020613248858286016131fd565b9150509250929050565b600082825260208201905092915050565b7f576974686f7574207065726d697373696f6e0000000000000000000000000000600082015250565b6000613299601283613252565b91506132a482613263565b602082019050919050565b600060208201905081810360008301526132c88161328c565b9050919050565b6132d881612c0d565b82525050565b60006040820190506132f360008301856132cf565b6133006020830184612be3565b9392505050565b600060208201905061331c60008301846132cf565b92915050565b7f416363657373436f6e74726f6c3a2063616e206f6e6c792072656e6f756e636560008201527f20726f6c657320666f722073656c660000000000000000000000000000000000602082015250565b600061337e602f83613252565b915061338982613322565b604082019050919050565b600060208201905081810360008301526133ad81613371565b9050919050565b7f4e487b7100000000000000000000000000000000000000000000000000000000600052602160045260246000fd5b600381106133f4576133f36133b4565b5b50565b6000819050613405826133e3565b919050565b6000613415826133f7565b9050919050565b6134258161340a565b82525050565b60006040820190506134406000830185612be3565b61344d602083018461341c565b9392505050565b60008151905061346381612e63565b92915050565b60006020828403121561347f5761347e612a93565b5b600061348d84828501613454565b91505092915050565b60006040820190506134ab6000830185612be3565b6134b86020830184612be3565b9392505050565b7f4572726f7220666f72636564207472616e736665720000000000000000000000600082015250565b60006134f5601583613252565b9150613500826134bf565b602082019050919050565b60006020820190508181036000830152613524816134e8565b9050919050565b7f4572726f72206572633732310000000000000000000000000000000000000000600082015250565b6000613561600c83613252565b915061356c8261352b565b602082019050919050565b6000602082019050818103600083015261359081613554565b9050919050565b7f4572726f7220666163746f727920657263323000000000000000000000000000600082015250565b60006135cd601383613252565b91506135d882613597565b602082019050919050565b600060208201905081810360008301526135fc816135c0565b9050919050565b7f4572726f7220666163746f72792073656c6c6572000000000000000000000000600082015250565b6000613639601483613252565b915061364482613603565b602082019050919050565b600060208201905081810360008301526136688161362c565b9050919050565b60008151905061367e81612c17565b92915050565b60006020828403121561369a57613699612a93565b5b60006136a88482850161366f565b91505092915050565b60006080820190506136c66000830187612be3565b6136d36020830186612be3565b6136e06040830185612be3565b6136ed6060830184612be3565b95945050505050565b60008151905061370581612b8a565b92915050565b60006020828403121561372157613720612a93565b5b600061372f848285016136f6565b91505092915050565b600081519050919050565b60005b83811015613761578082015181840152602081019050613746565b60008484015250505050565b600061377882613738565b6137828185613252565b9350613792818560208601613743565b61379b81612ed9565b840191505092915050565b600060a0820190506137bb6000830188612be3565b6137c860208301876132cf565b81810360408301526137da818661376d565b905081810360608301526137ee818561376d565b90506137fd6080830184612be3565b9695505050505050565b600081905092915050565b600061381d82613738565b6138278185613807565b9350613837818560208601613743565b80840191505092915050565b600061384f8284613812565b915081905092915050565b600060808201905061386f6000830187612be3565b61387c6020830186612be3565b6138896040830185612be3565b61389660608301846132cf565b95945050505050565b600060a0820190506138b46000830188612be3565b6138c16020830187612be3565b6138ce60408301866132cf565b6138db60608301856132cf565b6138e86080830184612b2e565b9695505050505050565b600060608201905061390760008301866132cf565b61391460208301856132cf565b61392160408301846132cf565b949350505050565b7f4572726f72207365742073746174757300000000000000000000000000000000600082015250565b600061395f601083613252565b915061396a82613929565b602082019050919050565b6000602082019050818103600083015261398e81613952565b9050919050565b7f416363657373436f6e74726f6c3a206163636f756e7420000000000000000000600082015250565b60006139cb601783613807565b91506139d682613995565b601782019050919050565b7f206973206d697373696e6720726f6c6520000000000000000000000000000000600082015250565b6000613a17601183613807565b9150613a22826139e1565b601182019050919050565b6000613a38826139be565b9150613a448285613812565b9150613a4f82613a0a565b9150613a5b8284613812565b91508190509392505050565b60006020820190508181036000830152613a81818461376d565b905092915050565b7f4e487b7100000000000000000000000000000000000000000000000000000000600052601160045260246000fd5b6000613ac382612c0d565b9150613ace83612c0d565b9250828202613adc81612c0d565b91508282048414831517613af357613af2613a89565b5b5092915050565b6000613b0582612c0d565b9150613b1083612c0d565b9250828201905080821115613b2857613b27613a89565b5b92915050565b7f4e487b7100000000000000000000000000000000000000000000000000000000600052603260045260246000fd5b6000613b6882612c0d565b915060008203613b7b57613b7a613a89565b5b600182039050919050565b7f537472696e67733a20686578206c656e67746820696e73756666696369656e74600082015250565b6000613bbc602083613252565b9150613bc782613b86565b602082019050919050565b60006020820190508181036000830152613beb81613baf565b905091905056fea26469706673582212205cb464e70f8a5be901a0ac592ead00c13f270dfdc5781051ba90be9ef0dc482e64736f6c63430008110033",
  "immutableReferences": {},
  "source": "// SPDX-License-Identifier: MIT\npragma solidity ^0.8.17;\n\nimport \"@openzeppelin/contracts/access/AccessControl.sol\";\n\nimport \"../interfaces/IFACTORYSELLER.sol\"; \nimport \"../interfaces/IFACTORYHOLDINGS.sol\"; \nimport \"../interfaces/IWHITELIST.sol\";\nimport \"../interfaces/INFTSERC721.sol\"; \nimport \"../interfaces/ITOKENHOLDINGS.sol\"; \nimport \"../interfaces/ISELLER.sol\"; \nimport \"../interfaces/IMANAGER.sol\";\nimport \"../interfaces/IDIVIDENDS.sol\";\n\ninterface IOWNABLE {\n    function transferOwner(address p_newOwner) external;\n}\n\ninterface IPAUSE {\n    function setPause(bool p_pause) external;\n}\n\ncontract Manager is IMANAGER, AccessControl { \n    //////////////////////////////////////////////////////////////////////////////////////////////////\n    // Roles\n    //////////////////////////////////////////////////////////////////////////////////////////////////\n    bytes32 public constant ADMIN_ROLE = keccak256(\"ADMIN_ROLE\");\n    bytes32 public constant MANAGER_ROLE = keccak256(\"MANAGER_ROLE\");\n    bytes32 public constant EDITOR_ROLE = keccak256(\"EDITOR_ROLE\");\n\n    //////////////////////////////////////////////////////////////////////////////////////////////////\n    // State\n    //////////////////////////////////////////////////////////////////////////////////////////////////\n    address private s_company;\n    address private s_whiteList;\n    address private s_nftsERC721;\n    address private s_factoryHoldings;\n    address private s_factorySeller;\n    address private s_dividends;\n    address private s_contratEventsAggregator;\n\n    mapping(uint256 => address) private s_hodings;\n    mapping(address => address) private s_sellers;\n\n    //////////////////////////////////////////////////////////////////////////////////////////////////\n    // Constructor\n    //////////////////////////////////////////////////////////////////////////////////////////////////\n    constructor(\n        address p_whiteList,\n        address p_nftsERC721,\n        address p_factoryERC20,\n        address p_factorySeller,\n        address p_contratEventsAggregator\n    )  {\n        _grantRole(DEFAULT_ADMIN_ROLE, msg.sender);\n        _grantRole(ADMIN_ROLE, msg.sender);\n        _grantRole(MANAGER_ROLE, msg.sender);\n        _grantRole(EDITOR_ROLE, msg.sender);\n\n        s_company = msg.sender;\n        s_whiteList = p_whiteList;\n        s_nftsERC721 = p_nftsERC721;\n        s_factoryHoldings = p_factoryERC20;\n        s_factorySeller = p_factorySeller;\n        s_contratEventsAggregator = p_contratEventsAggregator;\n    }\n\n    //////////////////////////////////////////////////////////////////////////////////////////////////\n    // Public functions\n    ////////////////////////////////////////////////////////////////////////////////////////////////// \n\n    // => View functions\n\n    function whiteList() public view override returns(address) {\n        return s_whiteList;\n    }\n\n    function nftsERC721() public view override returns(address) {\n        return s_nftsERC721;\n    }\n\n    function factoryERC20() public view override returns(address) {\n        return s_factoryHoldings;\n    }\n\n    function factorySeller() public view override returns(address) { \n        return s_factorySeller;\n    }\n\n    function addressHoldings(uint256 p_nftID) public view override returns(address) {\n        return s_hodings[p_nftID];\n    }\n\n    function addressSeller(address p_addressHoldings) public view override returns(address) {\n        return s_sellers[p_addressHoldings];\n    }\n\n    function addressDividends() public view override returns(address) {\n        return s_dividends;\n    }\n\n    function company() public view override returns(address) { \n        return s_company;\n    }\n\n    // => Set functions\n\n    function revokeRol(bytes32 p_role, address p_address) public override {\n        require(hasRole(ADMIN_ROLE, msg.sender), \"Without permission\");\n\n        _revokeRole(p_role, p_address);\n    }\n\n    function addRol(bytes32 p_role, address p_address) public override {\n        require(hasRole(ADMIN_ROLE, msg.sender), \"Without permission\");\n\n        _grantRole(p_role, p_address);\n    }\n\n    function setCompany(address p_company) public override {\n        require(hasRole(ADMIN_ROLE, msg.sender), \"Without permission\");\n\n        s_company = p_company;\n    }\n\n    function setWhiteList(address p_whiteList) public override {\n        require(hasRole(ADMIN_ROLE, msg.sender), \"Without permission\");\n\n        s_whiteList = p_whiteList;\n    }\n\n    function setNftsERC721(address p_nftsERC721) public override {\n        require(hasRole(ADMIN_ROLE, msg.sender), \"Without permission\");\n\n        s_nftsERC721 = p_nftsERC721;\n    }\n\n    function setFactoryERC20(address p_factoryERC20) public override {\n        require(hasRole(ADMIN_ROLE, msg.sender), \"Without permission\");\n\n        s_factoryHoldings = p_factoryERC20;\n    }\n\n    function setFactorySeller(address p_factorySeller) public override {\n        require(hasRole(ADMIN_ROLE, msg.sender), \"Without permission\");\n\n        s_factorySeller = p_factorySeller;\n    } \n\n    function mintNft(\n        uint256 p_amountToSell, \n        string memory p_uri,\n        address p_stableCoinAddress,\n        address p_beneficiaryAddress,\n        address p_aggregatorStableCoinDollar,\n        string memory p_name,\n        string memory p_symbol\n    ) public override {\n        require(s_nftsERC721 != address(0), \"Error erc721\");\n        require(s_factoryHoldings != address(0), \"Error factory erc20\");\n        require(s_factorySeller != address(0), \"Error factory seller\");\n        require(\n            hasRole(ADMIN_ROLE, msg.sender), \n            \"Without permission\"\n        );\n\n        uint256 nftID = INFTSERC721(s_nftsERC721).mint(); \n\n        address sellerAddress = IFACTORYSELLER(s_factorySeller).create(p_stableCoinAddress, p_beneficiaryAddress, p_aggregatorStableCoinDollar, s_dividends); \n\n        s_hodings[nftID] = IFACTORYHOLDINGS(s_factoryHoldings).create(sellerAddress, p_amountToSell, p_name, p_symbol, s_contratEventsAggregator);\n\n        ISELLER(sellerAddress).setHoldingsAddress(s_hodings[nftID]); \n\n        s_sellers[s_hodings[nftID]] = sellerAddress;\n\n        emit newMint(p_uri, sellerAddress, s_hodings[nftID], s_dividends, nftID);\n    } \n\n    function newSaleSeller(\n        uint256 p_priceEUROS,\n        uint256 p_maxTimeHours,\n        uint256 p_minTokensBuy,\n        address p_addressContractSeller\n    ) public override {\n        require(\n            hasRole(ADMIN_ROLE, msg.sender), \n            \"Without permission\"\n        );\n\n        ISELLER(p_addressContractSeller).sell(p_priceEUROS, p_maxTimeHours, p_minTokensBuy);\n    }\n\n    function buyThroughCompany(\n        uint256 p_amountToken, \n        address p_buyer,\n        address p_addressContractSeller\n    ) public override { \n        require(\n            hasRole(ADMIN_ROLE, msg.sender) ||\n            hasRole(MANAGER_ROLE, msg.sender), \n            \"Without permission\"\n        );\n\n        ISELLER(p_addressContractSeller).buyWithFiat(p_amountToken, p_buyer);\n    }\n\n    function buyWithoutPay(\n        uint256 p_amountToken, \n        address p_buyer,\n        address p_addressContractSeller\n    ) public override {\n        require(\n            hasRole(ADMIN_ROLE, msg.sender) ||\n            hasRole(MANAGER_ROLE, msg.sender), \n            \"Without permission\"\n        );\n\n        ISELLER(p_addressContractSeller).buyWithoutPay(p_amountToken, p_buyer);\n    }\n\n    function setPriceSeller( \n        uint256 p_priceEUROS,\n        address p_addressContractSeller\n    ) public override {\n        require(\n            hasRole(ADMIN_ROLE, msg.sender) ||\n            hasRole(MANAGER_ROLE, msg.sender), \n            \"Without permission\"\n        );\n\n        ISELLER(p_addressContractSeller).setPrice(p_priceEUROS);\n    }\n\n    function setMaxTime(\n        uint256 p_maxTimeHours,\n        address p_addressContractSeller\n    ) public override {\n        require(\n            hasRole(ADMIN_ROLE, msg.sender) ||\n            hasRole(MANAGER_ROLE, msg.sender), \n            \"Without permission\"\n        );\n\n        ISELLER(p_addressContractSeller).setMaxTime(p_maxTimeHours);\n    }\n\n    function setMinTokensBuy(\n        uint256 p_minTokensBuy,\n        address p_addressContractSeller\n    ) public override {\n        require(\n            hasRole(ADMIN_ROLE, msg.sender) ||\n            hasRole(MANAGER_ROLE, msg.sender), \n            \"Without permission\"\n        );\n\n        ISELLER(p_addressContractSeller).setMinTokensBuy(p_minTokensBuy); \n    }\n\n    function addDividends(\n        address p_addressOrigin, \n        address p_addressContractHoldings, \n        uint256 p_amountIncrementDividends, \n        uint256 p_year, \n        bool p_withholding\n    ) public override {\n        require(\n            hasRole(ADMIN_ROLE, msg.sender),  \n            \"Without permission\"\n        );\n\n        IDIVIDENDS(s_dividends).addDividends(p_addressOrigin, p_addressContractHoldings, p_amountIncrementDividends, p_year, p_withholding);\n    }\n\n    function activeRevertPayments(address p_seller, address p_origin) public override {\n        require(\n            hasRole(ADMIN_ROLE, msg.sender),  \n            \"Without permission\"\n        );\n\n        ISELLER(p_seller).activeRevertPayments(p_origin);\n    }\n\n    function setStatusWhiteList(\n        address p_address, \n        IWHITELIST.Status p_status\n    ) public override {\n        require(\n            hasRole(ADMIN_ROLE, msg.sender) ||\n            hasRole(MANAGER_ROLE, msg.sender) ||\n            hasRole(EDITOR_ROLE, msg.sender), \n            \"Without permission\"\n        );\n\n        require(\n            IWHITELIST(s_whiteList).setStatus(p_address, p_status),\n            \"Error set status\" \n        );\n    }\n\n    function forcedTransferStocks(address p_address, address p_from, address p_to) public override { \n        require(\n            hasRole(ADMIN_ROLE, msg.sender), \n            \"Without permission\"\n        );\n\n        require(\n            IWHITELIST(s_whiteList).setStatus(p_to, IWHITELIST.Status.Active) && \n            ITOKENHOLDINGS(p_address).forcedTransferStocks(p_from, p_to),\n            \"Error forced transfer\" \n        );\n    }\n\n    function setAddressContractDividends(address p_dividends) public override { \n        require(\n            hasRole(ADMIN_ROLE, msg.sender), \n            \"Without permission\"\n        );\n\n        s_dividends = p_dividends;\n\n        IFACTORYHOLDINGS(s_factoryHoldings).setDividends(p_dividends);\n    }\n\n    function setOwnable(address p_address, address p_newOwner) public override {\n        require(\n            hasRole(ADMIN_ROLE, msg.sender), \n            \"Without permission\"\n        );\n\n        IOWNABLE(p_address).transferOwner(p_newOwner);\n    }\n\n    function setSignerWhiteList(address p_newSigner) public override { \n        require(\n            hasRole(ADMIN_ROLE, msg.sender), \n            \"Without permission\"\n        );\n\n        IWHITELIST(s_whiteList).transferSigner(p_newSigner);\n    }\n\n    function setPause(address p_address, bool p_pause) public override {\n        require(\n            hasRole(ADMIN_ROLE, msg.sender) ||\n            hasRole(MANAGER_ROLE, msg.sender), \n            \"Without permission\"\n        );\n\n        IPAUSE(p_address).setPause(p_pause);\n    }\n}\n",
  "sourcePath": "/Users/albertolasa/Desktop/Clientes/AURINEXT/domoblockCodes/DOMOBLOCK/contracts/Manager.sol",
  "compiler": {
    "name": "solc",
    "version": "0.8.17+commit.8df45f5f.Emscripten.clang"
  },
  "schemaVersion": "3.4.8",
  "updatedAt": "2023-02-13T18:09:25.838Z",
  "networkType": "ethereum",
  "devdoc": {
    "kind": "dev",
    "methods": {
      "getRoleAdmin(bytes32)": {
        "details": "Returns the admin role that controls `role`. See {grantRole} and {revokeRole}. To change a role's admin, use {_setRoleAdmin}."
      },
      "grantRole(bytes32,address)": {
        "details": "Grants `role` to `account`. If `account` had not been already granted `role`, emits a {RoleGranted} event. Requirements: - the caller must have ``role``'s admin role."
      },
      "hasRole(bytes32,address)": {
        "details": "Returns `true` if `account` has been granted `role`."
      },
      "renounceRole(bytes32,address)": {
        "details": "Revokes `role` from the calling account. Roles are often managed via {grantRole} and {revokeRole}: this function's purpose is to provide a mechanism for accounts to lose their privileges if they are compromised (such as when a trusted device is misplaced). If the calling account had been revoked `role`, emits a {RoleRevoked} event. Requirements: - the caller must be `account`."
      },
      "revokeRole(bytes32,address)": {
        "details": "Revokes `role` from `account`. If `account` had been granted `role`, emits a {RoleRevoked} event. Requirements: - the caller must have ``role``'s admin role."
      },
      "supportsInterface(bytes4)": {
        "details": "See {IERC165-supportsInterface}."
      }
    },
    "version": 1
  },
  "userdoc": {
    "kind": "user",
    "methods": {},
    "version": 1
  }
}