{
  "contractName": "Seller",
  "abi": [
    {
      "inputs": [
        {
          "internalType": "address",
          "name": "p_manager",
          "type": "address"
        },
        {
          "internalType": "address",
          "name": "p_beneficiary",
          "type": "address"
        },
        {
          "internalType": "address",
          "name": "p_stableCoin",
          "type": "address"
        },
        {
          "internalType": "address",
          "name": "p_aggregatorStableCoinDollar",
          "type": "address"
        },
        {
          "internalType": "address",
          "name": "p_dividends",
          "type": "address"
        }
      ],
      "stateMutability": "nonpayable",
      "type": "constructor"
    },
    {
      "anonymous": false,
      "inputs": [
        {
          "indexed": true,
          "internalType": "address",
          "name": "previousOwner",
          "type": "address"
        },
        {
          "indexed": true,
          "internalType": "address",
          "name": "newOwner",
          "type": "address"
        }
      ],
      "name": "OwnershipTransferred",
      "type": "event"
    },
    {
      "anonymous": false,
      "inputs": [
        {
          "indexed": true,
          "internalType": "address",
          "name": "e_buyer",
          "type": "address"
        },
        {
          "indexed": false,
          "internalType": "uint256",
          "name": "e_amountToken",
          "type": "uint256"
        }
      ],
      "name": "newReinvestment",
      "type": "event"
    },
    {
      "anonymous": false,
      "inputs": [
        {
          "indexed": true,
          "internalType": "address",
          "name": "e_client",
          "type": "address"
        },
        {
          "indexed": false,
          "internalType": "uint256",
          "name": "e_amount",
          "type": "uint256"
        }
      ],
      "name": "newSale",
      "type": "event"
    },
    {
      "anonymous": false,
      "inputs": [
        {
          "indexed": true,
          "internalType": "address",
          "name": "e_client",
          "type": "address"
        },
        {
          "indexed": false,
          "internalType": "uint256",
          "name": "e_amount",
          "type": "uint256"
        }
      ],
      "name": "newSaleFiat",
      "type": "event"
    },
    {
      "anonymous": false,
      "inputs": [
        {
          "indexed": false,
          "internalType": "uint256",
          "name": "e_tokenAmount",
          "type": "uint256"
        },
        {
          "indexed": false,
          "internalType": "uint256",
          "name": "e_price",
          "type": "uint256"
        }
      ],
      "name": "toSell",
      "type": "event"
    },
    {
      "inputs": [],
      "name": "owner",
      "outputs": [
        {
          "internalType": "address",
          "name": "",
          "type": "address"
        }
      ],
      "stateMutability": "view",
      "type": "function"
    },
    {
      "inputs": [],
      "name": "renounceOwnership",
      "outputs": [],
      "stateMutability": "nonpayable",
      "type": "function"
    },
    {
      "inputs": [
        {
          "internalType": "address",
          "name": "newOwner",
          "type": "address"
        }
      ],
      "name": "transferOwnership",
      "outputs": [],
      "stateMutability": "nonpayable",
      "type": "function"
    },
    {
      "inputs": [],
      "name": "getMaxTime",
      "outputs": [
        {
          "internalType": "uint256",
          "name": "",
          "type": "uint256"
        }
      ],
      "stateMutability": "view",
      "type": "function"
    },
    {
      "inputs": [
        {
          "internalType": "uint256",
          "name": "p_amountToken",
          "type": "uint256"
        }
      ],
      "name": "priceAmountToken",
      "outputs": [
        {
          "internalType": "uint256",
          "name": "",
          "type": "uint256"
        },
        {
          "internalType": "uint256",
          "name": "",
          "type": "uint256"
        }
      ],
      "stateMutability": "view",
      "type": "function"
    },
    {
      "inputs": [
        {
          "internalType": "uint256",
          "name": "p_amountStableCoin",
          "type": "uint256"
        }
      ],
      "name": "amountTokenStableCoin",
      "outputs": [
        {
          "internalType": "uint256",
          "name": "",
          "type": "uint256"
        }
      ],
      "stateMutability": "view",
      "type": "function"
    },
    {
      "inputs": [],
      "name": "minAmountToBuy",
      "outputs": [
        {
          "internalType": "uint256",
          "name": "",
          "type": "uint256"
        }
      ],
      "stateMutability": "view",
      "type": "function"
    },
    {
      "inputs": [],
      "name": "tokenAmountSold",
      "outputs": [
        {
          "internalType": "uint256",
          "name": "",
          "type": "uint256"
        }
      ],
      "stateMutability": "view",
      "type": "function"
    },
    {
      "inputs": [],
      "name": "balanceSeller",
      "outputs": [
        {
          "internalType": "uint256",
          "name": "",
          "type": "uint256"
        }
      ],
      "stateMutability": "view",
      "type": "function"
    },
    {
      "inputs": [],
      "name": "stableCoin",
      "outputs": [
        {
          "internalType": "address",
          "name": "",
          "type": "address"
        },
        {
          "internalType": "string",
          "name": "",
          "type": "string"
        },
        {
          "internalType": "string",
          "name": "",
          "type": "string"
        }
      ],
      "stateMutability": "view",
      "type": "function"
    },
    {
      "inputs": [],
      "name": "holdingsAddress",
      "outputs": [
        {
          "internalType": "address",
          "name": "",
          "type": "address"
        }
      ],
      "stateMutability": "view",
      "type": "function"
    },
    {
      "inputs": [],
      "name": "beneficiary",
      "outputs": [
        {
          "internalType": "address",
          "name": "",
          "type": "address"
        }
      ],
      "stateMutability": "view",
      "type": "function"
    },
    {
      "inputs": [],
      "name": "canTransferHoldings",
      "outputs": [
        {
          "internalType": "bool",
          "name": "",
          "type": "bool"
        }
      ],
      "stateMutability": "view",
      "type": "function"
    },
    {
      "inputs": [],
      "name": "canRevertPayment",
      "outputs": [
        {
          "internalType": "bool",
          "name": "",
          "type": "bool"
        }
      ],
      "stateMutability": "view",
      "type": "function"
    },
    {
      "inputs": [],
      "name": "amountToActiveRevertPayments",
      "outputs": [
        {
          "internalType": "uint256",
          "name": "",
          "type": "uint256"
        }
      ],
      "stateMutability": "view",
      "type": "function"
    },
    {
      "inputs": [
        {
          "internalType": "address",
          "name": "p_address",
          "type": "address"
        }
      ],
      "name": "setHoldingsAddress",
      "outputs": [],
      "stateMutability": "nonpayable",
      "type": "function"
    },
    {
      "inputs": [
        {
          "internalType": "uint256",
          "name": "p_amountToken",
          "type": "uint256"
        },
        {
          "internalType": "address",
          "name": "p_buyer",
          "type": "address"
        }
      ],
      "name": "buy",
      "outputs": [],
      "stateMutability": "nonpayable",
      "type": "function"
    },
    {
      "inputs": [
        {
          "internalType": "uint256",
          "name": "p_amountToken",
          "type": "uint256"
        },
        {
          "internalType": "address",
          "name": "p_buyer",
          "type": "address"
        }
      ],
      "name": "buyWithoutPay",
      "outputs": [],
      "stateMutability": "nonpayable",
      "type": "function"
    },
    {
      "inputs": [
        {
          "internalType": "uint256",
          "name": "p_amountToken",
          "type": "uint256"
        },
        {
          "internalType": "address",
          "name": "p_buyer",
          "type": "address"
        }
      ],
      "name": "buyWithFiat",
      "outputs": [],
      "stateMutability": "nonpayable",
      "type": "function"
    },
    {
      "inputs": [
        {
          "internalType": "uint256",
          "name": "p_amountStableCoin",
          "type": "uint256"
        },
        {
          "internalType": "address",
          "name": "p_buyer",
          "type": "address"
        }
      ],
      "name": "reinvest",
      "outputs": [
        {
          "internalType": "bool",
          "name": "",
          "type": "bool"
        }
      ],
      "stateMutability": "nonpayable",
      "type": "function"
    },
    {
      "inputs": [
        {
          "internalType": "uint256",
          "name": "p_priceEUROS",
          "type": "uint256"
        },
        {
          "internalType": "uint256",
          "name": "p_maxTimeHours",
          "type": "uint256"
        },
        {
          "internalType": "uint256",
          "name": "p_minTokensBuy",
          "type": "uint256"
        }
      ],
      "name": "sell",
      "outputs": [],
      "stateMutability": "nonpayable",
      "type": "function"
    },
    {
      "inputs": [
        {
          "internalType": "uint256",
          "name": "p_priceEUROS",
          "type": "uint256"
        }
      ],
      "name": "setPrice",
      "outputs": [],
      "stateMutability": "nonpayable",
      "type": "function"
    },
    {
      "inputs": [
        {
          "internalType": "uint256",
          "name": "p_maxTimeHours",
          "type": "uint256"
        }
      ],
      "name": "setMaxTime",
      "outputs": [],
      "stateMutability": "nonpayable",
      "type": "function"
    },
    {
      "inputs": [
        {
          "internalType": "uint256",
          "name": "p_minTokensBuy",
          "type": "uint256"
        }
      ],
      "name": "setMinTokensBuy",
      "outputs": [],
      "stateMutability": "nonpayable",
      "type": "function"
    },
    {
      "inputs": [
        {
          "internalType": "address",
          "name": "p_origin",
          "type": "address"
        }
      ],
      "name": "activeRevertPayments",
      "outputs": [],
      "stateMutability": "nonpayable",
      "type": "function"
    },
    {
      "inputs": [],
      "name": "revertPayment",
      "outputs": [],
      "stateMutability": "nonpayable",
      "type": "function"
    }
  ],
  "bytecode": "0x60806040523480156200001157600080fd5b506040516200413638038062004136833981810160405281019062000037919062000302565b620000576200004b620001cc60201b60201c565b620001d460201b60201c565b82600260006101000a81548173ffffffffffffffffffffffffffffffffffffffff021916908373ffffffffffffffffffffffffffffffffffffffff16021790555083600360006101000a81548173ffffffffffffffffffffffffffffffffffffffff021916908373ffffffffffffffffffffffffffffffffffffffff160217905550620000ea85620001d460201b60201c565b81600860016101000a81548173ffffffffffffffffffffffffffffffffffffffff021916908373ffffffffffffffffffffffffffffffffffffffff160217905550737d7356bf6ee5cdec22b216581e48ecc700d0497a600960006101000a81548173ffffffffffffffffffffffffffffffffffffffff021916908373ffffffffffffffffffffffffffffffffffffffff16021790555080600a60006101000a81548173ffffffffffffffffffffffffffffffffffffffff021916908373ffffffffffffffffffffffffffffffffffffffff16021790555050505050506200038a565b600033905090565b60008060009054906101000a900473ffffffffffffffffffffffffffffffffffffffff169050816000806101000a81548173ffffffffffffffffffffffffffffffffffffffff021916908373ffffffffffffffffffffffffffffffffffffffff1602179055508173ffffffffffffffffffffffffffffffffffffffff168173ffffffffffffffffffffffffffffffffffffffff167f8be0079c531659141344cd1fd0a4f28419497f9722a3daafe3b4186f6b6457e060405160405180910390a35050565b600080fd5b600073ffffffffffffffffffffffffffffffffffffffff82169050919050565b6000620002ca826200029d565b9050919050565b620002dc81620002bd565b8114620002e857600080fd5b50565b600081519050620002fc81620002d1565b92915050565b600080600080600060a0868803121562000321576200032062000298565b5b60006200033188828901620002eb565b95505060206200034488828901620002eb565b94505060406200035788828901620002eb565b93505060606200036a88828901620002eb565b92505060806200037d88828901620002eb565b9150509295509295909350565b613d9c806200039a6000396000f3fe608060405234801561001057600080fd5b506004361061018e5760003560e01c806391b7f5ed116100de578063c3eed29a11610097578063e36628ff11610071578063e36628ff1461043a578063f2fde38b14610458578063f508fd1514610474578063f551e4e9146104925761018e565b8063c3eed29a146103d2578063d3c9727c14610402578063ddc1d3db1461041e5761018e565b806391b7f5ed1461030d578063927fd69f1461032957806398b777e714610347578063992642e514610363578063a74cb2b214610383578063b4fae980146103b45761018e565b806346b678591161014b578063715018a611610125578063715018a6146102ad5780637b477898146102b75780637deb6025146102d35780638da5cb5b146102ef5761018e565b806346b678591461025557806347da5fe9146102735780636bde3593146102915761018e565b80630c2e304a1461019357806323e830a3146101af5780632f8afe1e146101df57806330ae3d93146101fd57806338af3eed1461021b578063404a011514610239575b600080fd5b6101ad60048036038101906101a89190612a45565b61049c565b005b6101c960048036038101906101c49190612aa8565b6105ed565b6040516101d69190612ae4565b60405180910390f35b6101e76106a7565b6040516101f49190612ae4565b60405180910390f35b61020561074a565b6040516102129190612ae4565b60405180910390f35b6102236107a3565b6040516102309190612b0e565b60405180910390f35b610253600480360381019061024e9190612aa8565b6107cd565b005b61025d610988565b60405161026a9190612b44565b60405180910390f35b61027b61099f565b6040516102889190612ae4565b60405180910390f35b6102ab60048036038101906102a69190612b5f565b6109a9565b005b6102b5610b60565b005b6102d160048036038101906102cc9190612a45565b610be8565b005b6102ed60048036038101906102e89190612b5f565b610eb1565b005b6102f761115d565b6040516103049190612b0e565b60405180910390f35b61032760048036038101906103229190612aa8565b611186565b005b610331611294565b60405161033e9190612ae4565b60405180910390f35b610361600480360381019061035c9190612aa8565b61129e565b005b61036b6113c5565b60405161037a93929190612c2f565b60405180910390f35b61039d60048036038101906103989190612aa8565b611524565b6040516103ab929190612c74565b60405180910390f35b6103bc6115c5565b6040516103c99190612ae4565b60405180910390f35b6103ec60048036038101906103e79190612b5f565b6115d4565b6040516103f99190612b44565b60405180910390f35b61041c60048036038101906104179190612c9d565b611775565b005b61043860048036038101906104339190612b5f565b611a18565b005b610442611be7565b60405161044f9190612b0e565b60405180910390f35b610472600480360381019061046d9190612a45565b611c11565b005b61047c611d08565b6040516104899190612b44565b60405180910390f35b61049a611dbd565b005b6104a461224e565b73ffffffffffffffffffffffffffffffffffffffff166104c261115d565b73ffffffffffffffffffffffffffffffffffffffff1614610518576040517f08c379a000000000000000000000000000000000000000000000000000000000815260040161050f90612d3c565b60405180910390fd5b600073ffffffffffffffffffffffffffffffffffffffff16600160009054906101000a900473ffffffffffffffffffffffffffffffffffffffff1673ffffffffffffffffffffffffffffffffffffffff16146105a9576040517f08c379a00000000000000000000000000000000000000000000000000000000081526004016105a090612da8565b60405180910390fd5b80600160006101000a81548173ffffffffffffffffffffffffffffffffffffffff021916908373ffffffffffffffffffffffffffffffffffffffff16021790555050565b60008060646105fa612256565b6004546106079190612df7565b6106119190612e68565b905062989680816106229190612e68565b831015610664576040517f08c379a000000000000000000000000000000000000000000000000000000000815260040161065b90612ee5565b60405180910390fd5b62989680670de0b6b3a764000062989680836106809190612e68565b8561068b9190612e68565b6106959190612df7565b61069f9190612e68565b915050919050565b6000600160009054906101000a900473ffffffffffffffffffffffffffffffffffffffff1673ffffffffffffffffffffffffffffffffffffffff166370a08231306040518263ffffffff1660e01b81526004016107049190612b0e565b602060405180830381865afa158015610721573d6000803e3d6000fd5b505050506040513d601f19601f820116820180604052508101906107459190612f1a565b905090565b6000806064610757612256565b6004546107649190612df7565b61076e9190612e68565b90506305f5e1006005546402540be400836107899190612e68565b6107939190612df7565b61079d9190612e68565b91505090565b6000600360009054906101000a900473ffffffffffffffffffffffffffffffffffffffff16905090565b6107d561224e565b73ffffffffffffffffffffffffffffffffffffffff166107f361115d565b73ffffffffffffffffffffffffffffffffffffffff1614610849576040517f08c379a000000000000000000000000000000000000000000000000000000000815260040161084090612d3c565b60405180910390fd5b60006005541461088e576040517f08c379a000000000000000000000000000000000000000000000000000000000815260040161088590612f93565b60405180910390fd5b6000600160009054906101000a900473ffffffffffffffffffffffffffffffffffffffff1673ffffffffffffffffffffffffffffffffffffffff166370a08231306040518263ffffffff1660e01b81526004016108eb9190612b0e565b602060405180830381865afa158015610908573d6000803e3d6000fd5b505050506040513d601f19601f8201168201806040525081019061092c9190612f1a565b905080821115801561093e5750600081115b61097d576040517f08c379a000000000000000000000000000000000000000000000000000000000815260040161097490612fff565b60405180910390fd5b816007819055505050565b6000600860009054906101000a900460ff16905090565b6000600654905090565b6109b161224e565b73ffffffffffffffffffffffffffffffffffffffff166109cf61115d565b73ffffffffffffffffffffffffffffffffffffffff1614610a25576040517f08c379a0000000000000000000000000000000000000000000000000000000008152600401610a1c90612d3c565b60405180910390fd5b610a2f8282612502565b600160009054906101000a900473ffffffffffffffffffffffffffffffffffffffff1673ffffffffffffffffffffffffffffffffffffffff1663a01652ed83836040518363ffffffff1660e01b8152600401610a8c92919061301f565b6020604051808303816000875af1158015610aab573d6000803e3d6000fd5b505050506040513d601f19601f82011682018060405250810190610acf9190613074565b610b0e576040517f08c379a0000000000000000000000000000000000000000000000000000000008152600401610b05906130ed565b60405180910390fd5b8073ffffffffffffffffffffffffffffffffffffffff167fe83ebea23ad7885b593fb30063d2a7d728f48024eaccaf1a5758d72d57d0471c83604051610b549190612ae4565b60405180910390a25050565b610b6861224e565b73ffffffffffffffffffffffffffffffffffffffff16610b8661115d565b73ffffffffffffffffffffffffffffffffffffffff1614610bdc576040517f08c379a0000000000000000000000000000000000000000000000000000000008152600401610bd390612d3c565b60405180910390fd5b610be66000612607565b565b610bf061224e565b73ffffffffffffffffffffffffffffffffffffffff16610c0e61115d565b73ffffffffffffffffffffffffffffffffffffffff1614610c64576040517f08c379a0000000000000000000000000000000000000000000000000000000008152600401610c5b90612d3c565b60405180910390fd5b610c6c611d08565b158015610c7a575042600654105b610cb9576040517f08c379a0000000000000000000000000000000000000000000000000000000008152600401610cb090613159565b60405180910390fd5b6001600860006101000a81548160ff02191690831515021790555060006064610ce0612256565b600454610ced9190612df7565b610cf79190612e68565b90506000600160009054906101000a900473ffffffffffffffffffffffffffffffffffffffff1673ffffffffffffffffffffffffffffffffffffffff1663c09448376040518163ffffffff1660e01b8152600401602060405180830381865afa158015610d68573d6000803e3d6000fd5b505050506040513d601f19601f82011682018060405250810190610d8c9190612f1a565b600554610d999190613179565b905060006305f5e100826402540be40085610db49190612e68565b610dbe9190612df7565b610dc89190612e68565b9050600260009054906101000a900473ffffffffffffffffffffffffffffffffffffffff1673ffffffffffffffffffffffffffffffffffffffff166323b872dd8530846040518463ffffffff1660e01b8152600401610e29939291906131ad565b6020604051808303816000875af1158015610e48573d6000803e3d6000fd5b505050506040513d601f19601f82011682018060405250810190610e6c9190613074565b610eab576040517f08c379a0000000000000000000000000000000000000000000000000000000008152600401610ea290613230565b60405180910390fd5b50505050565b610eba826126cb565b60006064610ec6612256565b600454610ed39190612df7565b610edd9190612e68565b905060006305f5e100846402540be40084610ef89190612e68565b610f029190612df7565b610f0c9190612e68565b90508360056000828254610f209190613250565b92505081905550600260009054906101000a900473ffffffffffffffffffffffffffffffffffffffff1673ffffffffffffffffffffffffffffffffffffffff166323b872dd84600360009054906101000a900473ffffffffffffffffffffffffffffffffffffffff16846040518463ffffffff1660e01b8152600401610fa8939291906131ad565b6020604051808303816000875af1158015610fc7573d6000803e3d6000fd5b505050506040513d601f19601f82011682018060405250810190610feb9190613074565b61102a576040517f08c379a000000000000000000000000000000000000000000000000000000000815260040161102190613230565b60405180910390fd5b600160009054906101000a900473ffffffffffffffffffffffffffffffffffffffff1673ffffffffffffffffffffffffffffffffffffffff1663a9059cbb84866040518363ffffffff1660e01b8152600401611087929190613284565b6020604051808303816000875af11580156110a6573d6000803e3d6000fd5b505050506040513d601f19601f820116820180604052508101906110ca9190613074565b611109576040517f08c379a0000000000000000000000000000000000000000000000000000000008152600401611100906132f9565b60405180910390fd5b8273ffffffffffffffffffffffffffffffffffffffff167f180d3fbba44c623935f6f1ed09a5e5df48457d831468d73631bc2c934fa2785a8560405161114f9190612ae4565b60405180910390a250505050565b60008060009054906101000a900473ffffffffffffffffffffffffffffffffffffffff16905090565b61118e61224e565b73ffffffffffffffffffffffffffffffffffffffff166111ac61115d565b73ffffffffffffffffffffffffffffffffffffffff1614611202576040517f08c379a00000000000000000000000000000000000000000000000000000000081526004016111f990612d3c565b60405180910390fd5b600060055414611247576040517f08c379a000000000000000000000000000000000000000000000000000000000815260040161123e90612f93565b60405180910390fd5b6000811161128a576040517f08c379a000000000000000000000000000000000000000000000000000000000815260040161128190613365565b60405180910390fd5b8060048190555050565b6000600554905090565b6112a661224e565b73ffffffffffffffffffffffffffffffffffffffff166112c461115d565b73ffffffffffffffffffffffffffffffffffffffff161461131a576040517f08c379a000000000000000000000000000000000000000000000000000000000815260040161131190612d3c565b60405180910390fd5b60006005541461135f576040517f08c379a000000000000000000000000000000000000000000000000000000000815260040161135690612f93565b60405180910390fd5b60018110156113a3576040517f08c379a000000000000000000000000000000000000000000000000000000000815260040161139a906133d1565b60405180910390fd5b610e10816113b19190612df7565b426113bc9190613250565b60068190555050565b6000606080600260009054906101000a900473ffffffffffffffffffffffffffffffffffffffff16600260009054906101000a900473ffffffffffffffffffffffffffffffffffffffff1673ffffffffffffffffffffffffffffffffffffffff166306fdde036040518163ffffffff1660e01b8152600401600060405180830381865afa15801561145a573d6000803e3d6000fd5b505050506040513d6000823e3d601f19601f820116820180604052508101906114839190613517565b600260009054906101000a900473ffffffffffffffffffffffffffffffffffffffff1673ffffffffffffffffffffffffffffffffffffffff166395d89b416040518163ffffffff1660e01b8152600401600060405180830381865afa1580156114f0573d6000803e3d6000fd5b505050506040513d6000823e3d601f19601f820116820180604052508101906115199190613517565b925092509250909192565b60008060006004540361153d57600080915091506115c0565b60006064611549612256565b6004546115569190612df7565b6115609190612e68565b905060006305f5e100856402540be4008461157b9190612e68565b6115859190612df7565b61158f9190612e68565b90506000670de0b6b3a7640000866004546115aa9190612df7565b6115b49190612e68565b90508082945094505050505b915091565b60006115cf612892565b905090565b6000600a60009054906101000a900473ffffffffffffffffffffffffffffffffffffffff1673ffffffffffffffffffffffffffffffffffffffff163373ffffffffffffffffffffffffffffffffffffffff1614611666576040517f08c379a000000000000000000000000000000000000000000000000000000000815260040161165d906135ac565b60405180910390fd5b600083116116a9576040517f08c379a00000000000000000000000000000000000000000000000000000000081526004016116a090613618565b60405180910390fd5b600060646116b5612256565b6004546116c29190612df7565b6116cc9190612e68565b905060006402540be400670de0b6b3a76400006402540be400846116f09190612e68565b876116fb9190612e68565b6117059190612df7565b61170f9190612e68565b905061171b8185612502565b8373ffffffffffffffffffffffffffffffffffffffff167fac8368e300d660f7d3893b08f706080d2c689ce55592ef1d57373b52069b3a09826040516117619190612ae4565b60405180910390a260019250505092915050565b61177d61224e565b73ffffffffffffffffffffffffffffffffffffffff1661179b61115d565b73ffffffffffffffffffffffffffffffffffffffff16146117f1576040517f08c379a00000000000000000000000000000000000000000000000000000000081526004016117e890612d3c565b60405180910390fd5b6000600160009054906101000a900473ffffffffffffffffffffffffffffffffffffffff1673ffffffffffffffffffffffffffffffffffffffff166370a08231306040518263ffffffff1660e01b815260040161184e9190612b0e565b602060405180830381865afa15801561186b573d6000803e3d6000fd5b505050506040513d601f19601f8201168201806040525081019061188f9190612f1a565b90506000600554146118d6576040517f08c379a00000000000000000000000000000000000000000000000000000000081526004016118cd90612f93565b60405180910390fd5b60008411611919576040517f08c379a000000000000000000000000000000000000000000000000000000000815260040161191090613365565b60405180910390fd5b600183101561195d576040517f08c379a0000000000000000000000000000000000000000000000000000000008152600401611954906133d1565b60405180910390fd5b80821115801561196d5750600081115b6119ac576040517f08c379a00000000000000000000000000000000000000000000000000000000081526004016119a390612fff565b60405180910390fd5b8360048190555081600781905550610e10836119c89190612df7565b426119d39190613250565b6006819055507fb24085bf4eb1d548643e43cae5e657761d74bd980dd4d4c73033b0fc180e50068185604051611a0a929190612c74565b60405180910390a150505050565b611a2061224e565b73ffffffffffffffffffffffffffffffffffffffff16611a3e61115d565b73ffffffffffffffffffffffffffffffffffffffff1614611a94576040517f08c379a0000000000000000000000000000000000000000000000000000000008152600401611a8b90612d3c565b60405180910390fd5b611a9d826126cb565b8160056000828254611aaf9190613250565b92505081905550600160009054906101000a900473ffffffffffffffffffffffffffffffffffffffff1673ffffffffffffffffffffffffffffffffffffffff1663a9059cbb82846040518363ffffffff1660e01b8152600401611b13929190613284565b6020604051808303816000875af1158015611b32573d6000803e3d6000fd5b505050506040513d601f19601f82011682018060405250810190611b569190613074565b611b95576040517f08c379a0000000000000000000000000000000000000000000000000000000008152600401611b8c906132f9565b60405180910390fd5b8073ffffffffffffffffffffffffffffffffffffffff167f180d3fbba44c623935f6f1ed09a5e5df48457d831468d73631bc2c934fa2785a83604051611bdb9190612ae4565b60405180910390a25050565b6000600160009054906101000a900473ffffffffffffffffffffffffffffffffffffffff16905090565b611c1961224e565b73ffffffffffffffffffffffffffffffffffffffff16611c3761115d565b73ffffffffffffffffffffffffffffffffffffffff1614611c8d576040517f08c379a0000000000000000000000000000000000000000000000000000000008152600401611c8490612d3c565b60405180910390fd5b600073ffffffffffffffffffffffffffffffffffffffff168173ffffffffffffffffffffffffffffffffffffffff1603611cfc576040517f08c379a0000000000000000000000000000000000000000000000000000000008152600401611cf3906136aa565b60405180910390fd5b611d0581612607565b50565b600080600160009054906101000a900473ffffffffffffffffffffffffffffffffffffffff1673ffffffffffffffffffffffffffffffffffffffff166370a08231306040518263ffffffff1660e01b8152600401611d669190612b0e565b602060405180830381865afa158015611d83573d6000803e3d6000fd5b505050506040513d601f19601f82011682018060405250810190611da79190612f1a565b03611db55760019050611dba565b600090505b90565b600860009054906101000a900460ff16611e0c576040517f08c379a0000000000000000000000000000000000000000000000000000000008152600401611e0390613159565b60405180910390fd5b6000600160009054906101000a900473ffffffffffffffffffffffffffffffffffffffff1673ffffffffffffffffffffffffffffffffffffffff166370a08231336040518263ffffffff1660e01b8152600401611e699190612b0e565b602060405180830381865afa158015611e86573d6000803e3d6000fd5b505050506040513d601f19601f82011682018060405250810190611eaa9190612f1a565b905060008111611eef576040517f08c379a0000000000000000000000000000000000000000000000000000000008152600401611ee690613716565b60405180910390fd5b600160009054906101000a900473ffffffffffffffffffffffffffffffffffffffff1673ffffffffffffffffffffffffffffffffffffffff166323b872dd3330846040518463ffffffff1660e01b8152600401611f4e939291906131ad565b6020604051808303816000875af1158015611f6d573d6000803e3d6000fd5b505050506040513d601f19601f82011682018060405250810190611f919190613074565b611fd0576040517f08c379a0000000000000000000000000000000000000000000000000000000008152600401611fc7906132f9565b60405180910390fd5b6000600160009054906101000a900473ffffffffffffffffffffffffffffffffffffffff1673ffffffffffffffffffffffffffffffffffffffff1663c09448376040518163ffffffff1660e01b8152600401602060405180830381865afa15801561203f573d6000803e3d6000fd5b505050506040513d601f19601f820116820180604052508101906120639190612f1a565b6005546120709190613179565b90506000600260009054906101000a900473ffffffffffffffffffffffffffffffffffffffff1673ffffffffffffffffffffffffffffffffffffffff166370a08231306040518263ffffffff1660e01b81526004016120cf9190612b0e565b602060405180830381865afa1580156120ec573d6000803e3d6000fd5b505050506040513d601f19601f820116820180604052508101906121109190612f1a565b82670de0b6b3a7640000856121259190612df7565b61212f9190612e68565b6121399190612df7565b9050670de0b6b3a76400008161214f9190612e68565b905082600560008282546121639190613179565b92505081905550600260009054906101000a900473ffffffffffffffffffffffffffffffffffffffff1673ffffffffffffffffffffffffffffffffffffffff1663a9059cbb33836040518363ffffffff1660e01b81526004016121c7929190613284565b6020604051808303816000875af11580156121e6573d6000803e3d6000fd5b505050506040513d601f19601f8201168201806040525081019061220a9190613074565b612249576040517f08c379a000000000000000000000000000000000000000000000000000000000815260040161224090613782565b60405180910390fd5b505050565b600033905090565b6000806012600a61226791906138d5565b90506000600960009054906101000a900473ffffffffffffffffffffffffffffffffffffffff1673ffffffffffffffffffffffffffffffffffffffff1663feaf968c6040518163ffffffff1660e01b815260040160a060405180830381865afa1580156122d8573d6000803e3d6000fd5b505050506040513d601f19601f820116820180604052508101906122fc9190613998565b5050509150506000600960009054906101000a900473ffffffffffffffffffffffffffffffffffffffff1673ffffffffffffffffffffffffffffffffffffffff1663313ce5676040518163ffffffff1660e01b8152600401602060405180830381865afa158015612371573d6000803e3d6000fd5b505050506040513d601f19601f820116820180604052508101906123959190613a4c565b90506123a382826012612950565b91506000600860019054906101000a900473ffffffffffffffffffffffffffffffffffffffff1673ffffffffffffffffffffffffffffffffffffffff1663feaf968c6040518163ffffffff1660e01b815260040160a060405180830381865afa158015612414573d6000803e3d6000fd5b505050506040513d601f19601f820116820180604052508101906124389190613998565b5050509150506000600860019054906101000a900473ffffffffffffffffffffffffffffffffffffffff1673ffffffffffffffffffffffffffffffffffffffff1663313ce5676040518163ffffffff1660e01b8152600401602060405180830381865afa1580156124ad573d6000803e3d6000fd5b505050506040513d601f19601f820116820180604052508101906124d19190613a4c565b90506124df82826012612950565b91508185856124ee9190613a79565b6124f89190613af1565b9550505050505090565b61250b826126cb565b816005600082825461251d9190613250565b92505081905550600160009054906101000a900473ffffffffffffffffffffffffffffffffffffffff1673ffffffffffffffffffffffffffffffffffffffff1663a9059cbb82846040518363ffffffff1660e01b8152600401612581929190613284565b6020604051808303816000875af11580156125a0573d6000803e3d6000fd5b505050506040513d601f19601f820116820180604052508101906125c49190613074565b612603576040517f08c379a00000000000000000000000000000000000000000000000000000000081526004016125fa906132f9565b60405180910390fd5b5050565b60008060009054906101000a900473ffffffffffffffffffffffffffffffffffffffff169050816000806101000a81548173ffffffffffffffffffffffffffffffffffffffff021916908373ffffffffffffffffffffffffffffffffffffffff1602179055508173ffffffffffffffffffffffffffffffffffffffff168173ffffffffffffffffffffffffffffffffffffffff167f8be0079c531659141344cd1fd0a4f28419497f9722a3daafe3b4186f6b6457e060405160405180910390a35050565b6000600160009054906101000a900473ffffffffffffffffffffffffffffffffffffffff1673ffffffffffffffffffffffffffffffffffffffff166370a08231306040518263ffffffff1660e01b81526004016127289190612b0e565b602060405180830381865afa158015612745573d6000803e3d6000fd5b505050506040513d601f19601f820116820180604052508101906127699190612f1a565b90504260065410156127b0576040517f08c379a00000000000000000000000000000000000000000000000000000000081526004016127a790613ba7565b60405180910390fd5b6000600454116127f5576040517f08c379a00000000000000000000000000000000000000000000000000000000081526004016127ec90613c13565b60405180910390fd5b8082111580156128055750600081115b612844576040517f08c379a000000000000000000000000000000000000000000000000000000000815260040161283b90613ca5565b60405180910390fd5b61284c612892565b82101561288e576040517f08c379a000000000000000000000000000000000000000000000000000000000815260040161288590613d11565b60405180910390fd5b5050565b600080600160009054906101000a900473ffffffffffffffffffffffffffffffffffffffff1673ffffffffffffffffffffffffffffffffffffffff166370a08231306040518263ffffffff1660e01b81526004016128f09190612b0e565b602060405180830381865afa15801561290d573d6000803e3d6000fd5b505050506040513d601f19601f820116820180604052508101906129319190612f1a565b9050600754811015612946578091505061294d565b6007549150505b90565b60008160ff168360ff16101561298d57828261296c9190613d31565b60ff16600a61297b91906138d5565b846129869190613a79565b90506129cc565b8160ff168360ff1611156129c85781836129a79190613d31565b60ff16600a6129b691906138d5565b846129c19190613af1565b90506129cc565b8390505b9392505050565b6000604051905090565b600080fd5b600080fd5b600073ffffffffffffffffffffffffffffffffffffffff82169050919050565b6000612a12826129e7565b9050919050565b612a2281612a07565b8114612a2d57600080fd5b50565b600081359050612a3f81612a19565b92915050565b600060208284031215612a5b57612a5a6129dd565b5b6000612a6984828501612a30565b91505092915050565b6000819050919050565b612a8581612a72565b8114612a9057600080fd5b50565b600081359050612aa281612a7c565b92915050565b600060208284031215612abe57612abd6129dd565b5b6000612acc84828501612a93565b91505092915050565b612ade81612a72565b82525050565b6000602082019050612af96000830184612ad5565b92915050565b612b0881612a07565b82525050565b6000602082019050612b236000830184612aff565b92915050565b60008115159050919050565b612b3e81612b29565b82525050565b6000602082019050612b596000830184612b35565b92915050565b60008060408385031215612b7657612b756129dd565b5b6000612b8485828601612a93565b9250506020612b9585828601612a30565b9150509250929050565b600081519050919050565b600082825260208201905092915050565b60005b83811015612bd9578082015181840152602081019050612bbe565b60008484015250505050565b6000601f19601f8301169050919050565b6000612c0182612b9f565b612c0b8185612baa565b9350612c1b818560208601612bbb565b612c2481612be5565b840191505092915050565b6000606082019050612c446000830186612aff565b8181036020830152612c568185612bf6565b90508181036040830152612c6a8184612bf6565b9050949350505050565b6000604082019050612c896000830185612ad5565b612c966020830184612ad5565b9392505050565b600080600060608486031215612cb657612cb56129dd565b5b6000612cc486828701612a93565b9350506020612cd586828701612a93565b9250506040612ce686828701612a93565b9150509250925092565b7f4f776e61626c653a2063616c6c6572206973206e6f7420746865206f776e6572600082015250565b6000612d26602083612baa565b9150612d3182612cf0565b602082019050919050565b60006020820190508181036000830152612d5581612d19565b9050919050565b7f416c7265616479206861732076616c7565000000000000000000000000000000600082015250565b6000612d92601183612baa565b9150612d9d82612d5c565b602082019050919050565b60006020820190508181036000830152612dc181612d85565b9050919050565b7f4e487b7100000000000000000000000000000000000000000000000000000000600052601160045260246000fd5b6000612e0282612a72565b9150612e0d83612a72565b9250828202612e1b81612a72565b91508282048414831517612e3257612e31612dc8565b5b5092915050565b7f4e487b7100000000000000000000000000000000000000000000000000000000600052601260045260246000fd5b6000612e7382612a72565b9150612e7e83612a72565b925082612e8e57612e8d612e39565b5b828204905092915050565b7f496e73756666696369656e7420746f2062757900000000000000000000000000600082015250565b6000612ecf601383612baa565b9150612eda82612e99565b602082019050919050565b60006020820190508181036000830152612efe81612ec2565b9050919050565b600081519050612f1481612a7c565b92915050565b600060208284031215612f3057612f2f6129dd565b5b6000612f3e84828501612f05565b91505092915050565b7f54686572652061726520616c72656164792073616c6573000000000000000000600082015250565b6000612f7d601783612baa565b9150612f8882612f47565b602082019050919050565b60006020820190508181036000830152612fac81612f70565b9050919050565b7f4572726f7220616d6f756e7420746f6b656e7300000000000000000000000000600082015250565b6000612fe9601383612baa565b9150612ff482612fb3565b602082019050919050565b6000602082019050818103600083015261301881612fdc565b9050919050565b60006040820190506130346000830185612ad5565b6130416020830184612aff565b9392505050565b61305181612b29565b811461305c57600080fd5b50565b60008151905061306e81613048565b92915050565b60006020828403121561308a576130896129dd565b5b60006130988482850161305f565b91505092915050565b7f4572726f7220696e6372656d656e740000000000000000000000000000000000600082015250565b60006130d7600f83612baa565b91506130e2826130a1565b602082019050919050565b60006020820190508181036000830152613106816130ca565b9050919050565b7f4f6e2073616c6500000000000000000000000000000000000000000000000000600082015250565b6000613143600783612baa565b915061314e8261310d565b602082019050919050565b6000602082019050818103600083015261317281613136565b9050919050565b600061318482612a72565b915061318f83612a72565b92508282039050818111156131a7576131a6612dc8565b5b92915050565b60006060820190506131c26000830186612aff565b6131cf6020830185612aff565b6131dc6040830184612ad5565b949350505050565b7f4572726f72207472616e7366657220535441424c4520434f494e000000000000600082015250565b600061321a601a83612baa565b9150613225826131e4565b602082019050919050565b600060208201905081810360008301526132498161320d565b9050919050565b600061325b82612a72565b915061326683612a72565b925082820190508082111561327e5761327d612dc8565b5b92915050565b60006040820190506132996000830185612aff565b6132a66020830184612ad5565b9392505050565b7f4572726f72207472616e7366657220746f6b656e730000000000000000000000600082015250565b60006132e3601583612baa565b91506132ee826132ad565b602082019050919050565b60006020820190508181036000830152613312816132d6565b9050919050565b7f496e73756666696369656e742070726963650000000000000000000000000000600082015250565b600061334f601283612baa565b915061335a82613319565b602082019050919050565b6000602082019050818103600083015261337e81613342565b9050919050565b7f496e73756666696369656e742074696d65000000000000000000000000000000600082015250565b60006133bb601183612baa565b91506133c682613385565b602082019050919050565b600060208201905081810360008301526133ea816133ae565b9050919050565b600080fd5b600080fd5b7f4e487b7100000000000000000000000000000000000000000000000000000000600052604160045260246000fd5b61343382612be5565b810181811067ffffffffffffffff82111715613452576134516133fb565b5b80604052505050565b60006134656129d3565b9050613471828261342a565b919050565b600067ffffffffffffffff821115613491576134906133fb565b5b61349a82612be5565b9050602081019050919050565b60006134ba6134b584613476565b61345b565b9050828152602081018484840111156134d6576134d56133f6565b5b6134e1848285612bbb565b509392505050565b600082601f8301126134fe576134fd6133f1565b5b815161350e8482602086016134a7565b91505092915050565b60006020828403121561352d5761352c6129dd565b5b600082015167ffffffffffffffff81111561354b5761354a6129e2565b5b613557848285016134e9565b91505092915050565b7f4572726f72206f726967696e0000000000000000000000000000000000000000600082015250565b6000613596600c83612baa565b91506135a182613560565b602082019050919050565b600060208201905081810360008301526135c581613589565b9050919050565b7f4572726f7220616d6f756e7420737461626c6520636f696e0000000000000000600082015250565b6000613602601883612baa565b915061360d826135cc565b602082019050919050565b60006020820190508181036000830152613631816135f5565b9050919050565b7f4f776e61626c653a206e6577206f776e657220697320746865207a65726f206160008201527f6464726573730000000000000000000000000000000000000000000000000000602082015250565b6000613694602683612baa565b915061369f82613638565b604082019050919050565b600060208201905081810360008301526136c381613687565b9050919050565b7f4e6f7420746f6b656e7300000000000000000000000000000000000000000000600082015250565b6000613700600a83612baa565b915061370b826136ca565b602082019050919050565b6000602082019050818103600083015261372f816136f3565b9050919050565b7f4572726f72207472616e7366657220537461626c6520436f696e000000000000600082015250565b600061376c601a83612baa565b915061377782613736565b602082019050919050565b6000602082019050818103600083015261379b8161375f565b9050919050565b60008160011c9050919050565b6000808291508390505b60018511156137f9578086048111156137d5576137d4612dc8565b5b60018516156137e45780820291505b80810290506137f2856137a2565b94506137b9565b94509492505050565b60008261381257600190506138ce565b8161382057600090506138ce565b816001811461383657600281146138405761386f565b60019150506138ce565b60ff84111561385257613851612dc8565b5b8360020a91508482111561386957613868612dc8565b5b506138ce565b5060208310610133831016604e8410600b84101617156138a45782820a90508381111561389f5761389e612dc8565b5b6138ce565b6138b184848460016137af565b925090508184048111156138c8576138c7612dc8565b5b81810290505b9392505050565b60006138e082612a72565b91506138eb83612a72565b92506139187fffffffffffffffffffffffffffffffffffffffffffffffffffffffffffffffff8484613802565b905092915050565b600069ffffffffffffffffffff82169050919050565b61393f81613920565b811461394a57600080fd5b50565b60008151905061395c81613936565b92915050565b6000819050919050565b61397581613962565b811461398057600080fd5b50565b6000815190506139928161396c565b92915050565b600080600080600060a086880312156139b4576139b36129dd565b5b60006139c28882890161394d565b95505060206139d388828901613983565b94505060406139e488828901612f05565b93505060606139f588828901612f05565b9250506080613a068882890161394d565b9150509295509295909350565b600060ff82169050919050565b613a2981613a13565b8114613a3457600080fd5b50565b600081519050613a4681613a20565b92915050565b600060208284031215613a6257613a616129dd565b5b6000613a7084828501613a37565b91505092915050565b6000613a8482613962565b9150613a8f83613962565b9250828202613a9d81613962565b91507f80000000000000000000000000000000000000000000000000000000000000008414600084121615613ad557613ad4612dc8565b5b8282058414831517613aea57613ae9612dc8565b5b5092915050565b6000613afc82613962565b9150613b0783613962565b925082613b1757613b16612e39565b5b600160000383147f800000000000000000000000000000000000000000000000000000000000000083141615613b5057613b4f612dc8565b5b828205905092915050565b7f53616c6573207265766572746564206f7220636c6f7365640000000000000000600082015250565b6000613b91601883612baa565b9150613b9c82613b5b565b602082019050919050565b60006020820190508181036000830152613bc081613b84565b9050919050565b7f4572726f72207072696365000000000000000000000000000000000000000000600082015250565b6000613bfd600b83612baa565b9150613c0882613bc7565b602082019050919050565b60006020820190508181036000830152613c2c81613bf0565b9050919050565b7f436f6e74726163742068617320696e73756666696369656e742062616c616e6360008201527f6520746f2073656c6c0000000000000000000000000000000000000000000000602082015250565b6000613c8f602983612baa565b9150613c9a82613c33565b604082019050919050565b60006020820190508181036000830152613cbe81613c82565b9050919050565b7f4275792062656c6f7720746865206d696e696d756d0000000000000000000000600082015250565b6000613cfb601583612baa565b9150613d0682613cc5565b602082019050919050565b60006020820190508181036000830152613d2a81613cee565b9050919050565b6000613d3c82613a13565b9150613d4783613a13565b9250828203905060ff811115613d6057613d5f612dc8565b5b9291505056fea26469706673582212204d7c978f95a93da8a077e7c6b89a6b71968501be5b08bf9f212907b90399b3c164736f6c63430008110033",
  "immutableReferences": {},
  "source": "// SPDX-License-Identifier: MIT\npragma solidity ^0.8.17;\n\nimport \"@openzeppelin/contracts/access/Ownable.sol\";\nimport \"@openzeppelin/contracts/token/ERC20/IERC20.sol\";\nimport \"@openzeppelin/contracts/token/ERC20/extensions/IERC20Metadata.sol\";\nimport \"@chainlink/contracts/src/v0.8/interfaces/AggregatorV3Interface.sol\";\n\nimport \"../interfaces/ISELLER.sol\";\nimport \"../interfaces/IDIVIDENDS.sol\";\nimport \"../interfaces/ITOKENHOLDINGS.sol\";\n\ncontract Seller is ISELLER, Ownable {\n    //////////////////////////////////////////////////////////////////////////////////////////////////\n    // State\n    //////////////////////////////////////////////////////////////////////////////////////////////////\n\n    address private s_contractHoldings; \n    address private s_contractStableCoin;\n    address private s_beneficiaryPaymets;\n\n    uint256 private s_priceTokenEUROS;\n    uint256 private s_tokenAmountSold;\n    uint256 private s_maxTime;\n    uint256 private s_minTokensBuy;\n\n    bool private s_activeRevertPayments;\n\n    AggregatorV3Interface internal S_PRICE_FEED_STABLECOIN_USD;\n    AggregatorV3Interface internal S_PRICE_FEED_EUR_USD;\n\n    address private s_dividends;\n\n    //////////////////////////////////////////////////////////////////////////////////////////////////\n    // Constructor\n    //////////////////////////////////////////////////////////////////////////////////////////////////\n\n    constructor(address p_manager, address p_beneficiary, address p_stableCoin, address p_aggregatorStableCoinDollar, address p_dividends) {\n        s_contractStableCoin = p_stableCoin;\n        s_beneficiaryPaymets = p_beneficiary;\n        _transferOwnership(p_manager);\n\n        // STABLE COIN / USD\n        S_PRICE_FEED_STABLECOIN_USD = AggregatorV3Interface(p_aggregatorStableCoinDollar); \n        // EURO / USD\n        S_PRICE_FEED_EUR_USD = AggregatorV3Interface(0x7d7356bF6Ee5CDeC22B216581E48eCC700D0497A);\n\n        s_dividends = p_dividends;\n    }\n\n    //////////////////////////////////////////////////////////////////////////////////////////////////\n    // Public functions\n    ////////////////////////////////////////////////////////////////////////////////////////////////// \n\n    // => View functions\n    function getMaxTime() public view override returns(uint256) {\n        return (s_maxTime);\n    }\n\n    function priceAmountToken(uint256 p_amountToken) public view override returns(uint256, uint256) { \n        if (s_priceTokenEUROS == 0) { return (0, 0); }\n\n        uint256 amountStableCoinOneToken = (s_priceTokenEUROS * uint256(_getPriceOneEuroStableCoin())) / 100;\n        uint256 amountStableCoinPay = ((amountStableCoinOneToken / 10000000000) * p_amountToken) / (1 ether / 10000000000);\n        uint256 amountEurPay = (s_priceTokenEUROS * p_amountToken) / 1 ether;\n\n        return (amountEurPay, amountStableCoinPay);\n    }\n\n    function amountTokenStableCoin(uint256 p_amountStableCoin) public view override returns(uint256) {\n        uint256 priceOneTokenStableCoin = (s_priceTokenEUROS * uint256(_getPriceOneEuroStableCoin())) / 100;\n        require(p_amountStableCoin >= priceOneTokenStableCoin / 10000000, \"Insufficient to buy\");\n        return ((p_amountStableCoin / (priceOneTokenStableCoin / 10000000)) * 1 ether) / 10000000;\n    } \n\n    function minAmountToBuy() public view override returns(uint256) { \n        return _minAmountToBuy();\n    }\n\n    function tokenAmountSold() public view override returns(uint256) {\n        return s_tokenAmountSold;\n    }\n\n    function balanceSeller() public view override returns(uint256) { \n        return IERC20(s_contractHoldings).balanceOf(address(this));\n    }\n\n    function stableCoin() public view override returns(address, string memory, string memory) {\n        return (\n            s_contractStableCoin,\n            IERC20Metadata(s_contractStableCoin).name(),\n            IERC20Metadata(s_contractStableCoin).symbol()\n        ); \n    }\n\n    function holdingsAddress() public view override returns(address) {\n        return s_contractHoldings;\n    }\n\n    function beneficiary() public view override returns(address) { \n        return s_beneficiaryPaymets; \n    }\n\n    function canTransferHoldings() public view override returns(bool) { \n        if (IERC20(s_contractHoldings).balanceOf(address(this)) == 0) { \n            return true; \n        }\n\n        return false;\n    }\n\n    function canRevertPayment() public view override returns(bool) { \n        return s_activeRevertPayments; \n    }\n\n    function amountToActiveRevertPayments() public view override returns(uint256) { \n        uint256 priceOneTokenStableCoin = (s_priceTokenEUROS * uint256(_getPriceOneEuroStableCoin())) / 100;\n        return ((priceOneTokenStableCoin / 10000000000) * s_tokenAmountSold) / (1 ether / 10000000000);\n    }\n\n    // => Set functions\n\n    function setHoldingsAddress(address p_address) public override onlyOwner {\n        require(s_contractHoldings == address(0), \"Already has value\");\n\n        s_contractHoldings = p_address;\n    }\n    \n    function buy(uint256 p_amountToken, address p_buyer) public override {\n        _requerimentsBuyChecking(p_amountToken);\n\n        uint256 priceOneTokenStableCoin = (s_priceTokenEUROS * uint256(_getPriceOneEuroStableCoin())) / 100;\n        uint256 amountStableCoin = ((priceOneTokenStableCoin / 10000000000) * p_amountToken) / (1 ether / 10000000000);\n\n        s_tokenAmountSold += p_amountToken;\n\n        require(IERC20(s_contractStableCoin).transferFrom(p_buyer, s_beneficiaryPaymets, amountStableCoin), \"Error transfer STABLE COIN\");\n        require(IERC20(s_contractHoldings).transfer(p_buyer, p_amountToken), \"Error transfer tokens\");\n\n        emit newSale(p_buyer, p_amountToken);\n    }\n\n    function buyWithoutPay(uint256 p_amountToken, address p_buyer) public override onlyOwner {\n        _requerimentsBuyChecking(p_amountToken);\n\n        s_tokenAmountSold += p_amountToken;\n\n        require(IERC20(s_contractHoldings).transfer(p_buyer, p_amountToken), \"Error transfer tokens\");\n\n        emit newSale(p_buyer, p_amountToken);\n    } \n\n    function buyWithFiat(uint256 p_amountToken, address p_buyer) public override onlyOwner { \n        _reinvestOrCompany(p_amountToken, p_buyer);\n\n        require(ITOKENHOLDINGS(s_contractHoldings).incrementAmountBuyWithFiat(p_amountToken, p_buyer), \"Error increment\");\n\n        emit newSaleFiat(p_buyer, p_amountToken); \n    } \n\n    function reinvest(uint256 p_amountStableCoin, address p_buyer) public override returns(bool) {\n        require(msg.sender == s_dividends, \"Error origin\");\n        require(p_amountStableCoin > 0, \"Error amount stable coin\");\n\n        uint256 priceOneTokenStableCoin = (s_priceTokenEUROS * uint256(_getPriceOneEuroStableCoin())) / 100;\n        uint256 amountToken = ((p_amountStableCoin / (priceOneTokenStableCoin / 10000000000)) * 1 ether) / 10000000000;\n\n        _reinvestOrCompany(amountToken, p_buyer);\n\n        emit newReinvestment(p_buyer, amountToken);\n\n        return true;\n    } \n\n    // price EUR => 2 DECIMALES; EJM: 23,04 = 2304; EJM: 0.05 = 0005\n    function sell(uint256 p_priceEUROS, uint256 p_maxTimeHours, uint256 p_minTokensBuy) public onlyOwner override { \n        uint256 balance = IERC20(s_contractHoldings).balanceOf(address(this));\n\n        require(s_tokenAmountSold == 0, \"There are already sales\");\n        require(p_priceEUROS > 0, \"Insufficient price\");\n        require(p_maxTimeHours >= 1, \"Insufficient time\");\n        require(p_minTokensBuy <= balance && balance > 0, \"Error amount tokens\");\n\n        s_priceTokenEUROS = p_priceEUROS;\n        s_minTokensBuy = p_minTokensBuy; \n        s_maxTime = block.timestamp + (p_maxTimeHours * 1 hours);         \n\n        emit toSell(balance, p_priceEUROS);\n    }\n\n    function setPrice(uint256 p_priceEUROS) public onlyOwner override { \n        require(s_tokenAmountSold == 0, \"There are already sales\");\n        require(p_priceEUROS > 0, \"Insufficient price\");\n        \n        s_priceTokenEUROS = p_priceEUROS;\n    }\n\n    function setMaxTime(uint256 p_maxTimeHours) public onlyOwner override {\n        require(s_tokenAmountSold == 0, \"There are already sales\");\n        require(p_maxTimeHours >= 1, \"Insufficient time\");\n        \n        s_maxTime = block.timestamp + (p_maxTimeHours * 1 hours);   \n    }\n\n    function setMinTokensBuy(uint256 p_minTokensBuy) public onlyOwner override {\n        require(s_tokenAmountSold == 0, \"There are already sales\");\n\n        uint256 balance = IERC20(s_contractHoldings).balanceOf(address(this));\n        require(p_minTokensBuy <= balance && balance > 0, \"Error amount tokens\");\n        \n        s_minTokensBuy = p_minTokensBuy;\n    }\n\n    function activeRevertPayments(address p_origin) public onlyOwner override { \n        require(!canTransferHoldings() && s_maxTime < block.timestamp, \"On sale\"); \n\n        s_activeRevertPayments = true;\n\n        uint256 priceOneTokenStableCoin = (s_priceTokenEUROS * uint256(_getPriceOneEuroStableCoin())) / 100;\n        uint256 totalSupply = s_tokenAmountSold - ITOKENHOLDINGS(s_contractHoldings).amountBuyWithFiat();\n        uint256 stableCoinReturn = ((priceOneTokenStableCoin / 10000000000) * totalSupply) / (1 ether / 10000000000);\n\n        require(IERC20(s_contractStableCoin).transferFrom(p_origin, address(this), stableCoinReturn), \"Error transfer STABLE COIN\");\n    }\n\n    function revertPayment() public override {\n        require(s_activeRevertPayments, \"On sale\");\n\n        uint256 amountTokens = IERC20(s_contractHoldings).balanceOf(msg.sender);\n        require(amountTokens > 0, \"Not tokens\");\n\n        require(\n            IERC20(s_contractHoldings).transferFrom(msg.sender, address(this), amountTokens),\n            \"Error transfer tokens\"\n        );\n\n        uint256 totalSupply = s_tokenAmountSold - ITOKENHOLDINGS(s_contractHoldings).amountBuyWithFiat(); \n        uint256 stableCoinReturn = ((amountTokens * 1 ether) / totalSupply) * IERC20(s_contractStableCoin).balanceOf(address(this));\n        stableCoinReturn = stableCoinReturn / 1 ether;\n\n        s_tokenAmountSold -= amountTokens;\n\n        require(\n            IERC20(s_contractStableCoin).transfer(msg.sender, stableCoinReturn), \n            \"Error transfer Stable Coin\"\n        );\n    }\n\n    //////////////////////////////////////////////////////////////////////////////////////////////////\n    // Internal functions\n    //////////////////////////////////////////////////////////////////////////////////////////////////\n\n    function _minAmountToBuy() internal view returns(uint256) { \n        uint256 balance = IERC20(s_contractHoldings).balanceOf(address(this));\n\n        if (balance < s_minTokensBuy) {\n            return balance;\n        }\n\n        return s_minTokensBuy;\n    }\n\n    function _requerimentsBuyChecking(uint256 p_amountToken) internal view {\n        uint256 balance = IERC20(s_contractHoldings).balanceOf(address(this));\n\n        require(s_maxTime >= block.timestamp, \"Sales reverted or closed\");\n        require(s_priceTokenEUROS > 0, \"Error price\");\n        require(p_amountToken <= balance && balance > 0, \"Contract has insufficient balance to sell\");\n        require(p_amountToken >= _minAmountToBuy(), \"Buy below the minimum\");\n    }\n\n    function _reinvestOrCompany(uint256 p_amountToken, address p_buyer) internal { \n        _requerimentsBuyChecking(p_amountToken);\n\n        s_tokenAmountSold += p_amountToken;\n\n        require(IERC20(s_contractHoldings).transfer(p_buyer, p_amountToken), \"Error transfer tokens\");\n    } \n\n    function _getPriceOneEuroStableCoin() internal view returns(int256) {\n        int256 decimals = int256(10 ** uint256(18));\n\n        // EUR-USD\n        ( , int256 basePrice, , , ) = S_PRICE_FEED_EUR_USD.latestRoundData();\n        uint8 baseDecimals = S_PRICE_FEED_EUR_USD.decimals();\n        basePrice = _scalePrice(basePrice, baseDecimals, uint8(18));\n\n        // STABLE_COIN-USD\n        ( , int256 quotePrice, , , ) = S_PRICE_FEED_STABLECOIN_USD.latestRoundData();\n        uint8 quoteDecimals = S_PRICE_FEED_STABLECOIN_USD.decimals();\n        quotePrice = _scalePrice(quotePrice, quoteDecimals, uint8(18));\n\n        // STABLE_COIN-EUR => How many Stable Coins for one Euro\n        return basePrice * decimals / quotePrice;\n    }\n\n    function _scalePrice(int256 _price, uint8 _priceDecimals, uint8 _decimals) internal pure returns(int256) {\n        if (_priceDecimals < _decimals) {\n            return _price * int256(10 ** uint256(_decimals - _priceDecimals));\n        } else if (_priceDecimals > _decimals) {\n            return _price / int256(10 ** uint256(_priceDecimals - _decimals));\n        }\n        return _price;\n    }\n}\n",
  "sourcePath": "/Users/albertolasa/Desktop/Clientes/AURINEXT/domoblockCodes/DOMOBLOCK/contracts/Seller.sol",
  "compiler": {
    "name": "solc",
    "version": "0.8.17+commit.8df45f5f.Emscripten.clang"
  },
  "schemaVersion": "3.4.8",
  "updatedAt": "2023-02-13T18:05:57.935Z",
  "devdoc": {
    "kind": "dev",
    "methods": {
      "owner()": {
        "details": "Returns the address of the current owner."
      },
      "renounceOwnership()": {
        "details": "Leaves the contract without owner. It will not be possible to call `onlyOwner` functions anymore. Can only be called by the current owner. NOTE: Renouncing ownership will leave the contract without an owner, thereby removing any functionality that is only available to the owner."
      },
      "transferOwnership(address)": {
        "details": "Transfers ownership of the contract to a new account (`newOwner`). Can only be called by the current owner."
      }
    },
    "version": 1
  },
  "userdoc": {
    "kind": "user",
    "methods": {},
    "version": 1
  }
}