{
  "contractName": "TokenHoldings",
  "abi": [
    {
      "inputs": [
        {
          "internalType": "string",
          "name": "p_name",
          "type": "string"
        },
        {
          "internalType": "string",
          "name": "p_symbol",
          "type": "string"
        },
        {
          "internalType": "address",
          "name": "p_manager",
          "type": "address"
        },
        {
          "internalType": "address",
          "name": "p_contractSeller",
          "type": "address"
        },
        {
          "internalType": "address",
          "name": "p_contractDividends",
          "type": "address"
        },
        {
          "internalType": "uint256",
          "name": "p_amount",
          "type": "uint256"
        },
        {
          "internalType": "address",
          "name": "p_eventsaggregator",
          "type": "address"
        }
      ],
      "stateMutability": "nonpayable",
      "type": "constructor"
    },
    {
      "anonymous": false,
      "inputs": [
        {
          "indexed": true,
          "internalType": "address",
          "name": "owner",
          "type": "address"
        },
        {
          "indexed": true,
          "internalType": "address",
          "name": "spender",
          "type": "address"
        },
        {
          "indexed": false,
          "internalType": "uint256",
          "name": "value",
          "type": "uint256"
        }
      ],
      "name": "Approval",
      "type": "event"
    },
    {
      "anonymous": false,
      "inputs": [
        {
          "indexed": false,
          "internalType": "address",
          "name": "e_from",
          "type": "address"
        },
        {
          "indexed": false,
          "internalType": "address",
          "name": "e_to",
          "type": "address"
        }
      ],
      "name": "ForcedTransferStocks",
      "type": "event"
    },
    {
      "anonymous": false,
      "inputs": [
        {
          "indexed": true,
          "internalType": "address",
          "name": "previousOwner",
          "type": "address"
        },
        {
          "indexed": true,
          "internalType": "address",
          "name": "newOwner",
          "type": "address"
        }
      ],
      "name": "OwnershipTransferred",
      "type": "event"
    },
    {
      "anonymous": false,
      "inputs": [
        {
          "indexed": false,
          "internalType": "address",
          "name": "account",
          "type": "address"
        }
      ],
      "name": "Paused",
      "type": "event"
    },
    {
      "anonymous": false,
      "inputs": [
        {
          "indexed": false,
          "internalType": "uint256",
          "name": "id",
          "type": "uint256"
        }
      ],
      "name": "Snapshot",
      "type": "event"
    },
    {
      "anonymous": false,
      "inputs": [
        {
          "indexed": true,
          "internalType": "address",
          "name": "from",
          "type": "address"
        },
        {
          "indexed": true,
          "internalType": "address",
          "name": "to",
          "type": "address"
        },
        {
          "indexed": false,
          "internalType": "uint256",
          "name": "value",
          "type": "uint256"
        }
      ],
      "name": "Transfer",
      "type": "event"
    },
    {
      "anonymous": false,
      "inputs": [
        {
          "indexed": false,
          "internalType": "address",
          "name": "account",
          "type": "address"
        }
      ],
      "name": "Unpaused",
      "type": "event"
    },
    {
      "inputs": [
        {
          "internalType": "address",
          "name": "owner",
          "type": "address"
        },
        {
          "internalType": "address",
          "name": "spender",
          "type": "address"
        }
      ],
      "name": "allowance",
      "outputs": [
        {
          "internalType": "uint256",
          "name": "",
          "type": "uint256"
        }
      ],
      "stateMutability": "view",
      "type": "function"
    },
    {
      "inputs": [
        {
          "internalType": "address",
          "name": "spender",
          "type": "address"
        },
        {
          "internalType": "uint256",
          "name": "amount",
          "type": "uint256"
        }
      ],
      "name": "approve",
      "outputs": [
        {
          "internalType": "bool",
          "name": "",
          "type": "bool"
        }
      ],
      "stateMutability": "nonpayable",
      "type": "function"
    },
    {
      "inputs": [
        {
          "internalType": "address",
          "name": "account",
          "type": "address"
        }
      ],
      "name": "balanceOf",
      "outputs": [
        {
          "internalType": "uint256",
          "name": "",
          "type": "uint256"
        }
      ],
      "stateMutability": "view",
      "type": "function"
    },
    {
      "inputs": [
        {
          "internalType": "address",
          "name": "account",
          "type": "address"
        },
        {
          "internalType": "uint256",
          "name": "snapshotId",
          "type": "uint256"
        }
      ],
      "name": "balanceOfAt",
      "outputs": [
        {
          "internalType": "uint256",
          "name": "",
          "type": "uint256"
        }
      ],
      "stateMutability": "view",
      "type": "function"
    },
    {
      "inputs": [],
      "name": "decimals",
      "outputs": [
        {
          "internalType": "uint8",
          "name": "",
          "type": "uint8"
        }
      ],
      "stateMutability": "view",
      "type": "function"
    },
    {
      "inputs": [
        {
          "internalType": "address",
          "name": "spender",
          "type": "address"
        },
        {
          "internalType": "uint256",
          "name": "subtractedValue",
          "type": "uint256"
        }
      ],
      "name": "decreaseAllowance",
      "outputs": [
        {
          "internalType": "bool",
          "name": "",
          "type": "bool"
        }
      ],
      "stateMutability": "nonpayable",
      "type": "function"
    },
    {
      "inputs": [
        {
          "internalType": "address",
          "name": "spender",
          "type": "address"
        },
        {
          "internalType": "uint256",
          "name": "addedValue",
          "type": "uint256"
        }
      ],
      "name": "increaseAllowance",
      "outputs": [
        {
          "internalType": "bool",
          "name": "",
          "type": "bool"
        }
      ],
      "stateMutability": "nonpayable",
      "type": "function"
    },
    {
      "inputs": [],
      "name": "name",
      "outputs": [
        {
          "internalType": "string",
          "name": "",
          "type": "string"
        }
      ],
      "stateMutability": "view",
      "type": "function"
    },
    {
      "inputs": [],
      "name": "owner",
      "outputs": [
        {
          "internalType": "address",
          "name": "",
          "type": "address"
        }
      ],
      "stateMutability": "view",
      "type": "function"
    },
    {
      "inputs": [],
      "name": "paused",
      "outputs": [
        {
          "internalType": "bool",
          "name": "",
          "type": "bool"
        }
      ],
      "stateMutability": "view",
      "type": "function"
    },
    {
      "inputs": [],
      "name": "renounceOwnership",
      "outputs": [],
      "stateMutability": "nonpayable",
      "type": "function"
    },
    {
      "inputs": [],
      "name": "symbol",
      "outputs": [
        {
          "internalType": "string",
          "name": "",
          "type": "string"
        }
      ],
      "stateMutability": "view",
      "type": "function"
    },
    {
      "inputs": [],
      "name": "totalSupply",
      "outputs": [
        {
          "internalType": "uint256",
          "name": "",
          "type": "uint256"
        }
      ],
      "stateMutability": "view",
      "type": "function"
    },
    {
      "inputs": [
        {
          "internalType": "uint256",
          "name": "snapshotId",
          "type": "uint256"
        }
      ],
      "name": "totalSupplyAt",
      "outputs": [
        {
          "internalType": "uint256",
          "name": "",
          "type": "uint256"
        }
      ],
      "stateMutability": "view",
      "type": "function"
    },
    {
      "inputs": [
        {
          "internalType": "address",
          "name": "to",
          "type": "address"
        },
        {
          "internalType": "uint256",
          "name": "amount",
          "type": "uint256"
        }
      ],
      "name": "transfer",
      "outputs": [
        {
          "internalType": "bool",
          "name": "",
          "type": "bool"
        }
      ],
      "stateMutability": "nonpayable",
      "type": "function"
    },
    {
      "inputs": [
        {
          "internalType": "address",
          "name": "from",
          "type": "address"
        },
        {
          "internalType": "address",
          "name": "to",
          "type": "address"
        },
        {
          "internalType": "uint256",
          "name": "amount",
          "type": "uint256"
        }
      ],
      "name": "transferFrom",
      "outputs": [
        {
          "internalType": "bool",
          "name": "",
          "type": "bool"
        }
      ],
      "stateMutability": "nonpayable",
      "type": "function"
    },
    {
      "inputs": [
        {
          "internalType": "address",
          "name": "newOwner",
          "type": "address"
        }
      ],
      "name": "transferOwnership",
      "outputs": [],
      "stateMutability": "nonpayable",
      "type": "function"
    },
    {
      "inputs": [],
      "name": "seller",
      "outputs": [
        {
          "internalType": "address",
          "name": "",
          "type": "address"
        }
      ],
      "stateMutability": "view",
      "type": "function"
    },
    {
      "inputs": [],
      "name": "getCurrentSnapshotId",
      "outputs": [
        {
          "internalType": "uint256",
          "name": "",
          "type": "uint256"
        }
      ],
      "stateMutability": "view",
      "type": "function"
    },
    {
      "inputs": [
        {
          "internalType": "uint256",
          "name": "p_year",
          "type": "uint256"
        }
      ],
      "name": "snapshotsYear",
      "outputs": [
        {
          "components": [
            {
              "internalType": "uint256",
              "name": "id",
              "type": "uint256"
            },
            {
              "internalType": "bool",
              "name": "withholding",
              "type": "bool"
            }
          ],
          "internalType": "struct ITOKENHOLDINGS.SnapshotInfo[]",
          "name": "",
          "type": "tuple[]"
        }
      ],
      "stateMutability": "view",
      "type": "function"
    },
    {
      "inputs": [],
      "name": "yearsWithSnapshots",
      "outputs": [
        {
          "internalType": "uint256[]",
          "name": "",
          "type": "uint256[]"
        }
      ],
      "stateMutability": "view",
      "type": "function"
    },
    {
      "inputs": [],
      "name": "amountBuyWithFiat",
      "outputs": [
        {
          "internalType": "uint256",
          "name": "",
          "type": "uint256"
        }
      ],
      "stateMutability": "view",
      "type": "function"
    },
    {
      "inputs": [
        {
          "internalType": "address",
          "name": "p_buyer",
          "type": "address"
        }
      ],
      "name": "amountBuyWithFiatUser",
      "outputs": [
        {
          "internalType": "uint256",
          "name": "",
          "type": "uint256"
        }
      ],
      "stateMutability": "view",
      "type": "function"
    },
    {
      "inputs": [
        {
          "internalType": "address",
          "name": "p_account",
          "type": "address"
        },
        {
          "internalType": "uint256",
          "name": "p_snapshotId",
          "type": "uint256"
        }
      ],
      "name": "snapshotUsed",
      "outputs": [
        {
          "internalType": "bool",
          "name": "",
          "type": "bool"
        }
      ],
      "stateMutability": "view",
      "type": "function"
    },
    {
      "inputs": [
        {
          "internalType": "bool",
          "name": "p_pause",
          "type": "bool"
        }
      ],
      "name": "setPause",
      "outputs": [],
      "stateMutability": "nonpayable",
      "type": "function"
    },
    {
      "inputs": [
        {
          "internalType": "address",
          "name": "p_account",
          "type": "address"
        },
        {
          "internalType": "uint256",
          "name": "p_snapshotId",
          "type": "uint256"
        }
      ],
      "name": "snapshotUse",
      "outputs": [
        {
          "internalType": "bool",
          "name": "",
          "type": "bool"
        }
      ],
      "stateMutability": "nonpayable",
      "type": "function"
    },
    {
      "inputs": [
        {
          "internalType": "uint256",
          "name": "p_year",
          "type": "uint256"
        },
        {
          "internalType": "bool",
          "name": "p_withholding",
          "type": "bool"
        }
      ],
      "name": "snapshot",
      "outputs": [
        {
          "internalType": "uint256",
          "name": "",
          "type": "uint256"
        }
      ],
      "stateMutability": "nonpayable",
      "type": "function"
    },
    {
      "inputs": [
        {
          "internalType": "uint256",
          "name": "p_amount",
          "type": "uint256"
        },
        {
          "internalType": "address",
          "name": "p_buyer",
          "type": "address"
        }
      ],
      "name": "incrementAmountBuyWithFiat",
      "outputs": [
        {
          "internalType": "bool",
          "name": "",
          "type": "bool"
        }
      ],
      "stateMutability": "nonpayable",
      "type": "function"
    },
    {
      "inputs": [
        {
          "internalType": "address",
          "name": "p_from",
          "type": "address"
        },
        {
          "internalType": "address",
          "name": "p_to",
          "type": "address"
        }
      ],
      "name": "forcedTransferStocks",
      "outputs": [
        {
          "internalType": "bool",
          "name": "",
          "type": "bool"
        }
      ],
      "stateMutability": "nonpayable",
      "type": "function"
    }
  ],
  "bytecode": "0x60806040523480156200001157600080fd5b506040516200530e3803806200530e8339818101604052810190620000379190620010ca565b868681600390816200004a9190620013fc565b5080600490816200005c9190620013fc565b5050506000600960006101000a81548160ff0219169083151502179055506200009a6200008e620001ce60201b60201c565b620001d660201b60201c565b84600a60006101000a81548173ffffffffffffffffffffffffffffffffffffffff021916908373ffffffffffffffffffffffffffffffffffffffff16021790555083600b60006101000a81548173ffffffffffffffffffffffffffffffffffffffff021916908373ffffffffffffffffffffffffffffffffffffffff16021790555082600c60006101000a81548173ffffffffffffffffffffffffffffffffffffffff021916908373ffffffffffffffffffffffffffffffffffffffff1602179055506200016e85620001d660201b60201c565b80601360006101000a81548173ffffffffffffffffffffffffffffffffffffffff021916908373ffffffffffffffffffffffffffffffffffffffff160217905550620001c184836200029c60201b60201c565b5050505050505062001a93565b600033905090565b6000600960019054906101000a900473ffffffffffffffffffffffffffffffffffffffff16905081600960016101000a81548173ffffffffffffffffffffffffffffffffffffffff021916908373ffffffffffffffffffffffffffffffffffffffff1602179055508173ffffffffffffffffffffffffffffffffffffffff168173ffffffffffffffffffffffffffffffffffffffff167f8be0079c531659141344cd1fd0a4f28419497f9722a3daafe3b4186f6b6457e060405160405180910390a35050565b600073ffffffffffffffffffffffffffffffffffffffff168273ffffffffffffffffffffffffffffffffffffffff16036200030e576040517f08c379a0000000000000000000000000000000000000000000000000000000008152600401620003059062001544565b60405180910390fd5b62000322600083836200041460201b60201c565b806002600082825462000336919062001595565b92505081905550806000808473ffffffffffffffffffffffffffffffffffffffff1673ffffffffffffffffffffffffffffffffffffffff16815260200190815260200160002060008282546200038d919062001595565b925050819055508173ffffffffffffffffffffffffffffffffffffffff16600073ffffffffffffffffffffffffffffffffffffffff167fddf252ad1be2c89b69c2b068fc378daa952ba7f163c4a11628f55a4df523b3ef83604051620003f49190620015e1565b60405180910390a3620004106000838362000b9960201b60201c565b5050565b6200042462000b9e60201b60201c565b1562000467576040517f08c379a00000000000000000000000000000000000000000000000000000000081526004016200045e906200164e565b60405180910390fd5b6000600b60009054906101000a900473ffffffffffffffffffffffffffffffffffffffff169050600073ffffffffffffffffffffffffffffffffffffffff168473ffffffffffffffffffffffffffffffffffffffff16141580156200051a5750600b60009054906101000a900473ffffffffffffffffffffffffffffffffffffffff1673ffffffffffffffffffffffffffffffffffffffff168473ffffffffffffffffffffffffffffffffffffffff1614155b8015620005545750600073ffffffffffffffffffffffffffffffffffffffff168373ffffffffffffffffffffffffffffffffffffffff1614155b8015620005af5750600b60009054906101000a900473ffffffffffffffffffffffffffffffffffffffff1673ffffffffffffffffffffffffffffffffffffffff168373ffffffffffffffffffffffffffffffffffffffff1614155b156200066a578073ffffffffffffffffffffffffffffffffffffffff1663f508fd156040518163ffffffff1660e01b8152600401602060405180830381865afa15801562000601573d6000803e3d6000fd5b505050506040513d601f19601f82011682018060405250810190620006279190620016ad565b62000669576040517f08c379a0000000000000000000000000000000000000000000000000000000008152600401620006609062001755565b60405180910390fd5b5b6000600a60009054906101000a900473ffffffffffffffffffffffffffffffffffffffff1673ffffffffffffffffffffffffffffffffffffffff16633544a8646040518163ffffffff1660e01b8152600401602060405180830381865afa158015620006da573d6000803e3d6000fd5b505050506040513d601f19601f8201168201806040525081019062000700919062001777565b73ffffffffffffffffffffffffffffffffffffffff1663645b8b1b856040518263ffffffff1660e01b81526004016200073a9190620017ba565b602060405180830381865afa15801562000758573d6000803e3d6000fd5b505050506040513d601f19601f820116820180604052508101906200077e9190620017ff565b90506001600281111562000797576200079662001831565b5b816002811115620007ad57620007ac62001831565b5b1480620007e65750600073ffffffffffffffffffffffffffffffffffffffff168573ffffffffffffffffffffffffffffffffffffffff16145b80620008775750600073ffffffffffffffffffffffffffffffffffffffff168473ffffffffffffffffffffffffffffffffffffffff161480620008765750600b60009054906101000a900473ffffffffffffffffffffffffffffffffffffffff1673ffffffffffffffffffffffffffffffffffffffff168473ffffffffffffffffffffffffffffffffffffffff16145b5b620008b9576040517f08c379a0000000000000000000000000000000000000000000000000000000008152600401620008b090620018b0565b60405180910390fd5b6000601260008673ffffffffffffffffffffffffffffffffffffffff1673ffffffffffffffffffffffffffffffffffffffff168152602001908152602001600020541115620009ce57600b60009054906101000a900473ffffffffffffffffffffffffffffffffffffffff1673ffffffffffffffffffffffffffffffffffffffff168573ffffffffffffffffffffffffffffffffffffffff1614806200098b5750600073ffffffffffffffffffffffffffffffffffffffff168573ffffffffffffffffffffffffffffffffffffffff16145b620009cd576040517f08c379a0000000000000000000000000000000000000000000000000000000008152600401620009c49062001948565b60405180910390fd5b5b6000601260008773ffffffffffffffffffffffffffffffffffffffff1673ffffffffffffffffffffffffffffffffffffffff16815260200190815260200160002054111562000ae357600b60009054906101000a900473ffffffffffffffffffffffffffffffffffffffff1673ffffffffffffffffffffffffffffffffffffffff168473ffffffffffffffffffffffffffffffffffffffff16148062000aa05750600073ffffffffffffffffffffffffffffffffffffffff168473ffffffffffffffffffffffffffffffffffffffff16145b62000ae2576040517f08c379a000000000000000000000000000000000000000000000000000000000815260040162000ad990620019ba565b60405180910390fd5b5b601360009054906101000a900473ffffffffffffffffffffffffffffffffffffffff1673ffffffffffffffffffffffffffffffffffffffff16635ec82af0308787876040518563ffffffff1660e01b815260040162000b469493929190620019dc565b600060405180830381600087803b15801562000b6157600080fd5b505af115801562000b76573d6000803e3d6000fd5b5050505062000b9285858562000bb560201b620013b61760201c565b5050505050565b505050565b6000600960009054906101000a900460ff16905090565b62000bcd83838362000cae60201b6200146e1760201c565b600073ffffffffffffffffffffffffffffffffffffffff168373ffffffffffffffffffffffffffffffffffffffff160362000c295762000c138262000cb360201b60201c565b62000c2362000d1660201b60201c565b62000ca9565b600073ffffffffffffffffffffffffffffffffffffffff168273ffffffffffffffffffffffffffffffffffffffff160362000c855762000c6f8362000cb360201b60201c565b62000c7f62000d1660201b60201c565b62000ca8565b62000c968362000cb360201b60201c565b62000ca78262000cb360201b60201c565b5b5b505050565b505050565b62000d13600560008373ffffffffffffffffffffffffffffffffffffffff1673ffffffffffffffffffffffffffffffffffffffff16815260200190815260200160002062000d078362000d3a60201b60201c565b62000d8260201b60201c565b50565b62000d38600662000d2c62000e0e60201b60201c565b62000d8260201b60201c565b565b60008060008373ffffffffffffffffffffffffffffffffffffffff1673ffffffffffffffffffffffffffffffffffffffff168152602001908152602001600020549050919050565b600062000d9462000e1860201b60201c565b90508062000dab8460000162000e3660201b60201c565b101562000e095782600001819080600181540180825580915050600190039060005260206000200160009091909190915055826001018290806001815401808255809150506001900390600052602060002001600090919091909150555b505050565b6000600254905090565b600062000e31600862000e8960201b620014731760201c565b905090565b60008082805490500362000e4e576000905062000e84565b816001838054905062000e62919062001a29565b8154811062000e765762000e7562001a64565b5b906000526020600020015490505b919050565b600081600001549050919050565b6000604051905090565b600080fd5b600080fd5b600080fd5b600080fd5b6000601f19601f8301169050919050565b7f4e487b7100000000000000000000000000000000000000000000000000000000600052604160045260246000fd5b62000f008262000eb5565b810181811067ffffffffffffffff8211171562000f225762000f2162000ec6565b5b80604052505050565b600062000f3762000e97565b905062000f45828262000ef5565b919050565b600067ffffffffffffffff82111562000f685762000f6762000ec6565b5b62000f738262000eb5565b9050602081019050919050565b60005b8381101562000fa057808201518184015260208101905062000f83565b60008484015250505050565b600062000fc362000fbd8462000f4a565b62000f2b565b90508281526020810184848401111562000fe25762000fe162000eb0565b5b62000fef84828562000f80565b509392505050565b600082601f8301126200100f576200100e62000eab565b5b81516200102184826020860162000fac565b91505092915050565b600073ffffffffffffffffffffffffffffffffffffffff82169050919050565b600062001057826200102a565b9050919050565b62001069816200104a565b81146200107557600080fd5b50565b60008151905062001089816200105e565b92915050565b6000819050919050565b620010a4816200108f565b8114620010b057600080fd5b50565b600081519050620010c48162001099565b92915050565b600080600080600080600060e0888a031215620010ec57620010eb62000ea1565b5b600088015167ffffffffffffffff8111156200110d576200110c62000ea6565b5b6200111b8a828b0162000ff7565b975050602088015167ffffffffffffffff8111156200113f576200113e62000ea6565b5b6200114d8a828b0162000ff7565b9650506040620011608a828b0162001078565b9550506060620011738a828b0162001078565b9450506080620011868a828b0162001078565b93505060a0620011998a828b01620010b3565b92505060c0620011ac8a828b0162001078565b91505092959891949750929550565b600081519050919050565b7f4e487b7100000000000000000000000000000000000000000000000000000000600052602260045260246000fd5b600060028204905060018216806200120e57607f821691505b602082108103620012245762001223620011c6565b5b50919050565b60008190508160005260206000209050919050565b60006020601f8301049050919050565b600082821b905092915050565b6000600883026200128e7fffffffffffffffffffffffffffffffffffffffffffffffffffffffffffffffff826200124f565b6200129a86836200124f565b95508019841693508086168417925050509392505050565b6000819050919050565b6000620012dd620012d7620012d1846200108f565b620012b2565b6200108f565b9050919050565b6000819050919050565b620012f983620012bc565b620013116200130882620012e4565b8484546200125c565b825550505050565b600090565b6200132862001319565b62001335818484620012ee565b505050565b5b818110156200135d57620013516000826200131e565b6001810190506200133b565b5050565b601f821115620013ac5762001376816200122a565b62001381846200123f565b8101602085101562001391578190505b620013a9620013a0856200123f565b8301826200133a565b50505b505050565b600082821c905092915050565b6000620013d160001984600802620013b1565b1980831691505092915050565b6000620013ec8383620013be565b9150826002028217905092915050565b6200140782620011bb565b67ffffffffffffffff81111562001423576200142262000ec6565b5b6200142f8254620011f5565b6200143c82828562001361565b600060209050601f8311600181146200147457600084156200145f578287015190505b6200146b8582620013de565b865550620014db565b601f19841662001484866200122a565b60005b82811015620014ae5784890151825560018201915060208501945060208101905062001487565b86831015620014ce5784890151620014ca601f891682620013be565b8355505b6001600288020188555050505b505050505050565b600082825260208201905092915050565b7f45524332303a206d696e7420746f20746865207a65726f206164647265737300600082015250565b60006200152c601f83620014e3565b91506200153982620014f4565b602082019050919050565b600060208201905081810360008301526200155f816200151d565b9050919050565b7f4e487b7100000000000000000000000000000000000000000000000000000000600052601160045260246000fd5b6000620015a2826200108f565b9150620015af836200108f565b9250828201905080821115620015ca57620015c962001566565b5b92915050565b620015db816200108f565b82525050565b6000602082019050620015f86000830184620015d0565b92915050565b7f5061757361626c653a2070617573656400000000000000000000000000000000600082015250565b600062001636601083620014e3565b91506200164382620015fe565b602082019050919050565b60006020820190508181036000830152620016698162001627565b9050919050565b60008115159050919050565b620016878162001670565b81146200169357600080fd5b50565b600081519050620016a7816200167c565b92915050565b600060208284031215620016c657620016c562000ea1565b5b6000620016d68482850162001696565b91505092915050565b7f436f6e74726163742073656c6c6572207265766572746520746865207472616e60008201527f7366657200000000000000000000000000000000000000000000000000000000602082015250565b60006200173d602483620014e3565b91506200174a82620016df565b604082019050919050565b6000602082019050818103600083015262001770816200172e565b9050919050565b60006020828403121562001790576200178f62000ea1565b5b6000620017a08482850162001078565b91505092915050565b620017b4816200104a565b82525050565b6000602082019050620017d16000830184620017a9565b92915050565b60038110620017e557600080fd5b50565b600081519050620017f981620017d7565b92915050565b60006020828403121562001818576200181762000ea1565b5b60006200182884828501620017e8565b91505092915050565b7f4e487b7100000000000000000000000000000000000000000000000000000000600052602160045260246000fd5b7f546f206163636f756e74206e6f74206163746976650000000000000000000000600082015250565b600062001898601583620014e3565b9150620018a58262001860565b602082019050919050565b60006020820190508181036000830152620018cb8162001889565b9050919050565b7f4572726f722064657374696e6174696f6e2c2077616c6c657420627920636f6d60008201527f70616e7900000000000000000000000000000000000000000000000000000000602082015250565b600062001930602483620014e3565b91506200193d82620018d2565b604082019050919050565b60006020820190508181036000830152620019638162001921565b9050919050565b7f4572726f72206f726967696e2c2077616c6c657420627920636f6d70616e7900600082015250565b6000620019a2601f83620014e3565b9150620019af826200196a565b602082019050919050565b60006020820190508181036000830152620019d58162001993565b9050919050565b6000608082019050620019f36000830187620017a9565b62001a026020830186620017a9565b62001a116040830185620017a9565b62001a206060830184620015d0565b95945050505050565b600062001a36826200108f565b915062001a43836200108f565b925082820390508181111562001a5e5762001a5d62001566565b5b92915050565b7f4e487b7100000000000000000000000000000000000000000000000000000000600052603260045260246000fd5b61386b8062001aa36000396000f3fe608060405234801561001057600080fd5b50600436106101cf5760003560e01c80638da5cb5b11610104578063a9059cbb116100a2578063bedb86fb11610071578063bedb86fb146105bc578063c0944837146105d8578063dd62ed3e146105f6578063f2fde38b14610626576101cf565b8063a9059cbb1461050e578063b4fe87331461053e578063b64a823b1461055c578063bbe1c8961461058c576101cf565b80639a268df6116100de5780639a268df61461044e578063a01652ed1461047e578063a457c2d7146104ae578063a849af45146104de576101cf565b80638da5cb5b146103e257806395d89b4114610400578063981b24d01461041e576101cf565b806339509351116101715780635c975abb1161014b5780635c975abb1461035a57806370a0823114610378578063715018a6146103a8578063737836b4146103b2576101cf565b806339509351146102dc5780634ee2cd7e1461030c5780635439ad861461033c576101cf565b806318160ddd116101ad57806318160ddd146102405780631f67fdc91461025e57806323b872dd1461028e578063313ce567146102be576101cf565b806306fdde03146101d457806308551a53146101f2578063095ea7b314610210575b600080fd5b6101dc610642565b6040516101e991906126dd565b60405180910390f35b6101fa6106d4565b6040516102079190612740565b60405180910390f35b61022a600480360381019061022591906127c2565b6106fe565b604051610237919061281d565b60405180910390f35b610248610721565b6040516102559190612847565b60405180910390f35b610278600480360381019061027391906127c2565b61072b565b604051610285919061281d565b60405180910390f35b6102a860048036038101906102a39190612862565b610830565b6040516102b5919061281d565b60405180910390f35b6102c661085f565b6040516102d391906128d1565b60405180910390f35b6102f660048036038101906102f191906127c2565b610868565b604051610303919061281d565b60405180910390f35b610326600480360381019061032191906127c2565b610912565b6040516103339190612847565b60405180910390f35b610344610982565b6040516103519190612847565b60405180910390f35b610362610991565b60405161036f919061281d565b60405180910390f35b610392600480360381019061038d91906128ec565b6109a8565b60405161039f9190612847565b60405180910390f35b6103b06109f0565b005b6103cc60048036038101906103c79190612945565b610a78565b6040516103d99190612847565b60405180910390f35b6103ea610c1a565b6040516103f79190612740565b60405180910390f35b610408610c44565b60405161041591906126dd565b60405180910390f35b61043860048036038101906104339190612985565b610cd6565b6040516104459190612847565b60405180910390f35b610468600480360381019061046391906129b2565b610d07565b604051610475919061281d565b60405180910390f35b610498600480360381019061049391906129f2565b610ddb565b6040516104a5919061281d565b60405180910390f35b6104c860048036038101906104c391906127c2565b610ee6565b6040516104d5919061281d565b60405180910390f35b6104f860048036038101906104f39190612985565b610fd0565b6040516105059190612b2e565b60405180910390f35b610528600480360381019061052391906127c2565b611067565b604051610535919061281d565b60405180910390f35b61054661108a565b6040516105539190612bff565b60405180910390f35b610576600480360381019061057191906127c2565b6110e2565b604051610583919061281d565b60405180910390f35b6105a660048036038101906105a191906128ec565b61114a565b6040516105b39190612847565b60405180910390f35b6105d660048036038101906105d19190612c21565b611193565b005b6105e061122e565b6040516105ed9190612847565b60405180910390f35b610610600480360381019061060b91906129b2565b611238565b60405161061d9190612847565b60405180910390f35b610640600480360381019061063b91906128ec565b6112bf565b005b60606003805461065190612c7d565b80601f016020809104026020016040519081016040528092919081815260200182805461067d90612c7d565b80156106ca5780601f1061069f576101008083540402835291602001916106ca565b820191906000526020600020905b8154815290600101906020018083116106ad57829003601f168201915b5050505050905090565b6000600b60009054906101000a900473ffffffffffffffffffffffffffffffffffffffff16905090565b600080610709611481565b9050610716818585611489565b600191505092915050565b6000600254905090565b6000600c60009054906101000a900473ffffffffffffffffffffffffffffffffffffffff1673ffffffffffffffffffffffffffffffffffffffff163373ffffffffffffffffffffffffffffffffffffffff16146107bd576040517f08c379a00000000000000000000000000000000000000000000000000000000081526004016107b490612cfa565b60405180910390fd5b6001601060008573ffffffffffffffffffffffffffffffffffffffff1673ffffffffffffffffffffffffffffffffffffffff168152602001908152602001600020600084815260200190815260200160002060006101000a81548160ff0219169083151502179055506001905092915050565b60008061083b611481565b9050610848858285611652565b6108538585856116de565b60019150509392505050565b60006012905090565b600080610873611481565b9050610907818585600160008673ffffffffffffffffffffffffffffffffffffffff1673ffffffffffffffffffffffffffffffffffffffff16815260200190815260200160002060008973ffffffffffffffffffffffffffffffffffffffff1673ffffffffffffffffffffffffffffffffffffffff168152602001908152602001600020546109029190612d49565b611489565b600191505092915050565b600080600061095f84600560008873ffffffffffffffffffffffffffffffffffffffff1673ffffffffffffffffffffffffffffffffffffffff16815260200190815260200160002061195d565b915091508161097657610971856109a8565b610978565b805b9250505092915050565b600061098c611a52565b905090565b6000600960009054906101000a900460ff16905090565b60008060008373ffffffffffffffffffffffffffffffffffffffff1673ffffffffffffffffffffffffffffffffffffffff168152602001908152602001600020549050919050565b6109f8611481565b73ffffffffffffffffffffffffffffffffffffffff16610a16610c1a565b73ffffffffffffffffffffffffffffffffffffffff1614610a6c576040517f08c379a0000000000000000000000000000000000000000000000000000000008152600401610a6390612dc9565b60405180910390fd5b610a766000611a63565b565b6000600c60009054906101000a900473ffffffffffffffffffffffffffffffffffffffff1673ffffffffffffffffffffffffffffffffffffffff163373ffffffffffffffffffffffffffffffffffffffff1614610b0a576040517f08c379a0000000000000000000000000000000000000000000000000000000008152600401610b0190612cfa565b60405180910390fd5b6000610b14611b29565b9050600d6000858152602001908152602001600020604051806040016040528083815260200185151581525090806001815401808255809150506001900390600052602060002090600202016000909190919091506000820151816000015560208201518160010160006101000a81548160ff0219169083151502179055505050600f600085815260200190815260200160002060009054906101000a900460ff16610c1057600e8490806001815401808255809150506001900390600052602060002001600090919091909150556001600f600086815260200190815260200160002060006101000a81548160ff0219169083151502179055505b8091505092915050565b6000600960019054906101000a900473ffffffffffffffffffffffffffffffffffffffff16905090565b606060048054610c5390612c7d565b80601f0160208091040260200160405190810160405280929190818152602001828054610c7f90612c7d565b8015610ccc5780601f10610ca157610100808354040283529160200191610ccc565b820191906000526020600020905b815481529060010190602001808311610caf57829003601f168201915b5050505050905090565b6000806000610ce684600661195d565b9150915081610cfc57610cf7610721565b610cfe565b805b92505050919050565b6000610d11611481565b73ffffffffffffffffffffffffffffffffffffffff16610d2f610c1a565b73ffffffffffffffffffffffffffffffffffffffff1614610d85576040517f08c379a0000000000000000000000000000000000000000000000000000000008152600401610d7c90612dc9565b60405180910390fd5b610d988383610d93866109a8565b6116de565b7f7b69dde9f340372e67bc2c8f6dd763a1603c5abb2595a98cabb64c1dce9643ce8383604051610dc9929190612de9565b60405180910390a16001905092915050565b6000600b60009054906101000a900473ffffffffffffffffffffffffffffffffffffffff1673ffffffffffffffffffffffffffffffffffffffff163373ffffffffffffffffffffffffffffffffffffffff1614610e6d576040517f08c379a0000000000000000000000000000000000000000000000000000000008152600401610e6490612cfa565b60405180910390fd5b8260116000828254610e7f9190612d49565b9250508190555082601260008473ffffffffffffffffffffffffffffffffffffffff1673ffffffffffffffffffffffffffffffffffffffff1681526020019081526020016000206000828254610ed59190612d49565b925050819055506001905092915050565b600080610ef1611481565b90506000600160008373ffffffffffffffffffffffffffffffffffffffff1673ffffffffffffffffffffffffffffffffffffffff16815260200190815260200160002060008673ffffffffffffffffffffffffffffffffffffffff1673ffffffffffffffffffffffffffffffffffffffff16815260200190815260200160002054905083811015610fb7576040517f08c379a0000000000000000000000000000000000000000000000000000000008152600401610fae90612e84565b60405180910390fd5b610fc48286868403611489565b60019250505092915050565b6060600d6000838152602001908152602001600020805480602002602001604051908101604052809291908181526020016000905b8282101561105c5783829060005260206000209060020201604051806040016040529081600082015481526020016001820160009054906101000a900460ff16151515158152505081526020019060010190611005565b505050509050919050565b600080611072611481565b905061107f8185856116de565b600191505092915050565b6060600e8054806020026020016040519081016040528092919081815260200182805480156110d857602002820191906000526020600020905b8154815260200190600101908083116110c4575b5050505050905090565b6000601060008473ffffffffffffffffffffffffffffffffffffffff1673ffffffffffffffffffffffffffffffffffffffff168152602001908152602001600020600083815260200190815260200160002060009054906101000a900460ff16905092915050565b6000601260008373ffffffffffffffffffffffffffffffffffffffff1673ffffffffffffffffffffffffffffffffffffffff168152602001908152602001600020549050919050565b61119b611481565b73ffffffffffffffffffffffffffffffffffffffff166111b9610c1a565b73ffffffffffffffffffffffffffffffffffffffff161461120f576040517f08c379a000000000000000000000000000000000000000000000000000000000815260040161120690612dc9565b60405180910390fd5b80156112225761121d611b7f565b61122b565b61122a611c22565b5b50565b6000601154905090565b6000600160008473ffffffffffffffffffffffffffffffffffffffff1673ffffffffffffffffffffffffffffffffffffffff16815260200190815260200160002060008373ffffffffffffffffffffffffffffffffffffffff1673ffffffffffffffffffffffffffffffffffffffff16815260200190815260200160002054905092915050565b6112c7611481565b73ffffffffffffffffffffffffffffffffffffffff166112e5610c1a565b73ffffffffffffffffffffffffffffffffffffffff161461133b576040517f08c379a000000000000000000000000000000000000000000000000000000000815260040161133290612dc9565b60405180910390fd5b600073ffffffffffffffffffffffffffffffffffffffff168173ffffffffffffffffffffffffffffffffffffffff16036113aa576040517f08c379a00000000000000000000000000000000000000000000000000000000081526004016113a190612f16565b60405180910390fd5b6113b381611a63565b50565b6113c183838361146e565b600073ffffffffffffffffffffffffffffffffffffffff168373ffffffffffffffffffffffffffffffffffffffff160361140b576113fe82611cc4565b611406611d17565b611469565b600073ffffffffffffffffffffffffffffffffffffffff168273ffffffffffffffffffffffffffffffffffffffff16036114555761144883611cc4565b611450611d17565b611468565b61145e83611cc4565b61146782611cc4565b5b5b505050565b505050565b600081600001549050919050565b600033905090565b600073ffffffffffffffffffffffffffffffffffffffff168373ffffffffffffffffffffffffffffffffffffffff16036114f8576040517f08c379a00000000000000000000000000000000000000000000000000000000081526004016114ef90612fa8565b60405180910390fd5b600073ffffffffffffffffffffffffffffffffffffffff168273ffffffffffffffffffffffffffffffffffffffff1603611567576040517f08c379a000000000000000000000000000000000000000000000000000000000815260040161155e9061303a565b60405180910390fd5b80600160008573ffffffffffffffffffffffffffffffffffffffff1673ffffffffffffffffffffffffffffffffffffffff16815260200190815260200160002060008473ffffffffffffffffffffffffffffffffffffffff1673ffffffffffffffffffffffffffffffffffffffff168152602001908152602001600020819055508173ffffffffffffffffffffffffffffffffffffffff168373ffffffffffffffffffffffffffffffffffffffff167f8c5be1e5ebec7d5bd14f71427d1e84f3dd0314c0f7b2291e5b200ac8c7c3b925836040516116459190612847565b60405180910390a3505050565b600061165e8484611238565b90507fffffffffffffffffffffffffffffffffffffffffffffffffffffffffffffffff81146116d857818110156116ca576040517f08c379a00000000000000000000000000000000000000000000000000000000081526004016116c1906130a6565b60405180910390fd5b6116d78484848403611489565b5b50505050565b600073ffffffffffffffffffffffffffffffffffffffff168373ffffffffffffffffffffffffffffffffffffffff160361174d576040517f08c379a000000000000000000000000000000000000000000000000000000000815260040161174490613138565b60405180910390fd5b600073ffffffffffffffffffffffffffffffffffffffff168273ffffffffffffffffffffffffffffffffffffffff16036117bc576040517f08c379a00000000000000000000000000000000000000000000000000000000081526004016117b3906131ca565b60405180910390fd5b6117c7838383611d2b565b60008060008573ffffffffffffffffffffffffffffffffffffffff1673ffffffffffffffffffffffffffffffffffffffff1681526020019081526020016000205490508181101561184d576040517f08c379a00000000000000000000000000000000000000000000000000000000081526004016118449061325c565b60405180910390fd5b8181036000808673ffffffffffffffffffffffffffffffffffffffff1673ffffffffffffffffffffffffffffffffffffffff16815260200190815260200160002081905550816000808573ffffffffffffffffffffffffffffffffffffffff1673ffffffffffffffffffffffffffffffffffffffff16815260200190815260200160002060008282546118e09190612d49565b925050819055508273ffffffffffffffffffffffffffffffffffffffff168473ffffffffffffffffffffffffffffffffffffffff167fddf252ad1be2c89b69c2b068fc378daa952ba7f163c4a11628f55a4df523b3ef846040516119449190612847565b60405180910390a361195784848461246c565b50505050565b600080600084116119a3576040517f08c379a000000000000000000000000000000000000000000000000000000000815260040161199a906132c8565b60405180910390fd5b6119ab611a52565b8411156119ed576040517f08c379a00000000000000000000000000000000000000000000000000000000081526004016119e490613334565b60405180910390fd5b6000611a05858560000161247190919063ffffffff16565b905083600001805490508103611a22576000809250925050611a4b565b6001846001018281548110611a3a57611a39613354565b5b906000526020600020015492509250505b9250929050565b6000611a5e6008611473565b905090565b6000600960019054906101000a900473ffffffffffffffffffffffffffffffffffffffff16905081600960016101000a81548173ffffffffffffffffffffffffffffffffffffffff021916908373ffffffffffffffffffffffffffffffffffffffff1602179055508173ffffffffffffffffffffffffffffffffffffffff168173ffffffffffffffffffffffffffffffffffffffff167f8be0079c531659141344cd1fd0a4f28419497f9722a3daafe3b4186f6b6457e060405160405180910390a35050565b6000611b35600861254a565b6000611b3f611a52565b90507f8030e83b04d87bef53480e26263266d6ca66863aa8506aca6f2559d18aa1cb6781604051611b709190612847565b60405180910390a18091505090565b611b87610991565b15611bc7576040517f08c379a0000000000000000000000000000000000000000000000000000000008152600401611bbe906133cf565b60405180910390fd5b6001600960006101000a81548160ff0219169083151502179055507f62e78cea01bee320cd4e420270b5ea74000d11b0c9f74754ebdbfc544b05a258611c0b611481565b604051611c189190612740565b60405180910390a1565b611c2a610991565b611c69576040517f08c379a0000000000000000000000000000000000000000000000000000000008152600401611c609061343b565b60405180910390fd5b6000600960006101000a81548160ff0219169083151502179055507f5db9ee0a495bf2e6ff9c91a7834c1ba4fdd244a5e8aa4e537bd38aeae4b073aa611cad611481565b604051611cba9190612740565b60405180910390a1565b611d14600560008373ffffffffffffffffffffffffffffffffffffffff1673ffffffffffffffffffffffffffffffffffffffff168152602001908152602001600020611d0f836109a8565b612560565b50565b611d296006611d24610721565b612560565b565b611d33610991565b15611d73576040517f08c379a0000000000000000000000000000000000000000000000000000000008152600401611d6a906133cf565b60405180910390fd5b6000600b60009054906101000a900473ffffffffffffffffffffffffffffffffffffffff169050600073ffffffffffffffffffffffffffffffffffffffff168473ffffffffffffffffffffffffffffffffffffffff1614158015611e255750600b60009054906101000a900473ffffffffffffffffffffffffffffffffffffffff1673ffffffffffffffffffffffffffffffffffffffff168473ffffffffffffffffffffffffffffffffffffffff1614155b8015611e5e5750600073ffffffffffffffffffffffffffffffffffffffff168373ffffffffffffffffffffffffffffffffffffffff1614155b8015611eb85750600b60009054906101000a900473ffffffffffffffffffffffffffffffffffffffff1673ffffffffffffffffffffffffffffffffffffffff168373ffffffffffffffffffffffffffffffffffffffff1614155b15611f6c578073ffffffffffffffffffffffffffffffffffffffff1663f508fd156040518163ffffffff1660e01b8152600401602060405180830381865afa158015611f08573d6000803e3d6000fd5b505050506040513d601f19601f82011682018060405250810190611f2c9190613470565b611f6b576040517f08c379a0000000000000000000000000000000000000000000000000000000008152600401611f629061350f565b60405180910390fd5b5b6000600a60009054906101000a900473ffffffffffffffffffffffffffffffffffffffff1673ffffffffffffffffffffffffffffffffffffffff16633544a8646040518163ffffffff1660e01b8152600401602060405180830381865afa158015611fdb573d6000803e3d6000fd5b505050506040513d601f19601f82011682018060405250810190611fff9190613544565b73ffffffffffffffffffffffffffffffffffffffff1663645b8b1b856040518263ffffffff1660e01b81526004016120379190612740565b602060405180830381865afa158015612054573d6000803e3d6000fd5b505050506040513d601f19601f820116820180604052508101906120789190613596565b90506001600281111561208e5761208d6135c3565b5b8160028111156120a1576120a06135c3565b5b14806120d95750600073ffffffffffffffffffffffffffffffffffffffff168573ffffffffffffffffffffffffffffffffffffffff16145b806121685750600073ffffffffffffffffffffffffffffffffffffffff168473ffffffffffffffffffffffffffffffffffffffff1614806121675750600b60009054906101000a900473ffffffffffffffffffffffffffffffffffffffff1673ffffffffffffffffffffffffffffffffffffffff168473ffffffffffffffffffffffffffffffffffffffff16145b5b6121a7576040517f08c379a000000000000000000000000000000000000000000000000000000000815260040161219e9061363e565b60405180910390fd5b6000601260008673ffffffffffffffffffffffffffffffffffffffff1673ffffffffffffffffffffffffffffffffffffffff1681526020019081526020016000205411156122b757600b60009054906101000a900473ffffffffffffffffffffffffffffffffffffffff1673ffffffffffffffffffffffffffffffffffffffff168573ffffffffffffffffffffffffffffffffffffffff1614806122775750600073ffffffffffffffffffffffffffffffffffffffff168573ffffffffffffffffffffffffffffffffffffffff16145b6122b6576040517f08c379a00000000000000000000000000000000000000000000000000000000081526004016122ad906136d0565b60405180910390fd5b5b6000601260008773ffffffffffffffffffffffffffffffffffffffff1673ffffffffffffffffffffffffffffffffffffffff1681526020019081526020016000205411156123c757600b60009054906101000a900473ffffffffffffffffffffffffffffffffffffffff1673ffffffffffffffffffffffffffffffffffffffff168473ffffffffffffffffffffffffffffffffffffffff1614806123875750600073ffffffffffffffffffffffffffffffffffffffff168473ffffffffffffffffffffffffffffffffffffffff16145b6123c6576040517f08c379a00000000000000000000000000000000000000000000000000000000081526004016123bd9061373c565b60405180910390fd5b5b601360009054906101000a900473ffffffffffffffffffffffffffffffffffffffff1673ffffffffffffffffffffffffffffffffffffffff16635ec82af0308787876040518563ffffffff1660e01b8152600401612428949392919061375c565b600060405180830381600087803b15801561244257600080fd5b505af1158015612456573d6000803e3d6000fd5b505050506124658585856113b6565b5050505050565b505050565b6000808380549050036124875760009050612544565b600080848054905090505b808210156124eb5760006124a683836125db565b9050848682815481106124bc576124bb613354565b5b906000526020600020015411156124d5578091506124e5565b6001816124e29190612d49565b92505b50612492565b6000821180156125235750838560018461250591906137a1565b8154811061251657612515613354565b5b9060005260206000200154145b1561253e5760018261253591906137a1565b92505050612544565b81925050505b92915050565b6001816000016000828254019250508190555050565b600061256a611a52565b90508061257984600001612601565b10156125d65782600001819080600181540180825580915050600190039060005260206000200160009091909190915055826001018290806001815401808255809150506001900390600052602060002001600090919091909150555b505050565b600060028284186125ec9190613804565b8284166125f99190612d49565b905092915050565b6000808280549050036126175760009050612648565b816001838054905061262991906137a1565b8154811061263a57612639613354565b5b906000526020600020015490505b919050565b600081519050919050565b600082825260208201905092915050565b60005b8381101561268757808201518184015260208101905061266c565b60008484015250505050565b6000601f19601f8301169050919050565b60006126af8261264d565b6126b98185612658565b93506126c9818560208601612669565b6126d281612693565b840191505092915050565b600060208201905081810360008301526126f781846126a4565b905092915050565b600073ffffffffffffffffffffffffffffffffffffffff82169050919050565b600061272a826126ff565b9050919050565b61273a8161271f565b82525050565b60006020820190506127556000830184612731565b92915050565b600080fd5b6127698161271f565b811461277457600080fd5b50565b60008135905061278681612760565b92915050565b6000819050919050565b61279f8161278c565b81146127aa57600080fd5b50565b6000813590506127bc81612796565b92915050565b600080604083850312156127d9576127d861275b565b5b60006127e785828601612777565b92505060206127f8858286016127ad565b9150509250929050565b60008115159050919050565b61281781612802565b82525050565b6000602082019050612832600083018461280e565b92915050565b6128418161278c565b82525050565b600060208201905061285c6000830184612838565b92915050565b60008060006060848603121561287b5761287a61275b565b5b600061288986828701612777565b935050602061289a86828701612777565b92505060406128ab868287016127ad565b9150509250925092565b600060ff82169050919050565b6128cb816128b5565b82525050565b60006020820190506128e660008301846128c2565b92915050565b6000602082840312156129025761290161275b565b5b600061291084828501612777565b91505092915050565b61292281612802565b811461292d57600080fd5b50565b60008135905061293f81612919565b92915050565b6000806040838503121561295c5761295b61275b565b5b600061296a858286016127ad565b925050602061297b85828601612930565b9150509250929050565b60006020828403121561299b5761299a61275b565b5b60006129a9848285016127ad565b91505092915050565b600080604083850312156129c9576129c861275b565b5b60006129d785828601612777565b92505060206129e885828601612777565b9150509250929050565b60008060408385031215612a0957612a0861275b565b5b6000612a17858286016127ad565b9250506020612a2885828601612777565b9150509250929050565b600081519050919050565b600082825260208201905092915050565b6000819050602082019050919050565b612a678161278c565b82525050565b612a7681612802565b82525050565b604082016000820151612a926000850182612a5e565b506020820151612aa56020850182612a6d565b50505050565b6000612ab78383612a7c565b60408301905092915050565b6000602082019050919050565b6000612adb82612a32565b612ae58185612a3d565b9350612af083612a4e565b8060005b83811015612b21578151612b088882612aab565b9750612b1383612ac3565b925050600181019050612af4565b5085935050505092915050565b60006020820190508181036000830152612b488184612ad0565b905092915050565b600081519050919050565b600082825260208201905092915050565b6000819050602082019050919050565b6000612b888383612a5e565b60208301905092915050565b6000602082019050919050565b6000612bac82612b50565b612bb68185612b5b565b9350612bc183612b6c565b8060005b83811015612bf2578151612bd98882612b7c565b9750612be483612b94565b925050600181019050612bc5565b5085935050505092915050565b60006020820190508181036000830152612c198184612ba1565b905092915050565b600060208284031215612c3757612c3661275b565b5b6000612c4584828501612930565b91505092915050565b7f4e487b7100000000000000000000000000000000000000000000000000000000600052602260045260246000fd5b60006002820490506001821680612c9557607f821691505b602082108103612ca857612ca7612c4e565b5b50919050565b7f4572726f72206f726967696e0000000000000000000000000000000000000000600082015250565b6000612ce4600c83612658565b9150612cef82612cae565b602082019050919050565b60006020820190508181036000830152612d1381612cd7565b9050919050565b7f4e487b7100000000000000000000000000000000000000000000000000000000600052601160045260246000fd5b6000612d548261278c565b9150612d5f8361278c565b9250828201905080821115612d7757612d76612d1a565b5b92915050565b7f4f776e61626c653a2063616c6c6572206973206e6f7420746865206f776e6572600082015250565b6000612db3602083612658565b9150612dbe82612d7d565b602082019050919050565b60006020820190508181036000830152612de281612da6565b9050919050565b6000604082019050612dfe6000830185612731565b612e0b6020830184612731565b9392505050565b7f45524332303a2064656372656173656420616c6c6f77616e63652062656c6f7760008201527f207a65726f000000000000000000000000000000000000000000000000000000602082015250565b6000612e6e602583612658565b9150612e7982612e12565b604082019050919050565b60006020820190508181036000830152612e9d81612e61565b9050919050565b7f4f776e61626c653a206e6577206f776e657220697320746865207a65726f206160008201527f6464726573730000000000000000000000000000000000000000000000000000602082015250565b6000612f00602683612658565b9150612f0b82612ea4565b604082019050919050565b60006020820190508181036000830152612f2f81612ef3565b9050919050565b7f45524332303a20617070726f76652066726f6d20746865207a65726f2061646460008201527f7265737300000000000000000000000000000000000000000000000000000000602082015250565b6000612f92602483612658565b9150612f9d82612f36565b604082019050919050565b60006020820190508181036000830152612fc181612f85565b9050919050565b7f45524332303a20617070726f766520746f20746865207a65726f20616464726560008201527f7373000000000000000000000000000000000000000000000000000000000000602082015250565b6000613024602283612658565b915061302f82612fc8565b604082019050919050565b6000602082019050818103600083015261305381613017565b9050919050565b7f45524332303a20696e73756666696369656e7420616c6c6f77616e6365000000600082015250565b6000613090601d83612658565b915061309b8261305a565b602082019050919050565b600060208201905081810360008301526130bf81613083565b9050919050565b7f45524332303a207472616e736665722066726f6d20746865207a65726f20616460008201527f6472657373000000000000000000000000000000000000000000000000000000602082015250565b6000613122602583612658565b915061312d826130c6565b604082019050919050565b6000602082019050818103600083015261315181613115565b9050919050565b7f45524332303a207472616e7366657220746f20746865207a65726f206164647260008201527f6573730000000000000000000000000000000000000000000000000000000000602082015250565b60006131b4602383612658565b91506131bf82613158565b604082019050919050565b600060208201905081810360008301526131e3816131a7565b9050919050565b7f45524332303a207472616e7366657220616d6f756e742065786365656473206260008201527f616c616e63650000000000000000000000000000000000000000000000000000602082015250565b6000613246602683612658565b9150613251826131ea565b604082019050919050565b6000602082019050818103600083015261327581613239565b9050919050565b7f4552433230536e617073686f743a206964206973203000000000000000000000600082015250565b60006132b2601683612658565b91506132bd8261327c565b602082019050919050565b600060208201905081810360008301526132e1816132a5565b9050919050565b7f4552433230536e617073686f743a206e6f6e6578697374656e74206964000000600082015250565b600061331e601d83612658565b9150613329826132e8565b602082019050919050565b6000602082019050818103600083015261334d81613311565b9050919050565b7f4e487b7100000000000000000000000000000000000000000000000000000000600052603260045260246000fd5b7f5061757361626c653a2070617573656400000000000000000000000000000000600082015250565b60006133b9601083612658565b91506133c482613383565b602082019050919050565b600060208201905081810360008301526133e8816133ac565b9050919050565b7f5061757361626c653a206e6f7420706175736564000000000000000000000000600082015250565b6000613425601483612658565b9150613430826133ef565b602082019050919050565b6000602082019050818103600083015261345481613418565b9050919050565b60008151905061346a81612919565b92915050565b6000602082840312156134865761348561275b565b5b60006134948482850161345b565b91505092915050565b7f436f6e74726163742073656c6c6572207265766572746520746865207472616e60008201527f7366657200000000000000000000000000000000000000000000000000000000602082015250565b60006134f9602483612658565b91506135048261349d565b604082019050919050565b60006020820190508181036000830152613528816134ec565b9050919050565b60008151905061353e81612760565b92915050565b60006020828403121561355a5761355961275b565b5b60006135688482850161352f565b91505092915050565b6003811061357e57600080fd5b50565b60008151905061359081613571565b92915050565b6000602082840312156135ac576135ab61275b565b5b60006135ba84828501613581565b91505092915050565b7f4e487b7100000000000000000000000000000000000000000000000000000000600052602160045260246000fd5b7f546f206163636f756e74206e6f74206163746976650000000000000000000000600082015250565b6000613628601583612658565b9150613633826135f2565b602082019050919050565b600060208201905081810360008301526136578161361b565b9050919050565b7f4572726f722064657374696e6174696f6e2c2077616c6c657420627920636f6d60008201527f70616e7900000000000000000000000000000000000000000000000000000000602082015250565b60006136ba602483612658565b91506136c58261365e565b604082019050919050565b600060208201905081810360008301526136e9816136ad565b9050919050565b7f4572726f72206f726967696e2c2077616c6c657420627920636f6d70616e7900600082015250565b6000613726601f83612658565b9150613731826136f0565b602082019050919050565b6000602082019050818103600083015261375581613719565b9050919050565b60006080820190506137716000830187612731565b61377e6020830186612731565b61378b6040830185612731565b6137986060830184612838565b95945050505050565b60006137ac8261278c565b91506137b78361278c565b92508282039050818111156137cf576137ce612d1a565b5b92915050565b7f4e487b7100000000000000000000000000000000000000000000000000000000600052601260045260246000fd5b600061380f8261278c565b915061381a8361278c565b92508261382a576138296137d5565b5b82820490509291505056fea264697066735822122073ad8396ced6d874131bf195aa4e1ce24ec56fde40d70b841d68c7f4f3e41fdd64736f6c63430008110033",
  "immutableReferences": {},
  "source": "// SPDX-License-Identifier: MIT\npragma solidity ^0.8.17;\n\nimport \"@openzeppelin/contracts/token/ERC20/ERC20.sol\";\nimport \"@openzeppelin/contracts/token/ERC20/extensions/ERC20Snapshot.sol\";\nimport \"@openzeppelin/contracts/security/Pausable.sol\";\nimport \"@openzeppelin/contracts/access/Ownable.sol\";\n\nimport \"../interfaces/IWHITELIST.sol\"; \nimport \"../interfaces/ITOKENHOLDINGS.sol\"; \nimport \"../interfaces/ISELLER.sol\"; \nimport \"../interfaces/IDIVIDENDS.sol\"; \nimport \"../interfaces/IEVENTSAGGREGATOR.sol\"; \n\ninterface IMANAGERWL {\n    function whiteList() external view returns(address); \n}\n\ncontract TokenHoldings is ITOKENHOLDINGS, ERC20, ERC20Snapshot, Pausable, Ownable {\n    //////////////////////////////////////////////////////////////////////////////////////////////////\n    // State\n    //////////////////////////////////////////////////////////////////////////////////////////////////\n\n    address private s_manager;\n    address private s_contractSeller;\n    address private s_contractDividends;\n\n    mapping(uint256 => SnapshotInfo[]) private s_idsSnapshots;\n    uint256[] private s_yearsSnapshots;\n    mapping(uint256 => bool) private s_years; \n    mapping(address => mapping(uint256 => bool)) private snpashotsUsed;\n\n    uint256 private s_amountBuyWithFiat;\n    mapping(address => uint256) private s_amountBuyWithFiatUser;\n\n    address private s_eventsaggregator;\n\n    //////////////////////////////////////////////////////////////////////////////////////////////////\n    // Constructor\n    //////////////////////////////////////////////////////////////////////////////////////////////////\n    \n    constructor(\n        string memory p_name, \n        string memory p_symbol,\n        address p_manager,\n        address p_contractSeller,\n        address p_contractDividends,\n        uint256 p_amount,\n        address p_eventsaggregator\n    ) ERC20(p_name, p_symbol) {\n        s_manager = p_manager;\n        s_contractSeller = p_contractSeller;\n        s_contractDividends = p_contractDividends;\n\n        _transferOwnership(p_manager);\n\n        s_eventsaggregator = p_eventsaggregator;\n\n        _mint(p_contractSeller, p_amount);\n    }\n\n    //////////////////////////////////////////////////////////////////////////////////////////////////\n    // Public functions\n    ////////////////////////////////////////////////////////////////////////////////////////////////// \n\n    // => View functions\n    \n    function seller() public view override returns(address) {\n        return s_contractSeller;\n    }\n\n    function getCurrentSnapshotId() public view override returns(uint256) {\n        return _getCurrentSnapshotId();\n    }\n\n    function snapshotsYear(uint256 p_year) public view override returns(SnapshotInfo[] memory) {\n        return s_idsSnapshots[p_year];\n    }\n\n    function yearsWithSnapshots() public view override returns(uint256[] memory) {\n        return s_yearsSnapshots;\n    }\n\n    function amountBuyWithFiat() public view override returns(uint256) {\n        return s_amountBuyWithFiat;\n    }\n\n    function amountBuyWithFiatUser(address p_buyer) public view override returns(uint256) {\n        return s_amountBuyWithFiatUser[p_buyer]; \n    }\n\n    function snapshotUsed(address p_account, uint256 p_snapshotId) public view override returns(bool) {\n        return snpashotsUsed[p_account][p_snapshotId];\n    }\n\n    // => Set functions\n\n    function setPause(bool p_pause) public onlyOwner override {\n        if (p_pause) {\n            _pause();\n        } else {\n            _unpause();\n        }\n    } \n\n    function snapshotUse(address p_account, uint256 p_snapshotId) public override returns(bool) {\n        require(msg.sender == s_contractDividends, \"Error origin\");\n        \n        snpashotsUsed[p_account][p_snapshotId] = true;\n\n        return true;\n    }\n\n    function snapshot(uint256 p_year, bool p_withholding) public override returns(uint256) { \n        require(msg.sender == s_contractDividends, \"Error origin\");\n\n        uint256 id = _snapshot();\n\n        s_idsSnapshots[p_year].push(SnapshotInfo(id, p_withholding));\n        if (!s_years[p_year]) {\n            s_yearsSnapshots.push(p_year);\n            s_years[p_year] = true; \n        }\n\n        return id;\n    }\n\n    function incrementAmountBuyWithFiat(uint256 p_amount, address p_buyer) public override returns(bool) { \n        require(msg.sender == s_contractSeller, \"Error origin\");\n\n        s_amountBuyWithFiat += p_amount; \n        s_amountBuyWithFiatUser[p_buyer] += p_amount;\n\n        return true;\n    }\n\n    function forcedTransferStocks(address p_from, address p_to) public onlyOwner override returns(bool) {\n        _transfer(\n            p_from,\n            p_to,\n            balanceOf(p_from)\n        );\n\n        emit ForcedTransferStocks(p_from, p_to);\n\n        return true;  \n    }\n\n    //////////////////////////////////////////////////////////////////////////////////////////////////\n    // Internal functions\n    //////////////////////////////////////////////////////////////////////////////////////////////////\n\n    function _beforeTokenTransfer(address from, address to, uint256 amount)\n        internal\n        whenNotPaused\n        override(ERC20, ERC20Snapshot)\n    {\n        ISELLER sellerContract = ISELLER(s_contractSeller);\n        \n        if (\n            from != address(0) && \n            from != s_contractSeller && \n            to != address(0) &&\n            to != s_contractSeller\n        ) {\n            require(sellerContract.canTransferHoldings(), \"Contract seller reverte the transfer\"); \n        }\n\n        IWHITELIST.Status statusToWL = IWHITELIST(IMANAGERWL(s_manager).whiteList()).status(to); \n        require(\n            statusToWL == IWHITELIST.Status.Active ||\n            from == address(0) ||\n            (to == address(0) || to == s_contractSeller), \n            \"To account not active\"\n        );\n\n        if (s_amountBuyWithFiatUser[to] > 0) {\n            require(from == s_contractSeller || from == address(0), \"Error destination, wallet by company\");\n        }\n\n        if (s_amountBuyWithFiatUser[from] > 0) {\n            require(to == s_contractSeller || to == address(0), \"Error origin, wallet by company\");\n        }\n\n        IEVENTSAGGREGATOR(s_eventsaggregator).transferEvent(address(this), from, to, amount);\n        \n        super._beforeTokenTransfer(from, to, amount); \n    }\n}\n",
  "sourcePath": "/Users/albertolasa/Desktop/Clientes/AURINEXT/domoblockCodes/DOMOBLOCK/contracts/TokenHoldings.sol",
  "compiler": {
    "name": "solc",
    "version": "0.8.17+commit.8df45f5f.Emscripten.clang"
  },
  "schemaVersion": "3.4.8",
  "updatedAt": "2023-02-13T18:05:57.950Z",
  "devdoc": {
    "kind": "dev",
    "methods": {
      "allowance(address,address)": {
        "details": "See {IERC20-allowance}."
      },
      "approve(address,uint256)": {
        "details": "See {IERC20-approve}. NOTE: If `amount` is the maximum `uint256`, the allowance is not updated on `transferFrom`. This is semantically equivalent to an infinite approval. Requirements: - `spender` cannot be the zero address."
      },
      "balanceOf(address)": {
        "details": "See {IERC20-balanceOf}."
      },
      "balanceOfAt(address,uint256)": {
        "details": "Retrieves the balance of `account` at the time `snapshotId` was created."
      },
      "decimals()": {
        "details": "Returns the number of decimals used to get its user representation. For example, if `decimals` equals `2`, a balance of `505` tokens should be displayed to a user as `5.05` (`505 / 10 ** 2`). Tokens usually opt for a value of 18, imitating the relationship between Ether and Wei. This is the value {ERC20} uses, unless this function is overridden; NOTE: This information is only used for _display_ purposes: it in no way affects any of the arithmetic of the contract, including {IERC20-balanceOf} and {IERC20-transfer}."
      },
      "decreaseAllowance(address,uint256)": {
        "details": "Atomically decreases the allowance granted to `spender` by the caller. This is an alternative to {approve} that can be used as a mitigation for problems described in {IERC20-approve}. Emits an {Approval} event indicating the updated allowance. Requirements: - `spender` cannot be the zero address. - `spender` must have allowance for the caller of at least `subtractedValue`."
      },
      "increaseAllowance(address,uint256)": {
        "details": "Atomically increases the allowance granted to `spender` by the caller. This is an alternative to {approve} that can be used as a mitigation for problems described in {IERC20-approve}. Emits an {Approval} event indicating the updated allowance. Requirements: - `spender` cannot be the zero address."
      },
      "name()": {
        "details": "Returns the name of the token."
      },
      "owner()": {
        "details": "Returns the address of the current owner."
      },
      "paused()": {
        "details": "Returns true if the contract is paused, and false otherwise."
      },
      "renounceOwnership()": {
        "details": "Leaves the contract without owner. It will not be possible to call `onlyOwner` functions anymore. Can only be called by the current owner. NOTE: Renouncing ownership will leave the contract without an owner, thereby removing any functionality that is only available to the owner."
      },
      "symbol()": {
        "details": "Returns the symbol of the token, usually a shorter version of the name."
      },
      "totalSupply()": {
        "details": "See {IERC20-totalSupply}."
      },
      "totalSupplyAt(uint256)": {
        "details": "Retrieves the total supply at the time `snapshotId` was created."
      },
      "transfer(address,uint256)": {
        "details": "See {IERC20-transfer}. Requirements: - `to` cannot be the zero address. - the caller must have a balance of at least `amount`."
      },
      "transferFrom(address,address,uint256)": {
        "details": "See {IERC20-transferFrom}. Emits an {Approval} event indicating the updated allowance. This is not required by the EIP. See the note at the beginning of {ERC20}. NOTE: Does not update the allowance if the current allowance is the maximum `uint256`. Requirements: - `from` and `to` cannot be the zero address. - `from` must have a balance of at least `amount`. - the caller must have allowance for ``from``'s tokens of at least `amount`."
      },
      "transferOwnership(address)": {
        "details": "Transfers ownership of the contract to a new account (`newOwner`). Can only be called by the current owner."
      }
    },
    "version": 1
  },
  "userdoc": {
    "kind": "user",
    "methods": {},
    "version": 1
  }
}