{
  "contractName": "WhiteList",
  "abi": [
    {
      "inputs": [],
      "stateMutability": "nonpayable",
      "type": "constructor"
    },
    {
      "anonymous": false,
      "inputs": [
        {
          "indexed": true,
          "internalType": "address",
          "name": "e_address",
          "type": "address"
        },
        {
          "indexed": true,
          "internalType": "enum IWHITELIST.Status",
          "name": "e_status",
          "type": "uint8"
        }
      ],
      "name": "ChangeStatus",
      "type": "event"
    },
    {
      "anonymous": false,
      "inputs": [
        {
          "indexed": true,
          "internalType": "address",
          "name": "previousOwner",
          "type": "address"
        },
        {
          "indexed": true,
          "internalType": "address",
          "name": "newOwner",
          "type": "address"
        }
      ],
      "name": "OwnershipTransferred",
      "type": "event"
    },
    {
      "inputs": [],
      "name": "owner",
      "outputs": [
        {
          "internalType": "address",
          "name": "",
          "type": "address"
        }
      ],
      "stateMutability": "view",
      "type": "function",
      "constant": true
    },
    {
      "inputs": [],
      "name": "renounceOwnership",
      "outputs": [],
      "stateMutability": "nonpayable",
      "type": "function"
    },
    {
      "inputs": [
        {
          "internalType": "address",
          "name": "newOwner",
          "type": "address"
        }
      ],
      "name": "transferOwnership",
      "outputs": [],
      "stateMutability": "nonpayable",
      "type": "function"
    },
    {
      "inputs": [
        {
          "internalType": "address",
          "name": "p_address",
          "type": "address"
        }
      ],
      "name": "status",
      "outputs": [
        {
          "internalType": "enum IWHITELIST.Status",
          "name": "",
          "type": "uint8"
        }
      ],
      "stateMutability": "view",
      "type": "function",
      "constant": true
    },
    {
      "inputs": [
        {
          "internalType": "address",
          "name": "p_newOwner",
          "type": "address"
        }
      ],
      "name": "transferOwner",
      "outputs": [],
      "stateMutability": "nonpayable",
      "type": "function"
    },
    {
      "inputs": [
        {
          "internalType": "address",
          "name": "p_newSigner",
          "type": "address"
        }
      ],
      "name": "transferSigner",
      "outputs": [],
      "stateMutability": "nonpayable",
      "type": "function"
    },
    {
      "inputs": [
        {
          "internalType": "address",
          "name": "p_address",
          "type": "address"
        },
        {
          "internalType": "enum IWHITELIST.Status",
          "name": "p_status",
          "type": "uint8"
        }
      ],
      "name": "setStatus",
      "outputs": [
        {
          "internalType": "bool",
          "name": "",
          "type": "bool"
        }
      ],
      "stateMutability": "nonpayable",
      "type": "function"
    },
    {
      "inputs": [
        {
          "internalType": "address",
          "name": "p_address",
          "type": "address"
        },
        {
          "internalType": "enum IWHITELIST.Status",
          "name": "p_status",
          "type": "uint8"
        },
        {
          "internalType": "uint256",
          "name": "p_timeStamp",
          "type": "uint256"
        },
        {
          "internalType": "bytes",
          "name": "sig",
          "type": "bytes"
        }
      ],
      "name": "setStatusWithSignature",
      "outputs": [],
      "stateMutability": "nonpayable",
      "type": "function"
    }
  ],
  "bytecode": "0x608060405234801561001057600080fd5b5061002d61002261007360201b60201c565b61007b60201b60201c565b33600160006101000a81548173ffffffffffffffffffffffffffffffffffffffff021916908373ffffffffffffffffffffffffffffffffffffffff16021790555061013f565b600033905090565b60008060009054906101000a900473ffffffffffffffffffffffffffffffffffffffff169050816000806101000a81548173ffffffffffffffffffffffffffffffffffffffff021916908373ffffffffffffffffffffffffffffffffffffffff1602179055508173ffffffffffffffffffffffffffffffffffffffff168173ffffffffffffffffffffffffffffffffffffffff167f8be0079c531659141344cd1fd0a4f28419497f9722a3daafe3b4186f6b6457e060405160405180910390a35050565b61114d8061014e6000396000f3fe608060405234801561001057600080fd5b50600436106100885760003560e01c8063645b8b1b1161005b578063645b8b1b14610111578063715018a6146101415780638da5cb5b1461014b578063f2fde38b1461016957610088565b8063229deedc1461008d578063278e07ce146100a95780633660a084146100d95780634fb2e45d146100f5575b600080fd5b6100a760048036038101906100a29190610b84565b610185565b005b6100c360048036038101906100be9190610c07565b610362565b6040516100d09190610c62565b60405180910390f35b6100f360048036038101906100ee9190610c7d565b6104a7565b005b61010f600480360381019061010a9190610c7d565b610567565b005b61012b60048036038101906101269190610c7d565b6105ef565b6040516101389190610d21565b60405180910390f35b610149610645565b005b6101536106cd565b6040516101609190610d4b565b60405180910390f35b610183600480360381019061017e9190610c7d565b6106f6565b005b4261012c836101949190610d95565b116101d4576040517f08c379a00000000000000000000000000000000000000000000000000000000081526004016101cb90610e26565b60405180910390fd5b6000848484306040516020016101ed9493929190610ee5565b604051602081830303815290604052805190602001209050600160009054906101000a900473ffffffffffffffffffffffffffffffffffffffff1673ffffffffffffffffffffffffffffffffffffffff1661024882846107ed565b73ffffffffffffffffffffffffffffffffffffffff161461029e576040517f08c379a000000000000000000000000000000000000000000000000000000000815260040161029590610f7f565b60405180910390fd5b83600260008773ffffffffffffffffffffffffffffffffffffffff1673ffffffffffffffffffffffffffffffffffffffff16815260200190815260200160002060006101000a81548160ff02191690836002811115610300576102ff610caa565b5b021790555083600281111561031857610317610caa565b5b8573ffffffffffffffffffffffffffffffffffffffff167fb82ce22096c6500c582b45cfbf153014e62fd0cbcccaf9a68dc6bfbd53d875d360405160405180910390a35050505050565b600061036c610862565b73ffffffffffffffffffffffffffffffffffffffff1661038a6106cd565b73ffffffffffffffffffffffffffffffffffffffff16146103e0576040517f08c379a00000000000000000000000000000000000000000000000000000000081526004016103d790610feb565b60405180910390fd5b81600260008573ffffffffffffffffffffffffffffffffffffffff1673ffffffffffffffffffffffffffffffffffffffff16815260200190815260200160002060006101000a81548160ff0219169083600281111561044257610441610caa565b5b021790555081600281111561045a57610459610caa565b5b8373ffffffffffffffffffffffffffffffffffffffff167fb82ce22096c6500c582b45cfbf153014e62fd0cbcccaf9a68dc6bfbd53d875d360405160405180910390a36001905092915050565b6104af610862565b73ffffffffffffffffffffffffffffffffffffffff166104cd6106cd565b73ffffffffffffffffffffffffffffffffffffffff1614610523576040517f08c379a000000000000000000000000000000000000000000000000000000000815260040161051a90610feb565b60405180910390fd5b80600160006101000a81548173ffffffffffffffffffffffffffffffffffffffff021916908373ffffffffffffffffffffffffffffffffffffffff16021790555050565b61056f610862565b73ffffffffffffffffffffffffffffffffffffffff1661058d6106cd565b73ffffffffffffffffffffffffffffffffffffffff16146105e3576040517f08c379a00000000000000000000000000000000000000000000000000000000081526004016105da90610feb565b60405180910390fd5b6105ec8161086a565b50565b6000600260008373ffffffffffffffffffffffffffffffffffffffff1673ffffffffffffffffffffffffffffffffffffffff16815260200190815260200160002060009054906101000a900460ff169050919050565b61064d610862565b73ffffffffffffffffffffffffffffffffffffffff1661066b6106cd565b73ffffffffffffffffffffffffffffffffffffffff16146106c1576040517f08c379a00000000000000000000000000000000000000000000000000000000081526004016106b890610feb565b60405180910390fd5b6106cb600061086a565b565b60008060009054906101000a900473ffffffffffffffffffffffffffffffffffffffff16905090565b6106fe610862565b73ffffffffffffffffffffffffffffffffffffffff1661071c6106cd565b73ffffffffffffffffffffffffffffffffffffffff1614610772576040517f08c379a000000000000000000000000000000000000000000000000000000000815260040161076990610feb565b60405180910390fd5b600073ffffffffffffffffffffffffffffffffffffffff168173ffffffffffffffffffffffffffffffffffffffff16036107e1576040517f08c379a00000000000000000000000000000000000000000000000000000000081526004016107d89061107d565b60405180910390fd5b6107ea8161086a565b50565b6000806000806107fc8561092e565b8093508194508295505050506001868484846040516000815260200160405260405161082b94939291906110d2565b6020604051602081039080840390855afa15801561084d573d6000803e3d6000fd5b50505060206040510351935050505092915050565b600033905090565b60008060009054906101000a900473ffffffffffffffffffffffffffffffffffffffff169050816000806101000a81548173ffffffffffffffffffffffffffffffffffffffff021916908373ffffffffffffffffffffffffffffffffffffffff1602179055508173ffffffffffffffffffffffffffffffffffffffff168173ffffffffffffffffffffffffffffffffffffffff167f8be0079c531659141344cd1fd0a4f28419497f9722a3daafe3b4186f6b6457e060405160405180910390a35050565b6000806000604184511461094157600080fd5b60008060006020870151925060408701519150606087015160001a90508083839550955095505050509193909250565b6000604051905090565b600080fd5b600080fd5b600073ffffffffffffffffffffffffffffffffffffffff82169050919050565b60006109b082610985565b9050919050565b6109c0816109a5565b81146109cb57600080fd5b50565b6000813590506109dd816109b7565b92915050565b600381106109f057600080fd5b50565b600081359050610a02816109e3565b92915050565b6000819050919050565b610a1b81610a08565b8114610a2657600080fd5b50565b600081359050610a3881610a12565b92915050565b600080fd5b600080fd5b6000601f19601f8301169050919050565b7f4e487b7100000000000000000000000000000000000000000000000000000000600052604160045260246000fd5b610a9182610a48565b810181811067ffffffffffffffff82111715610ab057610aaf610a59565b5b80604052505050565b6000610ac3610971565b9050610acf8282610a88565b919050565b600067ffffffffffffffff821115610aef57610aee610a59565b5b610af882610a48565b9050602081019050919050565b82818337600083830152505050565b6000610b27610b2284610ad4565b610ab9565b905082815260208101848484011115610b4357610b42610a43565b5b610b4e848285610b05565b509392505050565b600082601f830112610b6b57610b6a610a3e565b5b8135610b7b848260208601610b14565b91505092915050565b60008060008060808587031215610b9e57610b9d61097b565b5b6000610bac878288016109ce565b9450506020610bbd878288016109f3565b9350506040610bce87828801610a29565b925050606085013567ffffffffffffffff811115610bef57610bee610980565b5b610bfb87828801610b56565b91505092959194509250565b60008060408385031215610c1e57610c1d61097b565b5b6000610c2c858286016109ce565b9250506020610c3d858286016109f3565b9150509250929050565b60008115159050919050565b610c5c81610c47565b82525050565b6000602082019050610c776000830184610c53565b92915050565b600060208284031215610c9357610c9261097b565b5b6000610ca1848285016109ce565b91505092915050565b7f4e487b7100000000000000000000000000000000000000000000000000000000600052602160045260246000fd5b60038110610cea57610ce9610caa565b5b50565b6000819050610cfb82610cd9565b919050565b6000610d0b82610ced565b9050919050565b610d1b81610d00565b82525050565b6000602082019050610d366000830184610d12565b92915050565b610d45816109a5565b82525050565b6000602082019050610d606000830184610d3c565b92915050565b7f4e487b7100000000000000000000000000000000000000000000000000000000600052601160045260246000fd5b6000610da082610a08565b9150610dab83610a08565b9250828201905080821115610dc357610dc2610d66565b5b92915050565b600082825260208201905092915050565b7f45787069726564207369676e6174757265000000000000000000000000000000600082015250565b6000610e10601183610dc9565b9150610e1b82610dda565b602082019050919050565b60006020820190508181036000830152610e3f81610e03565b9050919050565b60008160601b9050919050565b6000610e5e82610e46565b9050919050565b6000610e7082610e53565b9050919050565b610e88610e83826109a5565b610e65565b82525050565b60008160f81b9050919050565b6000610ea682610e8e565b9050919050565b610ebe610eb982610d00565b610e9b565b82525050565b6000819050919050565b610edf610eda82610a08565b610ec4565b82525050565b6000610ef18287610e77565b601482019150610f018286610ead565b600182019150610f118285610ece565b602082019150610f218284610e77565b60148201915081905095945050505050565b7f4572726f72207369676e61747572650000000000000000000000000000000000600082015250565b6000610f69600f83610dc9565b9150610f7482610f33565b602082019050919050565b60006020820190508181036000830152610f9881610f5c565b9050919050565b7f4f776e61626c653a2063616c6c6572206973206e6f7420746865206f776e6572600082015250565b6000610fd5602083610dc9565b9150610fe082610f9f565b602082019050919050565b6000602082019050818103600083015261100481610fc8565b9050919050565b7f4f776e61626c653a206e6577206f776e657220697320746865207a65726f206160008201527f6464726573730000000000000000000000000000000000000000000000000000602082015250565b6000611067602683610dc9565b91506110728261100b565b604082019050919050565b600060208201905081810360008301526110968161105a565b9050919050565b6000819050919050565b6110b08161109d565b82525050565b600060ff82169050919050565b6110cc816110b6565b82525050565b60006080820190506110e760008301876110a7565b6110f460208301866110c3565b61110160408301856110a7565b61110e60608301846110a7565b9594505050505056fea26469706673582212203cd2128e2313256e30908f5fc778a1f0a3a19d98ddea2b5ea582272fe0e4bdcf64736f6c63430008110033",
  "immutableReferences": {},
  "source": "// SPDX-License-Identifier: MIT\npragma solidity ^0.8.17;\n\nimport \"@openzeppelin/contracts/access/Ownable.sol\";\n\nimport \"../interfaces/IWHITELIST.sol\";\n\ncontract WhiteList is IWHITELIST, Ownable { \n    //////////////////////////////////////////////////////////////////////////////////////////////////\n    // State\n    //////////////////////////////////////////////////////////////////////////////////////////////////\n\n    address private s_signer;\n    mapping(address => Status) private s_statusAddress; \n\n    //////////////////////////////////////////////////////////////////////////////////////////////////\n    // Constructor\n    //////////////////////////////////////////////////////////////////////////////////////////////////\n\n    constructor() {\n        s_signer = msg.sender;\n    }\n\n    //////////////////////////////////////////////////////////////////////////////////////////////////\n    // Public functions\n    ////////////////////////////////////////////////////////////////////////////////////////////////// \n\n    // => View functions\n\n    function status(address p_address) public view override returns(Status) { \n        return s_statusAddress[p_address];\n    }\n\n    // => Set functions\n\n    function transferOwner(address p_newOwner) public onlyOwner override { \n        _transferOwnership(p_newOwner);\n    }\n\n    function transferSigner(address p_newSigner) public onlyOwner override {\n        s_signer = p_newSigner;\n    }\n\n    function setStatus(\n        address p_address, \n        Status p_status\n    ) public onlyOwner override returns(bool) {\n        s_statusAddress[p_address] = p_status;\n\n        emit ChangeStatus(p_address, p_status);\n\n        return true;\n    }\n\n    function setStatusWithSignature(\n        address p_address, \n        Status p_status, \n        uint256 p_timeStamp,\n        bytes memory sig\n    ) public override {\n        require(p_timeStamp + 5 minutes > block.timestamp, \"Expired signature\");\n\n        bytes32 message = keccak256(abi.encodePacked(p_address, p_status, p_timeStamp, address(this)));\n        require(_recoverSigner(message, sig) == s_signer, \"Error signature\");\n\n        s_statusAddress[p_address] = p_status;\n\n        emit ChangeStatus(p_address, p_status); \n    }\n\n\n    //////////////////////////////////////////////////////////////////////////////////////////////////\n    // Internal functions\n    //////////////////////////////////////////////////////////////////////////////////////////////////\n\n    function _recoverSigner(bytes32 message, bytes memory sig) internal pure returns (address) {\n        uint8 v;\n        bytes32 r;\n        bytes32 s;\n\n        (v, r, s) = _splitSignature(sig);\n\n        return ecrecover(message, v, r, s);\n    }\n\n    function _splitSignature(bytes memory sig) internal pure returns (uint8, bytes32, bytes32) {\n        require(sig.length == 65);\n\n        bytes32 r;\n        bytes32 s;\n        uint8 v;\n\n        assembly {\n            r := mload(add(sig, 32))\n            s := mload(add(sig, 64))\n            v := byte(0, mload(add(sig, 96)))\n        }\n    \n        return (v, r, s);\n    }\n}\n",
  "sourcePath": "/Users/albertolasa/Desktop/Clientes/AURINEXT/domoblockCodes/DOMOBLOCK/contracts/WhiteList.sol",
  "compiler": {
    "name": "solc",
    "version": "0.8.17+commit.8df45f5f.Emscripten.clang"
  },
  "schemaVersion": "3.4.8",
  "updatedAt": "2023-02-13T18:09:25.829Z",
  "networkType": "ethereum",
  "devdoc": {
    "kind": "dev",
    "methods": {
      "owner()": {
        "details": "Returns the address of the current owner."
      },
      "renounceOwnership()": {
        "details": "Leaves the contract without owner. It will not be possible to call `onlyOwner` functions anymore. Can only be called by the current owner. NOTE: Renouncing ownership will leave the contract without an owner, thereby removing any functionality that is only available to the owner."
      },
      "transferOwnership(address)": {
        "details": "Transfers ownership of the contract to a new account (`newOwner`). Can only be called by the current owner."
      }
    },
    "version": 1
  },
  "userdoc": {
    "kind": "user",
    "methods": {},
    "version": 1
  }
}